{
  "address": "0xd4A5f0A6Bf09c1DC042254329ac144D99412f3a5",
  "abi": [
    {
      "inputs": [],
      "stateMutability": "nonpayable",
      "type": "constructor"
    },
    {
      "inputs": [],
      "name": "lastUpdated",
      "outputs": [
        {
          "internalType": "uint256",
          "name": "",
          "type": "uint256"
        }
      ],
      "stateMutability": "view",
      "type": "function"
    },
    {
      "inputs": [],
      "name": "rate",
      "outputs": [
        {
          "internalType": "uint256",
          "name": "",
          "type": "uint256"
        }
      ],
      "stateMutability": "view",
      "type": "function"
    },
    {
      "inputs": [
        {
          "internalType": "uint256",
          "name": "rate_",
          "type": "uint256"
        }
      ],
      "name": "setRate",
      "outputs": [],
      "stateMutability": "nonpayable",
      "type": "function"
    },
    {
      "inputs": [
        {
          "internalType": "uint256",
          "name": "timestamp",
          "type": "uint256"
        }
      ],
      "name": "setUpdateTime",
      "outputs": [],
      "stateMutability": "nonpayable",
      "type": "function"
    }
  ],
  "transactionHash": "0xae1553421181f29738802cf47614f9ae2e6454b613cbfc260bcdd07b3116f191",
  "args": [],
  "numDeployments": 1,
  "solcInputHash": "b29cd153aaed98a3f3bb92c92603933d",
  "bytecode": "0x608060405234801561001057600080fd5b50600280546001600160a01b03191633179055610125806100326000396000f3fe6080604052348015600f57600080fd5b506004361060465760003560e01c80632c4e722e14604b57806334fcf437146061578063bf73eea6146072578063d0b06f5d146082575b600080fd5b6000545b60405190815260200160405180910390f35b6070606c36600460d7565b6089565b005b6070607d36600460d7565b600155565b600154604f565b6002546001600160a01b0316331460d25760405162461bcd60e51b81526020600482015260096024820152682737bb9037bbb732b960b91b604482015260640160405180910390fd5b600055565b60006020828403121560e857600080fd5b503591905056fea2646970667358221220545584e294ed5ac30efd6f43e71c9c0236868446688a1d723bb049b6ce8cdb8e64736f6c63430008130033",
  "devdoc": {
    "kind": "dev",
    "methods": {},
    "version": 1
  },
  "userdoc": {
    "kind": "user",
    "methods": {},
    "version": 1
  },
  "storageLayout": {
    "storage": [
      {
        "astId": 29744,
        "contract": "contracts/test/CrossChainRateReceiverMock.sol:CrossChainRateReceiverMock",
        "label": "_rate",
        "offset": 0,
        "slot": "0",
        "type": "t_uint256"
      },
      {
        "astId": 29746,
        "contract": "contracts/test/CrossChainRateReceiverMock.sol:CrossChainRateReceiverMock",
        "label": "_timestamp",
        "offset": 0,
        "slot": "1",
        "type": "t_uint256"
      },
      {
        "astId": 29748,
        "contract": "contracts/test/CrossChainRateReceiverMock.sol:CrossChainRateReceiverMock",
        "label": "_owner",
        "offset": 0,
        "slot": "2",
        "type": "t_address"
      }
    ],
    "types": {
      "t_address": {
        "encoding": "inplace",
        "label": "address",
        "numberOfBytes": "20"
      },
      "t_uint256": {
        "encoding": "inplace",
        "label": "uint256",
        "numberOfBytes": "32"
      }
    }
  }
}