{
  "address": "0x48469a0481254d5945E7E56c1Eb9861429c02f44",
  "abi": [
    {
      "anonymous": false,
      "inputs": [
        {
          "indexed": false,
          "internalType": "uint256",
          "name": "_lastGoodPrice",
          "type": "uint256"
        }
      ],
      "name": "LastGoodPriceUpdated",
      "type": "event"
    },
    {
      "anonymous": false,
      "inputs": [
        {
          "indexed": true,
          "internalType": "address",
          "name": "previousOwner",
          "type": "address"
        },
        {
          "indexed": true,
          "internalType": "address",
          "name": "newOwner",
          "type": "address"
        }
      ],
      "name": "OwnershipTransferred",
      "type": "event"
    },
    {
      "anonymous": false,
      "inputs": [
        {
          "indexed": false,
          "internalType": "enum PriceFeed.Status",
          "name": "newStatus",
          "type": "uint8"
        }
      ],
      "name": "PriceFeedStatusChanged",
      "type": "event"
    },
    {
      "inputs": [],
      "name": "DECIMAL_PRECISION",
      "outputs": [
        {
          "internalType": "uint256",
          "name": "",
          "type": "uint256"
        }
      ],
      "stateMutability": "view",
      "type": "function"
    },
    {
      "inputs": [],
      "name": "MAX_PRICE_DIFFERENCE_BETWEEN_ORACLES",
      "outputs": [
        {
          "internalType": "uint256",
          "name": "",
          "type": "uint256"
        }
      ],
      "stateMutability": "view",
      "type": "function"
    },
    {
      "inputs": [],
      "name": "NAME",
      "outputs": [
        {
          "internalType": "string",
          "name": "",
          "type": "string"
        }
      ],
      "stateMutability": "view",
      "type": "function"
    },
    {
      "inputs": [],
      "name": "TARGET_DIGITS",
      "outputs": [
        {
          "internalType": "uint256",
          "name": "",
          "type": "uint256"
        }
      ],
      "stateMutability": "view",
      "type": "function"
    },
    {
      "inputs": [],
      "name": "TIMEOUT",
      "outputs": [
        {
          "internalType": "uint256",
          "name": "",
          "type": "uint256"
        }
      ],
      "stateMutability": "view",
      "type": "function"
    },
    {
      "inputs": [],
      "name": "api3Proxy",
      "outputs": [
        {
          "internalType": "contract IProxy",
          "name": "",
          "type": "address"
        }
      ],
      "stateMutability": "view",
      "type": "function"
    },
    {
      "inputs": [],
      "name": "borrowerOperationsAddress",
      "outputs": [
        {
          "internalType": "address",
          "name": "",
          "type": "address"
        }
      ],
      "stateMutability": "view",
      "type": "function"
    },
    {
      "inputs": [],
      "name": "fetchPrice",
      "outputs": [
        {
          "internalType": "uint256",
          "name": "price",
          "type": "uint256"
        }
      ],
      "stateMutability": "nonpayable",
      "type": "function"
    },
    {
      "inputs": [],
      "name": "lastGoodPrice",
      "outputs": [
        {
          "internalType": "uint256",
          "name": "",
          "type": "uint256"
        }
      ],
      "stateMutability": "view",
      "type": "function"
    },
    {
      "inputs": [],
      "name": "owner",
      "outputs": [
        {
          "internalType": "address",
          "name": "",
          "type": "address"
        }
      ],
      "stateMutability": "view",
      "type": "function"
    },
    {
      "inputs": [],
      "name": "pyth",
      "outputs": [
        {
          "internalType": "contract IPyth",
          "name": "",
          "type": "address"
        }
      ],
      "stateMutability": "view",
      "type": "function"
    },
    {
      "inputs": [],
      "name": "pythFeedId",
      "outputs": [
        {
          "internalType": "bytes32",
          "name": "",
          "type": "bytes32"
        }
      ],
      "stateMutability": "view",
      "type": "function"
    },
    {
      "inputs": [],
      "name": "rateReceiver",
      "outputs": [
        {
          "internalType": "contract ICrossChainRateReceiver",
          "name": "",
          "type": "address"
        }
      ],
      "stateMutability": "view",
      "type": "function"
    },
    {
      "inputs": [],
      "name": "renounceOwnership",
      "outputs": [],
      "stateMutability": "nonpayable",
      "type": "function"
    },
    {
      "inputs": [
        {
          "internalType": "address",
          "name": "api3Proxy_",
          "type": "address"
        },
        {
          "internalType": "address",
          "name": "pyth_",
          "type": "address"
        },
        {
          "internalType": "address",
          "name": "rateReceiver_",
          "type": "address"
        },
        {
          "internalType": "bytes32",
          "name": "pythFeedId_",
          "type": "bytes32"
        }
      ],
      "name": "setAddresses",
      "outputs": [],
      "stateMutability": "nonpayable",
      "type": "function"
    },
    {
      "inputs": [],
      "name": "status",
      "outputs": [
        {
          "internalType": "enum PriceFeed.Status",
          "name": "",
          "type": "uint8"
        }
      ],
      "stateMutability": "view",
      "type": "function"
    },
    {
      "inputs": [
        {
          "internalType": "address",
          "name": "newOwner",
          "type": "address"
        }
      ],
      "name": "transferOwnership",
      "outputs": [],
      "stateMutability": "nonpayable",
      "type": "function"
    },
    {
      "inputs": [],
      "name": "troveManagerAddress",
      "outputs": [
        {
          "internalType": "address",
          "name": "",
          "type": "address"
        }
      ],
      "stateMutability": "view",
      "type": "function"
    }
  ],
  "transactionHash": "0xadc3954486fbccca474a84ebda3ee55094f10fa8fc35fa9817404ee9aaa7f706",
  "args": [],
  "numDeployments": 1,
  "solcInputHash": "b29cd153aaed98a3f3bb92c92603933d",
  "bytecode": "0x608060405234801561001057600080fd5b5061001a3361001f565b61006f565b600080546001600160a01b038381166001600160a01b0319831681178455604051919092169283917f8be0079c531659141344cd1fd0a4f28419497f9722a3daafe3b4186f6b6457e09190a35050565b6110188061007e6000396000f3fe608060405234801561001057600080fd5b50600436106100f65760003560e01c80638409c02d116100925780638409c02d146101aa5780638da5cb5b146101bd578063a20baee6146101ce578063a3f4df7e146101dd578063b7f8cf9b14610212578063f2fde38b14610225578063f56f48f214610238578063f98d06f014610241578063fa20ade11461025457600080fd5b80630490be83146100fb5780630fdb11cf146101175780630fea2c541461011f5780631be5c92f14610134578063200d2ed21461013c5780632f400b291461015657806345079cb4146101815780635a4d28bb1461018f578063715018a6146101a2575b600080fd5b61010460075481565b6040519081526020015b60405180910390f35b61010461025d565b61013261012d366004610c5f565b61051e565b005b610104601281565b6008546101499060ff1681565b60405161010e9190610cc0565b600154610169906001600160a01b031681565b6040516001600160a01b03909116815260200161010e565b61010466b1a2bc2ec5000081565b600654610169906001600160a01b031681565b610132610638565b600354610169906001600160a01b031681565b6000546001600160a01b0316610169565b610104670de0b6b3a764000081565b61020560405180604001604052806009815260200168141c9a58d95199595960ba1b81525081565b60405161010e9190610ce8565b600554610169906001600160a01b031681565b610132610233366004610d36565b61064c565b61010461384081565b600254610169906001600160a01b031681565b61010460045481565b600080600061026a6106c5565b915091506000610278610741565b9050600060085460ff16600481111561029357610293610caa565b03610367576102a283836107d7565b156102fd576102b081610808565b156102ca576102bf6003610832565b600754935050505090565b6102d381610890565b156102e2576102bf6001610832565b6102ec6001610832565b6102f5816108ac565b935050505090565b610306826108c3565b156103465761031481610808565b15610323576102bf6004610832565b61032d6002610832565b61033681610890565b156102ec57600754935050505090565b61034f81610808565b1561035e5761035e6004610832565b6102f5836108d8565b600160085460ff16600481111561038057610380610caa565b036103b7576103908383836108ea565b1561039f5761035e6000610832565b6103a881610808565b1561032d576102bf6003610832565b600360085460ff1660048111156103d0576103d0610caa565b036103ef576103e08383836108ea565b156102bf5761035e6000610832565b600260085460ff16600481111561040857610408610caa565b036104ae5761041783836107d7565b1561043e5761042581610808565b15610434576102bf6003610832565b61032d6001610832565b610447826108c3565b156104645761045581610808565b1561032d576102bf6004610832565b61046d81610808565b1561047c5761035e6004610832565b61048581610890565b1561049557600754935050505090565b61049f8382610944565b156102e25761035e6000610832565b600460085460ff1660048111156104c7576104c7610caa565b03610518576104d683836107d7565b156104e5576102bf6003610832565b6104ee826108c3565b156104fe57600754935050505090565b6105098383836108ea565b1561035e5761035e6000610832565b50505090565b6105266109b8565b61052f84610a12565b61053883610a12565b61054182610a12565b600180546001600160a01b038681166001600160a01b03199283161790925560028054868416908316179055600380549285169290911691909117905560048190556008805460ff191690556000806105986106c5565b915091506105a682826107d7565b1580156105b957506105b7816108c3565b155b61061e5760405162461bcd60e51b815260206004820152602b60248201527f5072696365466565643a2041504933206d75737420626520776f726b696e672060448201526a185b990818dd5c9c995b9d60aa1b60648201526084015b60405180910390fd5b610627826108d8565b50610630610638565b505050505050565b6106406109b8565b61064a6000610abb565b565b6106546109b8565b6001600160a01b0381166106b95760405162461bcd60e51b815260206004820152602660248201527f4f776e61626c653a206e6577206f776e657220697320746865207a65726f206160448201526564647265737360d01b6064820152608401610615565b6106c281610abb565b50565b600154604080516315f789a960e21b8152815160009384936001600160a01b03909116926357de26a492600480830193928290030181865afa92505050801561072b575060408051601f3d908101601f1916820190925261072891810190610d51565b60015b6107385750600091829150565b90939092509050565b604080516080810182526000808252602082018190529181018290526060810191909152600254600480546040516396834ad360e01b8152918201526001600160a01b03909116906396834ad390602401608060405180830381865afa9250505080156107cb575060408051601f3d908101601f191682019092526107c891810190610dc4565b60015b6107d25790565b919050565b60008083601b0b1315806107ef575063ffffffff8216155b806107ff5750428263ffffffff16115b90505b92915050565b600080826000015160070b13158061082257506060820151155b8061080257505060600151421090565b6008805482919060ff1916600183600481111561085157610851610caa565b02179055507f5c57579a8214fe4f710c1c56fa829f045b9fa6d225a744225a30c32188064d4e816040516108859190610cc0565b60405180910390a150565b60006138408260600151426108a59190610e6a565b1192915050565b6000806108b883610b0b565b905061080281610b4d565b60006138406108a563ffffffff841642610e6a565b6000806001600160e01b0383166108b8565b60006108f582610808565b80610904575061090482610890565b80610914575061091484846107d7565b806109235750610923836108c3565b156109305750600061093d565b61093a8483610944565b90505b9392505050565b60006001600160e01b0383168161095a84610b0b565b905060006109688284610c22565b905060006109768385610c38565b9050600082670de0b6b3a764000061098e8285610e6a565b6109989190610e7d565b6109a29190610e94565b66b1a2bc2ec50000101598975050505050505050565b6000546001600160a01b0316331461064a5760405162461bcd60e51b815260206004820181905260248201527f4f776e61626c653a2063616c6c6572206973206e6f7420746865206f776e65726044820152606401610615565b6001600160a01b038116610a685760405162461bcd60e51b815260206004820152601e60248201527f4163636f756e742063616e6e6f74206265207a65726f206164647265737300006044820152606401610615565b803b80610ab75760405162461bcd60e51b815260206004820181905260248201527f4163636f756e7420636f64652073697a652063616e6e6f74206265207a65726f6044820152606401610615565b5050565b600080546001600160a01b038381166001600160a01b0319831681178455604051919092169283917f8be0079c531659141344cd1fd0a4f28419497f9722a3daafe3b4186f6b6457e09190a35050565b60008160400151610b1b90610eb6565b610b2c9063ffffffff166012610e6a565b610b3790600a610fbd565b8251610802919067ffffffffffffffff16610e7d565b6000670de0b6b3a7640000600360009054906101000a90046001600160a01b03166001600160a01b0316632c4e722e6040518163ffffffff1660e01b8152600401602060405180830381865afa158015610bab573d6000803e3d6000fd5b505050506040513d601f19601f82011682018060405250810190610bcf9190610fc9565b610bd99084610e7d565b610be39190610e94565b60078190556040518181529091507f4d29de21de555af78a62fc82dd4bc05e9ae5b0660a37f04729527e0f22780cd39060200160405180910390a15050565b6000818310610c3157816107ff565b5090919050565b600081831015610c3157816107ff565b80356001600160a01b03811681146107d257600080fd5b60008060008060808587031215610c7557600080fd5b610c7e85610c48565b9350610c8c60208601610c48565b9250610c9a60408601610c48565b9396929550929360600135925050565b634e487b7160e01b600052602160045260246000fd5b6020810160058310610ce257634e487b7160e01b600052602160045260246000fd5b91905290565b600060208083528351808285015260005b81811015610d1557858101830151858201604001528201610cf9565b506000604082860101526040601f19601f8301168501019250505092915050565b600060208284031215610d4857600080fd5b6107ff82610c48565b60008060408385031215610d6457600080fd5b825180601b0b8114610d7557600080fd5b602084015190925063ffffffff81168114610d8f57600080fd5b809150509250929050565b805167ffffffffffffffff811681146107d257600080fd5b8051600381900b81146107d257600080fd5b600060808284031215610dd657600080fd5b6040516080810181811067ffffffffffffffff82111715610e0757634e487b7160e01b600052604160045260246000fd5b6040528251600781900b8114610e1c57600080fd5b8152610e2a60208401610d9a565b6020820152610e3b60408401610db2565b6040820152606083015160608201528091505092915050565b634e487b7160e01b600052601160045260246000fd5b8181038181111561080257610802610e54565b808202811582820484141761080257610802610e54565b600082610eb157634e487b7160e01b600052601260045260246000fd5b500490565b60008160030b637fffffff198103610ed057610ed0610e54565b60000392915050565b600181815b80851115610f14578160001904821115610efa57610efa610e54565b80851615610f0757918102915b93841c9390800290610ede565b509250929050565b600082610f2b57506001610802565b81610f3857506000610802565b8160018114610f4e5760028114610f5857610f74565b6001915050610802565b60ff841115610f6957610f69610e54565b50506001821b610802565b5060208310610133831016604e8410600b8410161715610f97575081810a610802565b610fa18383610ed9565b8060001904821115610fb557610fb5610e54565b029392505050565b60006107ff8383610f1c565b600060208284031215610fdb57600080fd5b505191905056fea2646970667358221220a5d21e17c75df0d3ca8112a40606e4eaa285349dd3dd53577d7bfa4dba32ce5564736f6c63430008130033",
  "devdoc": {
    "kind": "dev",
    "methods": {
      "owner()": {
        "details": "Returns the address of the current owner."
      },
      "renounceOwnership()": {
        "details": "Leaves the contract without owner. It will not be possible to call `onlyOwner` functions. Can only be called by the current owner. NOTE: Renouncing ownership will leave the contract without an owner, thereby disabling any functionality that is only available to the owner."
      },
      "transferOwnership(address)": {
        "details": "Transfers ownership of the contract to a new account (`newOwner`). Can only be called by the current owner."
      }
    },
    "version": 1
  },
  "userdoc": {
    "kind": "user",
    "methods": {},
    "version": 1
  },
  "storageLayout": {
    "storage": [
      {
        "astId": 590,
        "contract": "contracts/PriceFeed.sol:PriceFeed",
        "label": "_owner",
        "offset": 0,
        "slot": "0",
        "type": "t_address"
      },
      {
        "astId": 11259,
        "contract": "contracts/PriceFeed.sol:PriceFeed",
        "label": "api3Proxy",
        "offset": 0,
        "slot": "1",
        "type": "t_contract(IProxy)28408"
      },
      {
        "astId": 11262,
        "contract": "contracts/PriceFeed.sol:PriceFeed",
        "label": "pyth",
        "offset": 0,
        "slot": "2",
        "type": "t_contract(IPyth)28443"
      },
      {
        "astId": 11265,
        "contract": "contracts/PriceFeed.sol:PriceFeed",
        "label": "rateReceiver",
        "offset": 0,
        "slot": "3",
        "type": "t_contract(ICrossChainRateReceiver)28234"
      },
      {
        "astId": 11267,
        "contract": "contracts/PriceFeed.sol:PriceFeed",
        "label": "pythFeedId",
        "offset": 0,
        "slot": "4",
        "type": "t_bytes32"
      },
      {
        "astId": 11269,
        "contract": "contracts/PriceFeed.sol:PriceFeed",
        "label": "borrowerOperationsAddress",
        "offset": 0,
        "slot": "5",
        "type": "t_address"
      },
      {
        "astId": 11271,
        "contract": "contracts/PriceFeed.sol:PriceFeed",
        "label": "troveManagerAddress",
        "offset": 0,
        "slot": "6",
        "type": "t_address"
      },
      {
        "astId": 11273,
        "contract": "contracts/PriceFeed.sol:PriceFeed",
        "label": "lastGoodPrice",
        "offset": 0,
        "slot": "7",
        "type": "t_uint256"
      },
      {
        "astId": 11282,
        "contract": "contracts/PriceFeed.sol:PriceFeed",
        "label": "status",
        "offset": 0,
        "slot": "8",
        "type": "t_enum(Status)11279"
      }
    ],
    "types": {
      "t_address": {
        "encoding": "inplace",
        "label": "address",
        "numberOfBytes": "20"
      },
      "t_bytes32": {
        "encoding": "inplace",
        "label": "bytes32",
        "numberOfBytes": "32"
      },
      "t_contract(ICrossChainRateReceiver)28234": {
        "encoding": "inplace",
        "label": "contract ICrossChainRateReceiver",
        "numberOfBytes": "20"
      },
      "t_contract(IProxy)28408": {
        "encoding": "inplace",
        "label": "contract IProxy",
        "numberOfBytes": "20"
      },
      "t_contract(IPyth)28443": {
        "encoding": "inplace",
        "label": "contract IPyth",
        "numberOfBytes": "20"
      },
      "t_enum(Status)11279": {
        "encoding": "inplace",
        "label": "enum PriceFeed.Status",
        "numberOfBytes": "1"
      },
      "t_uint256": {
        "encoding": "inplace",
        "label": "uint256",
        "numberOfBytes": "32"
      }
    }
  }
}