{
  "address": "0xE452CDC71B9f488333fa9a999B421BaC0cD988fc",
  "abi": [
    {
      "inputs": [
        {
          "internalType": "address",
          "name": "communityIssuanceAddress_",
          "type": "address"
        },
        {
          "internalType": "address",
          "name": "liquidityRewardsIssuanceAddress_",
          "type": "address"
        },
        {
          "internalType": "address",
          "name": "veAddress_",
          "type": "address"
        },
        {
          "internalType": "address",
          "name": "lockupFactoryAddress_",
          "type": "address"
        },
        {
          "internalType": "address",
          "name": "spenderAddress_",
          "type": "address"
        },
        {
          "internalType": "address",
          "name": "multisigAddress_",
          "type": "address"
        }
      ],
      "stateMutability": "nonpayable",
      "type": "constructor"
    },
    {
      "inputs": [],
      "name": "InvalidShortString",
      "type": "error"
    },
    {
      "inputs": [
        {
          "internalType": "string",
          "name": "str",
          "type": "string"
        }
      ],
      "name": "StringTooLong",
      "type": "error"
    },
    {
      "anonymous": false,
      "inputs": [
        {
          "indexed": true,
          "internalType": "address",
          "name": "owner",
          "type": "address"
        },
        {
          "indexed": true,
          "internalType": "address",
          "name": "spender",
          "type": "address"
        },
        {
          "indexed": false,
          "internalType": "uint256",
          "name": "value",
          "type": "uint256"
        }
      ],
      "name": "Approval",
      "type": "event"
    },
    {
      "anonymous": false,
      "inputs": [
        {
          "indexed": false,
          "internalType": "address",
          "name": "communityIssuanceAddress",
          "type": "address"
        }
      ],
      "name": "CommunityIssuanceAddressSet",
      "type": "event"
    },
    {
      "anonymous": false,
      "inputs": [],
      "name": "EIP712DomainChanged",
      "type": "event"
    },
    {
      "anonymous": false,
      "inputs": [
        {
          "indexed": false,
          "internalType": "address",
          "name": "lockupContractFactoryAddress",
          "type": "address"
        }
      ],
      "name": "LockupContractFactoryAddressSet",
      "type": "event"
    },
    {
      "anonymous": false,
      "inputs": [
        {
          "indexed": true,
          "internalType": "address",
          "name": "from",
          "type": "address"
        },
        {
          "indexed": true,
          "internalType": "address",
          "name": "to",
          "type": "address"
        },
        {
          "indexed": false,
          "internalType": "uint256",
          "name": "value",
          "type": "uint256"
        }
      ],
      "name": "Transfer",
      "type": "event"
    },
    {
      "anonymous": false,
      "inputs": [
        {
          "indexed": false,
          "internalType": "address",
          "name": "veAddress",
          "type": "address"
        }
      ],
      "name": "VeAddressSet",
      "type": "event"
    },
    {
      "inputs": [],
      "name": "DOMAIN_SEPARATOR",
      "outputs": [
        {
          "internalType": "bytes32",
          "name": "",
          "type": "bytes32"
        }
      ],
      "stateMutability": "view",
      "type": "function"
    },
    {
      "inputs": [
        {
          "internalType": "address",
          "name": "owner",
          "type": "address"
        },
        {
          "internalType": "address",
          "name": "spender",
          "type": "address"
        }
      ],
      "name": "allowance",
      "outputs": [
        {
          "internalType": "uint256",
          "name": "",
          "type": "uint256"
        }
      ],
      "stateMutability": "view",
      "type": "function"
    },
    {
      "inputs": [
        {
          "internalType": "address",
          "name": "spender",
          "type": "address"
        },
        {
          "internalType": "uint256",
          "name": "amount",
          "type": "uint256"
        }
      ],
      "name": "approve",
      "outputs": [
        {
          "internalType": "bool",
          "name": "",
          "type": "bool"
        }
      ],
      "stateMutability": "nonpayable",
      "type": "function"
    },
    {
      "inputs": [
        {
          "internalType": "address",
          "name": "account",
          "type": "address"
        }
      ],
      "name": "balanceOf",
      "outputs": [
        {
          "internalType": "uint256",
          "name": "",
          "type": "uint256"
        }
      ],
      "stateMutability": "view",
      "type": "function"
    },
    {
      "inputs": [],
      "name": "communityIssuanceAddress",
      "outputs": [
        {
          "internalType": "address",
          "name": "",
          "type": "address"
        }
      ],
      "stateMutability": "view",
      "type": "function"
    },
    {
      "inputs": [],
      "name": "decimals",
      "outputs": [
        {
          "internalType": "uint8",
          "name": "",
          "type": "uint8"
        }
      ],
      "stateMutability": "view",
      "type": "function"
    },
    {
      "inputs": [
        {
          "internalType": "address",
          "name": "spender",
          "type": "address"
        },
        {
          "internalType": "uint256",
          "name": "subtractedValue",
          "type": "uint256"
        }
      ],
      "name": "decreaseAllowance",
      "outputs": [
        {
          "internalType": "bool",
          "name": "",
          "type": "bool"
        }
      ],
      "stateMutability": "nonpayable",
      "type": "function"
    },
    {
      "inputs": [],
      "name": "eip712Domain",
      "outputs": [
        {
          "internalType": "bytes1",
          "name": "fields",
          "type": "bytes1"
        },
        {
          "internalType": "string",
          "name": "name",
          "type": "string"
        },
        {
          "internalType": "string",
          "name": "version",
          "type": "string"
        },
        {
          "internalType": "uint256",
          "name": "chainId",
          "type": "uint256"
        },
        {
          "internalType": "address",
          "name": "verifyingContract",
          "type": "address"
        },
        {
          "internalType": "bytes32",
          "name": "salt",
          "type": "bytes32"
        },
        {
          "internalType": "uint256[]",
          "name": "extensions",
          "type": "uint256[]"
        }
      ],
      "stateMutability": "view",
      "type": "function"
    },
    {
      "inputs": [],
      "name": "getDeploymentStartTime",
      "outputs": [
        {
          "internalType": "uint256",
          "name": "",
          "type": "uint256"
        }
      ],
      "stateMutability": "view",
      "type": "function"
    },
    {
      "inputs": [
        {
          "internalType": "address",
          "name": "spender",
          "type": "address"
        },
        {
          "internalType": "uint256",
          "name": "addedValue",
          "type": "uint256"
        }
      ],
      "name": "increaseAllowance",
      "outputs": [
        {
          "internalType": "bool",
          "name": "",
          "type": "bool"
        }
      ],
      "stateMutability": "nonpayable",
      "type": "function"
    },
    {
      "inputs": [],
      "name": "liquidityRewardsIssuanceAddress",
      "outputs": [
        {
          "internalType": "address",
          "name": "",
          "type": "address"
        }
      ],
      "stateMutability": "view",
      "type": "function"
    },
    {
      "inputs": [],
      "name": "lockupContractFactory",
      "outputs": [
        {
          "internalType": "contract ILockupContractFactory",
          "name": "",
          "type": "address"
        }
      ],
      "stateMutability": "view",
      "type": "function"
    },
    {
      "inputs": [],
      "name": "multisigAddress",
      "outputs": [
        {
          "internalType": "address",
          "name": "",
          "type": "address"
        }
      ],
      "stateMutability": "view",
      "type": "function"
    },
    {
      "inputs": [],
      "name": "name",
      "outputs": [
        {
          "internalType": "string",
          "name": "",
          "type": "string"
        }
      ],
      "stateMutability": "view",
      "type": "function"
    },
    {
      "inputs": [
        {
          "internalType": "address",
          "name": "owner",
          "type": "address"
        }
      ],
      "name": "nonces",
      "outputs": [
        {
          "internalType": "uint256",
          "name": "",
          "type": "uint256"
        }
      ],
      "stateMutability": "view",
      "type": "function"
    },
    {
      "inputs": [
        {
          "internalType": "address",
          "name": "owner",
          "type": "address"
        },
        {
          "internalType": "address",
          "name": "spender",
          "type": "address"
        },
        {
          "internalType": "uint256",
          "name": "value",
          "type": "uint256"
        },
        {
          "internalType": "uint256",
          "name": "deadline",
          "type": "uint256"
        },
        {
          "internalType": "uint8",
          "name": "v",
          "type": "uint8"
        },
        {
          "internalType": "bytes32",
          "name": "r",
          "type": "bytes32"
        },
        {
          "internalType": "bytes32",
          "name": "s",
          "type": "bytes32"
        }
      ],
      "name": "permit",
      "outputs": [],
      "stateMutability": "nonpayable",
      "type": "function"
    },
    {
      "inputs": [
        {
          "internalType": "address",
          "name": "_sender",
          "type": "address"
        },
        {
          "internalType": "uint256",
          "name": "_amount",
          "type": "uint256"
        }
      ],
      "name": "sendToVe",
      "outputs": [],
      "stateMutability": "nonpayable",
      "type": "function"
    },
    {
      "inputs": [],
      "name": "symbol",
      "outputs": [
        {
          "internalType": "string",
          "name": "",
          "type": "string"
        }
      ],
      "stateMutability": "view",
      "type": "function"
    },
    {
      "inputs": [],
      "name": "totalSupply",
      "outputs": [
        {
          "internalType": "uint256",
          "name": "",
          "type": "uint256"
        }
      ],
      "stateMutability": "view",
      "type": "function"
    },
    {
      "inputs": [
        {
          "internalType": "address",
          "name": "to",
          "type": "address"
        },
        {
          "internalType": "uint256",
          "name": "amount",
          "type": "uint256"
        }
      ],
      "name": "transfer",
      "outputs": [
        {
          "internalType": "bool",
          "name": "",
          "type": "bool"
        }
      ],
      "stateMutability": "nonpayable",
      "type": "function"
    },
    {
      "inputs": [
        {
          "internalType": "address",
          "name": "from",
          "type": "address"
        },
        {
          "internalType": "address",
          "name": "to",
          "type": "address"
        },
        {
          "internalType": "uint256",
          "name": "amount",
          "type": "uint256"
        }
      ],
      "name": "transferFrom",
      "outputs": [
        {
          "internalType": "bool",
          "name": "",
          "type": "bool"
        }
      ],
      "stateMutability": "nonpayable",
      "type": "function"
    },
    {
      "inputs": [],
      "name": "veAddress",
      "outputs": [
        {
          "internalType": "address",
          "name": "",
          "type": "address"
        }
      ],
      "stateMutability": "view",
      "type": "function"
    }
  ],
  "transactionHash": "0xef8cbcbff947fd275f8d7666fd07275d77a4ca11224f1d56eebd05bd972c6fe0",
  "args": [
    "0xC4b0E5AF4B04A2BE7F0EF7CCD5B867b0bAcde880",
    "0xCe297D0aBD4c2198f350DeF8EA01166cDf912502",
    "0xDFd33dF050c85B9efB3D3601456e2BdD4659ABCC",
    "0xf81FCd61b18BAb470418161B6cFaF95a3796762b",
    "0x326471C46A622bDf4AED5e1AEebB7527b1Dac72e",
    "0x644A94A6835e75fFf282D3319eA39E9129dbC857"
  ],
  "numDeployments": 1,
  "solcInputHash": "b29cd153aaed98a3f3bb92c92603933d",
  "bytecode": "0x6102206040523480156200001257600080fd5b50604051620023f7380380620023f78339810160408190526200003591620007a8565b60405180604001604052806005815260200164536861647960d81b81525080604051806040016040528060018152602001603160f81b81525060405180604001604052806005815260200164536861647960d81b81525060405180604001604052806005815260200164534841445960d81b8152508160039081620000bb9190620008cd565b506004620000ca8282620008cd565b50620000dc91508390506005620002b3565b61012052620000ed816006620002b3565b61014052815160208084019190912060e052815190820120610100524660a0526200017b60e05161010051604080517f8b73c3c69bb8fe3d512ecc4cf759cc79239f7b179b0ffacaa9a75d522b39400f60208201529081019290925260608201524660808201523060a082015260009060c00160405160208183030381529060405280519060200120905090565b60805250503060c052506200019086620002ec565b6200019b85620002ec565b620001a684620002ec565b620001b183620002ec565b6001600160a01b038082166101805242610160528681166101a0528581166101c0528481166101e0528316610200526000620001f969d3c21bcecceda1000000601e620009af565b90506200020787826200039d565b60006200022069d3c21bcecceda1000000601e620009af565b90506200022e87826200039d565b60006200024769d3c21bcecceda1000000600e620009af565b90506200025585826200039d565b60008183856200027169d3c21bcecceda10000006064620009af565b6200027d9190620009c9565b620002899190620009c9565b620002959190620009c9565b9050620002a385826200039d565b5050505050505050505062000a95565b6000602083511015620002d357620002cb836200046e565b9050620002e6565b81620002e08482620008cd565b5060ff90505b92915050565b6001600160a01b038116620003485760405162461bcd60e51b815260206004820152601e60248201527f4163636f756e742063616e6e6f74206265207a65726f2061646472657373000060448201526064015b60405180910390fd5b803b80620003995760405162461bcd60e51b815260206004820181905260248201527f4163636f756e7420636f64652073697a652063616e6e6f74206265207a65726f60448201526064016200033f565b5050565b6001600160a01b038216620003f55760405162461bcd60e51b815260206004820152601f60248201527f45524332303a206d696e7420746f20746865207a65726f20616464726573730060448201526064016200033f565b6200040360008383620004b1565b8060026000828254620004179190620009df565b90915550506001600160a01b038216600081815260208181526040808320805486019055518481527fddf252ad1be2c89b69c2b068fc378daa952ba7f163c4a11628f55a4df523b3ef910160405180910390a35050565b600080829050601f815111156200049c578260405163305a27a960e01b81526004016200033f9190620009f5565b8051620004a98262000a45565b179392505050565b610180516001600160a01b0316836001600160a01b0316148015620004db5750620004db62000530565b15620004ec57620004ec826200054e565b6001600160a01b038316158015906200051a57506101e0516001600160a01b0316336001600160a01b031614155b156200052b576200052b8262000643565b505050565b60006301e133806101605142620005489190620009c9565b10905090565b6102005160405163bb7603f160e01b81526001600160a01b0383811660048301529091169063bb7603f190602401602060405180830381865afa1580156200059a573d6000803e3d6000fd5b505050506040513d601f19601f82011682018060405250810190620005c0919062000a6a565b620006405760405162461bcd60e51b815260206004820152604360248201527f53484144593a20726563697069656e74206d7573742062652061204c6f636b7560448201527f70436f6e7472616374207265676973746572656420696e2074686520466163746064820152626f727960e81b608482015260a4016200033f565b50565b306001600160a01b03821603620006bd5760405162461bcd60e51b81526020600482015260426024820152600080516020620023d783398151915260448201527f726563746c7920746f2074686520534841445920746f6b656e20636f6e74726160648201526118dd60f21b608482015260a4016200033f565b6101a0516001600160a01b0316816001600160a01b031614158015620006f857506101c0516001600160a01b0316816001600160a01b031614155b80156200071a57506101e0516001600160a01b0316816001600160a01b031614155b620006405760405162461bcd60e51b815260206004820152604460248201819052600080516020620023d7833981519152908201527f726563746c7920746f20616e2069737375616e6365206f7220766520636f6e746064820152631c9858dd60e21b608482015260a4016200033f565b80516001600160a01b0381168114620007a357600080fd5b919050565b60008060008060008060c08789031215620007c257600080fd5b620007cd876200078b565b9550620007dd602088016200078b565b9450620007ed604088016200078b565b9350620007fd606088016200078b565b92506200080d608088016200078b565b91506200081d60a088016200078b565b90509295509295509295565b634e487b7160e01b600052604160045260246000fd5b600181811c908216806200085457607f821691505b6020821081036200087557634e487b7160e01b600052602260045260246000fd5b50919050565b601f8211156200052b57600081815260208120601f850160051c81016020861015620008a45750805b601f850160051c820191505b81811015620008c557828155600101620008b0565b505050505050565b81516001600160401b03811115620008e957620008e962000829565b6200090181620008fa84546200083f565b846200087b565b602080601f831160018114620009395760008415620009205750858301515b600019600386901b1c1916600185901b178555620008c5565b600085815260208120601f198616915b828110156200096a5788860151825594840194600190910190840162000949565b5085821015620009895787850151600019600388901b60f8161c191681555b5050505050600190811b01905550565b634e487b7160e01b600052601160045260246000fd5b8082028115828204841417620002e657620002e662000999565b81810381811115620002e657620002e662000999565b80820180821115620002e657620002e662000999565b600060208083528351808285015260005b8181101562000a245785810183015185820160400152820162000a06565b506000604082860101526040601f19601f8301168501019250505092915050565b80516020808301519190811015620008755760001960209190910360031b1b16919050565b60006020828403121562000a7d57600080fd5b8151801515811462000a8e57600080fd5b9392505050565b60805160a05160c05160e05161010051610120516101405161016051610180516101a0516101c0516101e0516102005161185862000b7f600039600081816102e00152611275015260008181610268015281816104e701528181610d3c01528181610fe201526114640152600081816101b2015261142601526000818161036301526113e90152600081816102410152818161083201528181610db90152610f740152600081816102180152610805015260006105670152600061053c01526000610ce001526000610cb801526000610c1301526000610c3d01526000610c6701526118586000f3fe608060405234801561001057600080fd5b50600436106101425760003560e01c806370a08231116100b857806395d89b411161007c57806395d89b411461031d578063a457c2d714610325578063a9059cbb14610338578063d505accf1461034b578063d874ea741461035e578063dd62ed3e1461038557600080fd5b806370a082311461028a57806371ea6936146102b35780637ecebe00146102c8578063811c5b4d146102db57806384b0196e1461030257600080fd5b8063313ce5671161010a578063313ce567146101ec5780633644e515146101fb57806339509351146102035780633c84b7c2146102165780635462870d1461023c57806360aca1f41461026357600080fd5b806306fdde0314610147578063095ea7b31461016557806318160ddd1461018857806323b872dd1461019a5780632bfa4804146101ad575b600080fd5b61014f610398565b60405161015c9190611587565b60405180910390f35b6101786101733660046115bd565b61042a565b604051901515815260200161015c565b6002545b60405190815260200161015c565b6101786101a83660046115e7565b610459565b6101d47f000000000000000000000000000000000000000000000000000000000000000081565b6040516001600160a01b03909116815260200161015c565b6040516012815260200161015c565b61018c61047d565b6101786102113660046115bd565b61048c565b7f000000000000000000000000000000000000000000000000000000000000000061018c565b6101d47f000000000000000000000000000000000000000000000000000000000000000081565b6101d47f000000000000000000000000000000000000000000000000000000000000000081565b61018c610298366004611623565b6001600160a01b031660009081526020819052604090205490565b6102c66102c13660046115bd565b6104c3565b005b61018c6102d6366004611623565b610510565b6101d47f000000000000000000000000000000000000000000000000000000000000000081565b61030a61052e565b60405161015c979695949392919061163e565b61014f6105b7565b6101786103333660046115bd565b6105c6565b6101786103463660046115bd565b61065c565b6102c66103593660046116d4565b61066a565b6101d47f000000000000000000000000000000000000000000000000000000000000000081565b61018c610393366004611747565b6107ce565b6060600380546103a79061177a565b80601f01602080910402602001604051908101604052809291908181526020018280546103d39061177a565b80156104205780601f106103f557610100808354040283529160200191610420565b820191906000526020600020905b81548152906001019060200180831161040357829003601f168201915b5050505050905090565b60006104346107f9565b1561044157610441610830565b3361044d8185856108b9565b60019150505b92915050565b6000336104678582856109dd565b610472858585610a57565b506001949350505050565b6000610487610c06565b905090565b60006104966107f9565b156104a3576104a3610830565b3361044d8185856104b483836107ce565b6104be91906117c4565b6108b9565b6104cb610d31565b6104d36107f9565b156104e1576104e182610db7565b61050c827f000000000000000000000000000000000000000000000000000000000000000083610a57565b5050565b6001600160a01b038116600090815260076020526040812054610453565b6000606080828080836105627f00000000000000000000000000000000000000000000000000000000000000006005610e4a565b61058d7f00000000000000000000000000000000000000000000000000000000000000006006610e4a565b60408051600080825260208201909252600f60f81b9b939a50919850469750309650945092509050565b6060600480546103a79061177a565b60006105d06107f9565b156105dd576105dd610830565b3360006105ea82866107ce565b90508381101561064f5760405162461bcd60e51b815260206004820152602560248201527f45524332303a2064656372656173656420616c6c6f77616e63652062656c6f77604482015264207a65726f60d81b60648201526084015b60405180910390fd5b61047282868684036108b9565b60003361044d818585610a57565b834211156106ba5760405162461bcd60e51b815260206004820152601d60248201527f45524332305065726d69743a206578706972656420646561646c696e650000006044820152606401610646565b60007f6e71edae12b1b97f4d1f60370fef10105fa2faae0126114a169c64845d6126c98888886106e98c610ef5565b6040805160208101969096526001600160a01b0394851690860152929091166060840152608083015260a082015260c0810186905260e001604051602081830303815290604052805190602001209050600061074482610f1d565b9050600061075482878787610f4a565b9050896001600160a01b0316816001600160a01b0316146107b75760405162461bcd60e51b815260206004820152601e60248201527f45524332305065726d69743a20696e76616c6964207369676e617475726500006044820152606401610646565b6107c28a8a8a6108b9565b50505050505050505050565b6001600160a01b03918216600090815260016020908152604080832093909416825291909152205490565b60006301e1338061082a7f0000000000000000000000000000000000000000000000000000000000000000426117d7565b10905090565b7f00000000000000000000000000000000000000000000000000000000000000006001600160a01b031633036108b75760405162461bcd60e51b815260206004820152602660248201527f53484144593a2063616c6c6572206d757374206e6f7420626520746865206d756044820152656c746973696760d01b6064820152608401610646565b565b6001600160a01b03831661091b5760405162461bcd60e51b8152602060048201526024808201527f45524332303a20617070726f76652066726f6d20746865207a65726f206164646044820152637265737360e01b6064820152608401610646565b6001600160a01b03821661097c5760405162461bcd60e51b815260206004820152602260248201527f45524332303a20617070726f766520746f20746865207a65726f206164647265604482015261737360f01b6064820152608401610646565b6001600160a01b0383811660008181526001602090815260408083209487168084529482529182902085905590518481527f8c5be1e5ebec7d5bd14f71427d1e84f3dd0314c0f7b2291e5b200ac8c7c3b925910160405180910390a3505050565b60006109e984846107ce565b90506000198114610a515781811015610a445760405162461bcd60e51b815260206004820152601d60248201527f45524332303a20696e73756666696369656e7420616c6c6f77616e63650000006044820152606401610646565b610a5184848484036108b9565b50505050565b6001600160a01b038316610abb5760405162461bcd60e51b815260206004820152602560248201527f45524332303a207472616e736665722066726f6d20746865207a65726f206164604482015264647265737360d81b6064820152608401610646565b6001600160a01b038216610b1d5760405162461bcd60e51b815260206004820152602360248201527f45524332303a207472616e7366657220746f20746865207a65726f206164647260448201526265737360e81b6064820152608401610646565b610b28838383610f72565b6001600160a01b03831660009081526020819052604090205481811015610ba05760405162461bcd60e51b815260206004820152602660248201527f45524332303a207472616e7366657220616d6f756e7420657863656564732062604482015265616c616e636560d01b6064820152608401610646565b6001600160a01b03848116600081815260208181526040808320878703905593871680835291849020805487019055925185815290927fddf252ad1be2c89b69c2b068fc378daa952ba7f163c4a11628f55a4df523b3ef910160405180910390a3610a51565b6000306001600160a01b037f000000000000000000000000000000000000000000000000000000000000000016148015610c5f57507f000000000000000000000000000000000000000000000000000000000000000046145b15610c8957507f000000000000000000000000000000000000000000000000000000000000000090565b610487604080517f8b73c3c69bb8fe3d512ecc4cf759cc79239f7b179b0ffacaa9a75d522b39400f60208201527f0000000000000000000000000000000000000000000000000000000000000000918101919091527f000000000000000000000000000000000000000000000000000000000000000060608201524660808201523060a082015260009060c00160405160208183030381529060405280519060200120905090565b336001600160a01b037f000000000000000000000000000000000000000000000000000000000000000016146108b75760405162461bcd60e51b815260206004820152602560248201527f53484144593a2063616c6c6572206d7573742062652074686520766520636f6e6044820152641d1c9858dd60da1b6064820152608401610646565b7f00000000000000000000000000000000000000000000000000000000000000006001600160a01b0316816001600160a01b031603610e475760405162461bcd60e51b815260206004820152602660248201527f53484144593a2073656e646572206d757374206e6f7420626520746865206d756044820152656c746973696760d01b6064820152608401610646565b50565b606060ff8314610e6457610e5d83611018565b9050610453565b818054610e709061177a565b80601f0160208091040260200160405190810160405280929190818152602001828054610e9c9061177a565b8015610ee95780601f10610ebe57610100808354040283529160200191610ee9565b820191906000526020600020905b815481529060010190602001808311610ecc57829003601f168201915b50505050509050610453565b6001600160a01b03811660009081526007602052604090208054600181018255905b50919050565b6000610453610f2a610c06565b8360405161190160f01b8152600281019290925260228201526042902090565b6000806000610f5b87878787611057565b91509150610f6881611111565b5095945050505050565b7f00000000000000000000000000000000000000000000000000000000000000006001600160a01b0316836001600160a01b0316148015610fb65750610fb66107f9565b15610fc457610fc482611256565b6001600160a01b038316158015906110055750336001600160a01b037f00000000000000000000000000000000000000000000000000000000000000001614155b15611013576110138261135e565b505050565b6060600061102583611519565b604080516020808252818301909252919250600091906020820181803683375050509182525060208101929092525090565b6000806fa2a8918ca85bafe22016d0b997e4df60600160ff1b038311156110845750600090506003611108565b6040805160008082526020820180845289905260ff881692820192909252606081018690526080810185905260019060a0016020604051602081039080840390855afa1580156110d8573d6000803e3d6000fd5b5050604051601f1901519150506001600160a01b03811661110157600060019250925050611108565b9150600090505b94509492505050565b6000816004811115611125576111256117ea565b0361112d5750565b6001816004811115611141576111416117ea565b036111895760405162461bcd60e51b815260206004820152601860248201527745434453413a20696e76616c6964207369676e617475726560401b6044820152606401610646565b600281600481111561119d5761119d6117ea565b036111ea5760405162461bcd60e51b815260206004820152601f60248201527f45434453413a20696e76616c6964207369676e6174757265206c656e677468006044820152606401610646565b60038160048111156111fe576111fe6117ea565b03610e475760405162461bcd60e51b815260206004820152602260248201527f45434453413a20696e76616c6964207369676e6174757265202773272076616c604482015261756560f01b6064820152608401610646565b60405163bb7603f160e01b81526001600160a01b0382811660048301527f0000000000000000000000000000000000000000000000000000000000000000169063bb7603f190602401602060405180830381865afa1580156112bc573d6000803e3d6000fd5b505050506040513d601f19601f820116820180604052508101906112e09190611800565b610e475760405162461bcd60e51b815260206004820152604360248201527f53484144593a20726563697069656e74206d7573742062652061204c6f636b7560448201527f70436f6e7472616374207265676973746572656420696e2074686520466163746064820152626f727960e81b608482015260a401610646565b306001600160a01b038216036113e75760405162461bcd60e51b815260206004820152604260248201527f53484144593a2043616e6e6f74207472616e7366657220746f6b656e7320646960448201527f726563746c7920746f2074686520534841445920746f6b656e20636f6e74726160648201526118dd60f21b608482015260a401610646565b7f00000000000000000000000000000000000000000000000000000000000000006001600160a01b0316816001600160a01b03161415801561145b57507f00000000000000000000000000000000000000000000000000000000000000006001600160a01b0316816001600160a01b031614155b801561149957507f00000000000000000000000000000000000000000000000000000000000000006001600160a01b0316816001600160a01b031614155b610e475760405162461bcd60e51b8152602060048201526044602482018190527f53484144593a2043616e6e6f74207472616e7366657220746f6b656e73206469908201527f726563746c7920746f20616e2069737375616e6365206f7220766520636f6e746064820152631c9858dd60e21b608482015260a401610646565b600060ff8216601f81111561045357604051632cd44ac360e21b815260040160405180910390fd5b6000815180845260005b818110156115675760208185018101518683018201520161154b565b506000602082860101526020601f19601f83011685010191505092915050565b60208152600061159a6020830184611541565b9392505050565b80356001600160a01b03811681146115b857600080fd5b919050565b600080604083850312156115d057600080fd5b6115d9836115a1565b946020939093013593505050565b6000806000606084860312156115fc57600080fd5b611605846115a1565b9250611613602085016115a1565b9150604084013590509250925092565b60006020828403121561163557600080fd5b61159a826115a1565b60ff60f81b881681526000602060e08184015261165e60e084018a611541565b8381036040850152611670818a611541565b606085018990526001600160a01b038816608086015260a0850187905284810360c0860152855180825283870192509083019060005b818110156116c2578351835292840192918401916001016116a6565b50909c9b505050505050505050505050565b600080600080600080600060e0888a0312156116ef57600080fd5b6116f8886115a1565b9650611706602089016115a1565b95506040880135945060608801359350608088013560ff8116811461172a57600080fd5b9699959850939692959460a0840135945060c09093013592915050565b6000806040838503121561175a57600080fd5b611763836115a1565b9150611771602084016115a1565b90509250929050565b600181811c9082168061178e57607f821691505b602082108103610f1757634e487b7160e01b600052602260045260246000fd5b634e487b7160e01b600052601160045260246000fd5b80820180821115610453576104536117ae565b81810381811115610453576104536117ae565b634e487b7160e01b600052602160045260246000fd5b60006020828403121561181257600080fd5b8151801515811461159a57600080fdfea264697066735822122091e06962e77046732ef8040b5c15c8d0e86411f600f669343a651223477551ae64736f6c6343000813003353484144593a2043616e6e6f74207472616e7366657220746f6b656e73206469",
  "devdoc": {
    "events": {
      "Approval(address,address,uint256)": {
        "details": "Emitted when the allowance of a `spender` for an `owner` is set by a call to {approve}. `value` is the new allowance."
      },
      "EIP712DomainChanged()": {
        "details": "MAY be emitted to signal that the domain could have changed."
      },
      "Transfer(address,address,uint256)": {
        "details": "Emitted when `value` tokens are moved from one account (`from`) to another (`to`). Note that `value` may be zero."
      }
    },
    "kind": "dev",
    "methods": {
      "DOMAIN_SEPARATOR()": {
        "details": "See {IERC20Permit-DOMAIN_SEPARATOR}."
      },
      "allowance(address,address)": {
        "details": "See {IERC20-allowance}."
      },
      "balanceOf(address)": {
        "details": "See {IERC20-balanceOf}."
      },
      "decimals()": {
        "details": "Returns the number of decimals used to get its user representation. For example, if `decimals` equals `2`, a balance of `505` tokens should be displayed to a user as `5.05` (`505 / 10 ** 2`). Tokens usually opt for a value of 18, imitating the relationship between Ether and Wei. This is the default value returned by this function, unless it's overridden. NOTE: This information is only used for _display_ purposes: it in no way affects any of the arithmetic of the contract, including {IERC20-balanceOf} and {IERC20-transfer}."
      },
      "decreaseAllowance(address,uint256)": {
        "details": "Atomically decreases the allowance granted to `spender` by the caller. This is an alternative to {approve} that can be used as a mitigation for problems described in {IERC20-approve}. Emits an {Approval} event indicating the updated allowance. Requirements: - `spender` cannot be the zero address. - `spender` must have allowance for the caller of at least `subtractedValue`."
      },
      "eip712Domain()": {
        "details": "See {EIP-5267}. _Available since v4.9._"
      },
      "increaseAllowance(address,uint256)": {
        "details": "Atomically increases the allowance granted to `spender` by the caller. This is an alternative to {approve} that can be used as a mitigation for problems described in {IERC20-approve}. Emits an {Approval} event indicating the updated allowance. Requirements: - `spender` cannot be the zero address."
      },
      "name()": {
        "details": "Returns the name of the token."
      },
      "nonces(address)": {
        "details": "See {IERC20Permit-nonces}."
      },
      "permit(address,address,uint256,uint256,uint8,bytes32,bytes32)": {
        "details": "See {IERC20Permit-permit}."
      },
      "symbol()": {
        "details": "Returns the symbol of the token, usually a shorter version of the name."
      },
      "totalSupply()": {
        "details": "See {IERC20-totalSupply}."
      },
      "transfer(address,uint256)": {
        "details": "See {IERC20-transfer}. Requirements: - `to` cannot be the zero address. - the caller must have a balance of at least `amount`."
      },
      "transferFrom(address,address,uint256)": {
        "details": "See {IERC20-transferFrom}. Emits an {Approval} event indicating the updated allowance. This is not required by the EIP. See the note at the beginning of {ERC20}. NOTE: Does not update the allowance if the current allowance is the maximum `uint256`. Requirements: - `from` and `to` cannot be the zero address. - `from` must have a balance of at least `amount`. - the caller must have allowance for ``from``'s tokens of at least `amount`."
      }
    },
    "version": 1
  },
  "userdoc": {
    "kind": "user",
    "methods": {},
    "version": 1
  },
  "storageLayout": {
    "storage": [
      {
        "astId": 788,
        "contract": "contracts/SHADYToken.sol:SHADYToken",
        "label": "_balances",
        "offset": 0,
        "slot": "0",
        "type": "t_mapping(t_address,t_uint256)"
      },
      {
        "astId": 794,
        "contract": "contracts/SHADYToken.sol:SHADYToken",
        "label": "_allowances",
        "offset": 0,
        "slot": "1",
        "type": "t_mapping(t_address,t_mapping(t_address,t_uint256))"
      },
      {
        "astId": 796,
        "contract": "contracts/SHADYToken.sol:SHADYToken",
        "label": "_totalSupply",
        "offset": 0,
        "slot": "2",
        "type": "t_uint256"
      },
      {
        "astId": 798,
        "contract": "contracts/SHADYToken.sol:SHADYToken",
        "label": "_name",
        "offset": 0,
        "slot": "3",
        "type": "t_string_storage"
      },
      {
        "astId": 800,
        "contract": "contracts/SHADYToken.sol:SHADYToken",
        "label": "_symbol",
        "offset": 0,
        "slot": "4",
        "type": "t_string_storage"
      },
      {
        "astId": 3587,
        "contract": "contracts/SHADYToken.sol:SHADYToken",
        "label": "_nameFallback",
        "offset": 0,
        "slot": "5",
        "type": "t_string_storage"
      },
      {
        "astId": 3589,
        "contract": "contracts/SHADYToken.sol:SHADYToken",
        "label": "_versionFallback",
        "offset": 0,
        "slot": "6",
        "type": "t_string_storage"
      },
      {
        "astId": 1460,
        "contract": "contracts/SHADYToken.sol:SHADYToken",
        "label": "_nonces",
        "offset": 0,
        "slot": "7",
        "type": "t_mapping(t_address,t_struct(Counter)2565_storage)"
      },
      {
        "astId": 1468,
        "contract": "contracts/SHADYToken.sol:SHADYToken",
        "label": "_PERMIT_TYPEHASH_DEPRECATED_SLOT",
        "offset": 0,
        "slot": "8",
        "type": "t_bytes32"
      }
    ],
    "types": {
      "t_address": {
        "encoding": "inplace",
        "label": "address",
        "numberOfBytes": "20"
      },
      "t_bytes32": {
        "encoding": "inplace",
        "label": "bytes32",
        "numberOfBytes": "32"
      },
      "t_mapping(t_address,t_mapping(t_address,t_uint256))": {
        "encoding": "mapping",
        "key": "t_address",
        "label": "mapping(address => mapping(address => uint256))",
        "numberOfBytes": "32",
        "value": "t_mapping(t_address,t_uint256)"
      },
      "t_mapping(t_address,t_struct(Counter)2565_storage)": {
        "encoding": "mapping",
        "key": "t_address",
        "label": "mapping(address => struct Counters.Counter)",
        "numberOfBytes": "32",
        "value": "t_struct(Counter)2565_storage"
      },
      "t_mapping(t_address,t_uint256)": {
        "encoding": "mapping",
        "key": "t_address",
        "label": "mapping(address => uint256)",
        "numberOfBytes": "32",
        "value": "t_uint256"
      },
      "t_string_storage": {
        "encoding": "bytes",
        "label": "string",
        "numberOfBytes": "32"
      },
      "t_struct(Counter)2565_storage": {
        "encoding": "inplace",
        "label": "struct Counters.Counter",
        "members": [
          {
            "astId": 2564,
            "contract": "contracts/SHADYToken.sol:SHADYToken",
            "label": "_value",
            "offset": 0,
            "slot": "0",
            "type": "t_uint256"
          }
        ],
        "numberOfBytes": "32"
      },
      "t_uint256": {
        "encoding": "inplace",
        "label": "uint256",
        "numberOfBytes": "32"
      }
    }
  }
}