{
  "address": "0x29353bB4c9010c6112a77d702Ac890e70CD73d53",
  "abi": [
    {
      "inputs": [
        {
          "internalType": "address",
          "name": "troveManagerAddress_",
          "type": "address"
        },
        {
          "internalType": "address",
          "name": "stabilityPoolAddress_",
          "type": "address"
        },
        {
          "internalType": "address",
          "name": "borrowerOperationsAddress_",
          "type": "address"
        }
      ],
      "stateMutability": "nonpayable",
      "type": "constructor"
    },
    {
      "inputs": [],
      "name": "InvalidShortString",
      "type": "error"
    },
    {
      "inputs": [
        {
          "internalType": "string",
          "name": "str",
          "type": "string"
        }
      ],
      "name": "StringTooLong",
      "type": "error"
    },
    {
      "anonymous": false,
      "inputs": [
        {
          "indexed": true,
          "internalType": "address",
          "name": "owner",
          "type": "address"
        },
        {
          "indexed": true,
          "internalType": "address",
          "name": "spender",
          "type": "address"
        },
        {
          "indexed": false,
          "internalType": "uint256",
          "name": "value",
          "type": "uint256"
        }
      ],
      "name": "Approval",
      "type": "event"
    },
    {
      "anonymous": false,
      "inputs": [
        {
          "indexed": false,
          "internalType": "address",
          "name": "newBorrowerOperationsAddress",
          "type": "address"
        }
      ],
      "name": "BorrowerOperationsAddressChanged",
      "type": "event"
    },
    {
      "anonymous": false,
      "inputs": [],
      "name": "EIP712DomainChanged",
      "type": "event"
    },
    {
      "anonymous": false,
      "inputs": [
        {
          "indexed": false,
          "internalType": "address",
          "name": "user",
          "type": "address"
        },
        {
          "indexed": false,
          "internalType": "uint256",
          "name": "amount",
          "type": "uint256"
        }
      ],
      "name": "LUSDTokenBalanceUpdated",
      "type": "event"
    },
    {
      "anonymous": false,
      "inputs": [
        {
          "indexed": false,
          "internalType": "address",
          "name": "newStabilityPoolAddress",
          "type": "address"
        }
      ],
      "name": "StabilityPoolAddressChanged",
      "type": "event"
    },
    {
      "anonymous": false,
      "inputs": [
        {
          "indexed": true,
          "internalType": "address",
          "name": "from",
          "type": "address"
        },
        {
          "indexed": true,
          "internalType": "address",
          "name": "to",
          "type": "address"
        },
        {
          "indexed": false,
          "internalType": "uint256",
          "name": "value",
          "type": "uint256"
        }
      ],
      "name": "Transfer",
      "type": "event"
    },
    {
      "anonymous": false,
      "inputs": [
        {
          "indexed": false,
          "internalType": "address",
          "name": "troveManagerAddress",
          "type": "address"
        }
      ],
      "name": "TroveManagerAddressChanged",
      "type": "event"
    },
    {
      "inputs": [],
      "name": "DOMAIN_SEPARATOR",
      "outputs": [
        {
          "internalType": "bytes32",
          "name": "",
          "type": "bytes32"
        }
      ],
      "stateMutability": "view",
      "type": "function"
    },
    {
      "inputs": [
        {
          "internalType": "address",
          "name": "owner",
          "type": "address"
        },
        {
          "internalType": "address",
          "name": "spender",
          "type": "address"
        }
      ],
      "name": "allowance",
      "outputs": [
        {
          "internalType": "uint256",
          "name": "",
          "type": "uint256"
        }
      ],
      "stateMutability": "view",
      "type": "function"
    },
    {
      "inputs": [
        {
          "internalType": "address",
          "name": "spender",
          "type": "address"
        },
        {
          "internalType": "uint256",
          "name": "amount",
          "type": "uint256"
        }
      ],
      "name": "approve",
      "outputs": [
        {
          "internalType": "bool",
          "name": "",
          "type": "bool"
        }
      ],
      "stateMutability": "nonpayable",
      "type": "function"
    },
    {
      "inputs": [
        {
          "internalType": "address",
          "name": "account",
          "type": "address"
        }
      ],
      "name": "balanceOf",
      "outputs": [
        {
          "internalType": "uint256",
          "name": "",
          "type": "uint256"
        }
      ],
      "stateMutability": "view",
      "type": "function"
    },
    {
      "inputs": [],
      "name": "borrowerOperationsAddress",
      "outputs": [
        {
          "internalType": "address",
          "name": "",
          "type": "address"
        }
      ],
      "stateMutability": "view",
      "type": "function"
    },
    {
      "inputs": [
        {
          "internalType": "address",
          "name": "account_",
          "type": "address"
        },
        {
          "internalType": "uint256",
          "name": "amount_",
          "type": "uint256"
        }
      ],
      "name": "burn",
      "outputs": [],
      "stateMutability": "nonpayable",
      "type": "function"
    },
    {
      "inputs": [],
      "name": "decimals",
      "outputs": [
        {
          "internalType": "uint8",
          "name": "",
          "type": "uint8"
        }
      ],
      "stateMutability": "view",
      "type": "function"
    },
    {
      "inputs": [
        {
          "internalType": "address",
          "name": "spender",
          "type": "address"
        },
        {
          "internalType": "uint256",
          "name": "subtractedValue",
          "type": "uint256"
        }
      ],
      "name": "decreaseAllowance",
      "outputs": [
        {
          "internalType": "bool",
          "name": "",
          "type": "bool"
        }
      ],
      "stateMutability": "nonpayable",
      "type": "function"
    },
    {
      "inputs": [],
      "name": "eip712Domain",
      "outputs": [
        {
          "internalType": "bytes1",
          "name": "fields",
          "type": "bytes1"
        },
        {
          "internalType": "string",
          "name": "name",
          "type": "string"
        },
        {
          "internalType": "string",
          "name": "version",
          "type": "string"
        },
        {
          "internalType": "uint256",
          "name": "chainId",
          "type": "uint256"
        },
        {
          "internalType": "address",
          "name": "verifyingContract",
          "type": "address"
        },
        {
          "internalType": "bytes32",
          "name": "salt",
          "type": "bytes32"
        },
        {
          "internalType": "uint256[]",
          "name": "extensions",
          "type": "uint256[]"
        }
      ],
      "stateMutability": "view",
      "type": "function"
    },
    {
      "inputs": [
        {
          "internalType": "address",
          "name": "spender",
          "type": "address"
        },
        {
          "internalType": "uint256",
          "name": "addedValue",
          "type": "uint256"
        }
      ],
      "name": "increaseAllowance",
      "outputs": [
        {
          "internalType": "bool",
          "name": "",
          "type": "bool"
        }
      ],
      "stateMutability": "nonpayable",
      "type": "function"
    },
    {
      "inputs": [
        {
          "internalType": "address",
          "name": "account_",
          "type": "address"
        },
        {
          "internalType": "uint256",
          "name": "amount_",
          "type": "uint256"
        }
      ],
      "name": "mint",
      "outputs": [],
      "stateMutability": "nonpayable",
      "type": "function"
    },
    {
      "inputs": [],
      "name": "name",
      "outputs": [
        {
          "internalType": "string",
          "name": "",
          "type": "string"
        }
      ],
      "stateMutability": "view",
      "type": "function"
    },
    {
      "inputs": [
        {
          "internalType": "address",
          "name": "owner",
          "type": "address"
        }
      ],
      "name": "nonces",
      "outputs": [
        {
          "internalType": "uint256",
          "name": "",
          "type": "uint256"
        }
      ],
      "stateMutability": "view",
      "type": "function"
    },
    {
      "inputs": [
        {
          "internalType": "address",
          "name": "owner",
          "type": "address"
        },
        {
          "internalType": "address",
          "name": "spender",
          "type": "address"
        },
        {
          "internalType": "uint256",
          "name": "value",
          "type": "uint256"
        },
        {
          "internalType": "uint256",
          "name": "deadline",
          "type": "uint256"
        },
        {
          "internalType": "uint8",
          "name": "v",
          "type": "uint8"
        },
        {
          "internalType": "bytes32",
          "name": "r",
          "type": "bytes32"
        },
        {
          "internalType": "bytes32",
          "name": "s",
          "type": "bytes32"
        }
      ],
      "name": "permit",
      "outputs": [],
      "stateMutability": "nonpayable",
      "type": "function"
    },
    {
      "inputs": [
        {
          "internalType": "address",
          "name": "poolAddress_",
          "type": "address"
        },
        {
          "internalType": "address",
          "name": "receiver_",
          "type": "address"
        },
        {
          "internalType": "uint256",
          "name": "amount_",
          "type": "uint256"
        }
      ],
      "name": "returnFromPool",
      "outputs": [],
      "stateMutability": "nonpayable",
      "type": "function"
    },
    {
      "inputs": [
        {
          "internalType": "address",
          "name": "sender_",
          "type": "address"
        },
        {
          "internalType": "address",
          "name": "poolAddress_",
          "type": "address"
        },
        {
          "internalType": "uint256",
          "name": "amount_",
          "type": "uint256"
        }
      ],
      "name": "sendToPool",
      "outputs": [],
      "stateMutability": "nonpayable",
      "type": "function"
    },
    {
      "inputs": [],
      "name": "stabilityPoolAddress",
      "outputs": [
        {
          "internalType": "address",
          "name": "",
          "type": "address"
        }
      ],
      "stateMutability": "view",
      "type": "function"
    },
    {
      "inputs": [],
      "name": "symbol",
      "outputs": [
        {
          "internalType": "string",
          "name": "",
          "type": "string"
        }
      ],
      "stateMutability": "view",
      "type": "function"
    },
    {
      "inputs": [],
      "name": "totalSupply",
      "outputs": [
        {
          "internalType": "uint256",
          "name": "",
          "type": "uint256"
        }
      ],
      "stateMutability": "view",
      "type": "function"
    },
    {
      "inputs": [
        {
          "internalType": "address",
          "name": "to",
          "type": "address"
        },
        {
          "internalType": "uint256",
          "name": "amount",
          "type": "uint256"
        }
      ],
      "name": "transfer",
      "outputs": [
        {
          "internalType": "bool",
          "name": "",
          "type": "bool"
        }
      ],
      "stateMutability": "nonpayable",
      "type": "function"
    },
    {
      "inputs": [
        {
          "internalType": "address",
          "name": "from",
          "type": "address"
        },
        {
          "internalType": "address",
          "name": "to",
          "type": "address"
        },
        {
          "internalType": "uint256",
          "name": "amount",
          "type": "uint256"
        }
      ],
      "name": "transferFrom",
      "outputs": [
        {
          "internalType": "bool",
          "name": "",
          "type": "bool"
        }
      ],
      "stateMutability": "nonpayable",
      "type": "function"
    },
    {
      "inputs": [],
      "name": "troveManagerAddress",
      "outputs": [
        {
          "internalType": "address",
          "name": "",
          "type": "address"
        }
      ],
      "stateMutability": "view",
      "type": "function"
    }
  ],
  "transactionHash": "0x31ce9fc7f8f52a355e43bc6fd813cc00ee1e8115b7b970b4692d215e995654cd",
  "args": [
    "0x4D7D07196E24D15d8E5B97216aeDCf4518b23A66",
    "0x108aBca337e88a9fc1DE96b0ec323f476b35cD44",
    "0x3fa5F9c876BEbB41B8924633850b1a9922f7E4F9"
  ],
  "numDeployments": 1,
  "solcInputHash": "b29cd153aaed98a3f3bb92c92603933d",
  "bytecode": "0x6101c06040523480156200001257600080fd5b5060405162001fd038038062001fd08339810160408190526200003591620003f0565b6040518060400160405280601681526020017f536861646f777920496e7465726e6574204d6f6e65790000000000000000000081525080604051806040016040528060018152602001603160f81b8152506040518060400160405280601681526020017f536861646f777920496e7465726e6574204d6f6e6579000000000000000000008152506040518060400160405280600381526020016253494d60e81b8152508160039081620000e99190620004df565b506004620000f88282620004df565b506200010a91508390506005620002a6565b610120526200011b816006620002a6565b61014052815160208084019190912060e052815190820120610100524660a052620001a960e05161010051604080517f8b73c3c69bb8fe3d512ecc4cf759cc79239f7b179b0ffacaa9a75d522b39400f60208201529081019290925260608201524660808201523060a082015260009060c00160405160208183030381529060405280519060200120905090565b60805250503060c05250620001be83620002df565b620001c982620002df565b620001d481620002df565b6001600160a01b0383166101608190526040519081527f143219c9e69b09e07e095fcc889b43d8f46ca892bba65f08dc3a0050869a56789060200160405180910390a16001600160a01b0382166101808190526040519081527f82966d27eea39b038ee0fa30cd16532bb24f6e65d31cb58fb227aa5766cdcc7f9060200160405180910390a16001600160a01b0381166101a08190526040519081527f3ca631ffcd2a9b5d9ae18543fc82f58eb4ca33af9e6ab01b7a8e95331e6ed9859060200160405180910390a150505062000620565b6000602083511015620002c657620002be8362000390565b9050620002d9565b81620002d38482620004df565b5060ff90505b92915050565b6001600160a01b0381166200033b5760405162461bcd60e51b815260206004820152601e60248201527f4163636f756e742063616e6e6f74206265207a65726f2061646472657373000060448201526064015b60405180910390fd5b803b806200038c5760405162461bcd60e51b815260206004820181905260248201527f4163636f756e7420636f64652073697a652063616e6e6f74206265207a65726f604482015260640162000332565b5050565b600080829050601f81511115620003be578260405163305a27a960e01b8152600401620003329190620005ab565b8051620003cb82620005fb565b179392505050565b80516001600160a01b0381168114620003eb57600080fd5b919050565b6000806000606084860312156200040657600080fd5b6200041184620003d3565b92506200042160208501620003d3565b91506200043160408501620003d3565b90509250925092565b634e487b7160e01b600052604160045260246000fd5b600181811c908216806200046557607f821691505b6020821081036200048657634e487b7160e01b600052602260045260246000fd5b50919050565b601f821115620004da57600081815260208120601f850160051c81016020861015620004b55750805b601f850160051c820191505b81811015620004d657828155600101620004c1565b5050505b505050565b81516001600160401b03811115620004fb57620004fb6200043a565b62000513816200050c845462000450565b846200048c565b602080601f8311600181146200054b5760008415620005325750858301515b600019600386901b1c1916600185901b178555620004d6565b600085815260208120601f198616915b828110156200057c578886015182559484019460019091019084016200055b565b50858210156200059b5787850151600019600388901b60f8161c191681555b5050505050600190811b01905550565b600060208083528351808285015260005b81811015620005da57858101830151858201604001528201620005bc565b506000604082860101526040601f19601f8301168501019250505092915050565b80516020808301519190811015620004865760001960209190910360031b1b16919050565b60805160a05160c05160e05161010051610120516101405161016051610180516101a0516118ee620006e26000396000818161030201528181610c0901528181610e7c015261105f01526000818161018d015281816108ec01528181610b8e015281816110c40152611298015260008181610243015281816108ba01528181610bcb0152611091015260006104ec015260006104c101526000610e2001526000610df801526000610d5301526000610d7d01526000610da701526118ee6000f3fe608060405234801561001057600080fd5b50600436106101425760003560e01c806370a08231116100b8578063a457c2d71161007c578063a457c2d7146102d7578063a9059cbb146102ea578063b7f8cf9b146102fd578063bb997bac14610324578063d505accf14610337578063dd62ed3e1461034a57600080fd5b806370a08231146102655780637ecebe001461028e57806384b0196e146102a157806395d89b41146102bc5780639dc29fac146102c457600080fd5b806323b872dd1161010a57806323b872dd146101ee578063313ce567146102015780633644e51514610210578063395093511461021857806340c10f191461022b5780635a4d28bb1461023e57600080fd5b806306fdde0314610147578063095ea7b3146101655780630b622ab21461018857806318160ddd146101c757806320c582be146101d9575b600080fd5b61014f61035d565b60405161015c919061163a565b60405180910390f35b610178610173366004611670565b6103ef565b604051901515815260200161015c565b6101af7f000000000000000000000000000000000000000000000000000000000000000081565b6040516001600160a01b03909116815260200161015c565b6002545b60405190815260200161015c565b6101ec6101e736600461169a565b610409565b005b6101786101fc36600461169a565b610421565b6040516012815260200161015c565b6101cb61044e565b610178610226366004611670565b61045d565b6101ec610239366004611670565b61047f565b6101af7f000000000000000000000000000000000000000000000000000000000000000081565b6101cb6102733660046116d6565b6001600160a01b031660009081526020819052604090205490565b6101cb61029c3660046116d6565b610495565b6102a96104b3565b60405161015c97969594939291906116f1565b61014f61053c565b6101ec6102d2366004611670565b61054b565b6101786102e5366004611670565b61055d565b6101786102f8366004611670565b6105dd565b6101af7f000000000000000000000000000000000000000000000000000000000000000081565b6101ec61033236600461169a565b6105f4565b6101ec610345366004611787565b6105fc565b6101cb6103583660046117fa565b610760565b60606003805461036c9061182d565b80601f01602080910402602001604051908101604052809291908181526020018280546103989061182d565b80156103e55780601f106103ba576101008083540402835291602001916103e5565b820191906000526020600020905b8154815290600101906020018083116103c857829003601f168201915b5050505050905090565b6000336103fd81858561078b565b60019150505b92915050565b6104116108af565b61041c83838361097a565b505050565b600061042c83610b0e565b33610438858285610cd2565b61044385858561097a565b506001949350505050565b6000610458610d46565b905090565b6000336103fd8185856104708383610760565b61047a9190611861565b61078b565b610487610e71565b6104918282610efc565b5050565b6001600160a01b038116600090815260076020526040812054610403565b6000606080828080836104e77f00000000000000000000000000000000000000000000000000000000000000006005610fa9565b6105127f00000000000000000000000000000000000000000000000000000000000000006006610fa9565b60408051600080825260208201909252600f60f81b9b939a50919850469750309650945092509050565b60606004805461036c9061182d565b610553611054565b610491828261116d565b6000338161056b8286610760565b9050838110156105d05760405162461bcd60e51b815260206004820152602560248201527f45524332303a2064656372656173656420616c6c6f77616e63652062656c6f77604482015264207a65726f60d81b60648201526084015b60405180910390fd5b610443828686840361078b565b60006105e883610b0e565b336103fd81858561097a565b61041161128d565b8342111561064c5760405162461bcd60e51b815260206004820152601d60248201527f45524332305065726d69743a206578706972656420646561646c696e6500000060448201526064016105c7565b60007f6e71edae12b1b97f4d1f60370fef10105fa2faae0126114a169c64845d6126c988888861067b8c611311565b6040805160208101969096526001600160a01b0394851690860152929091166060840152608083015260a082015260c0810186905260e00160405160208183030381529060405280519060200120905060006106d682611339565b905060006106e682878787611366565b9050896001600160a01b0316816001600160a01b0316146107495760405162461bcd60e51b815260206004820152601e60248201527f45524332305065726d69743a20696e76616c6964207369676e6174757265000060448201526064016105c7565b6107548a8a8a61078b565b50505050505050505050565b6001600160a01b03918216600090815260016020908152604080832093909416825291909152205490565b6001600160a01b0383166107ed5760405162461bcd60e51b8152602060048201526024808201527f45524332303a20617070726f76652066726f6d20746865207a65726f206164646044820152637265737360e01b60648201526084016105c7565b6001600160a01b03821661084e5760405162461bcd60e51b815260206004820152602260248201527f45524332303a20617070726f766520746f20746865207a65726f206164647265604482015261737360f01b60648201526084016105c7565b6001600160a01b0383811660008181526001602090815260408083209487168084529482529182902085905590518481527f8c5be1e5ebec7d5bd14f71427d1e84f3dd0314c0f7b2291e5b200ac8c7c3b925910160405180910390a3505050565b336001600160a01b037f000000000000000000000000000000000000000000000000000000000000000016148061090e5750336001600160a01b037f000000000000000000000000000000000000000000000000000000000000000016145b6109785760405162461bcd60e51b815260206004820152603560248201527f53494d3a2043616c6c6572206973206e6569746865722054726f76654d616e6160448201527419d95c881b9bdc8814dd18589a5b1a5d1e541bdbdb605a1b60648201526084016105c7565b565b6001600160a01b0383166109de5760405162461bcd60e51b815260206004820152602560248201527f45524332303a207472616e736665722066726f6d20746865207a65726f206164604482015264647265737360d81b60648201526084016105c7565b6001600160a01b038216610a405760405162461bcd60e51b815260206004820152602360248201527f45524332303a207472616e7366657220746f20746865207a65726f206164647260448201526265737360e81b60648201526084016105c7565b6001600160a01b03831660009081526020819052604090205481811015610ab85760405162461bcd60e51b815260206004820152602660248201527f45524332303a207472616e7366657220616d6f756e7420657863656564732062604482015265616c616e636560d01b60648201526084016105c7565b6001600160a01b0384811660008181526020818152604080832087870390559387168083529184902080548701905592518581529092600080516020611899833981519152910160405180910390a35b50505050565b306001600160a01b03821603610b8c5760405162461bcd60e51b815260206004820152603e60248201527f53494d3a2043616e6e6f74207472616e7366657220746f6b656e73206469726560448201527f63746c7920746f207468652053494d20746f6b656e20636f6e7472616374000060648201526084016105c7565b7f00000000000000000000000000000000000000000000000000000000000000006001600160a01b0316816001600160a01b031614158015610c0057507f00000000000000000000000000000000000000000000000000000000000000006001600160a01b0316816001600160a01b031614155b8015610c3e57507f00000000000000000000000000000000000000000000000000000000000000006001600160a01b0316816001600160a01b031614155b610ccf5760405162461bcd60e51b815260206004820152605660248201527f53494d3a2043616e6e6f74207472616e7366657220746f6b656e73206469726560448201527f63746c7920746f207468652053746162696c697479506f6f6c2c2054726f76656064820152754d616e61676572206f7220426f72726f7765724f707360501b608482015260a4016105c7565b50565b6000610cde8484610760565b90506000198114610b085781811015610d395760405162461bcd60e51b815260206004820152601d60248201527f45524332303a20696e73756666696369656e7420616c6c6f77616e636500000060448201526064016105c7565b610b08848484840361078b565b6000306001600160a01b037f000000000000000000000000000000000000000000000000000000000000000016148015610d9f57507f000000000000000000000000000000000000000000000000000000000000000046145b15610dc957507f000000000000000000000000000000000000000000000000000000000000000090565b610458604080517f8b73c3c69bb8fe3d512ecc4cf759cc79239f7b179b0ffacaa9a75d522b39400f60208201527f0000000000000000000000000000000000000000000000000000000000000000918101919091527f000000000000000000000000000000000000000000000000000000000000000060608201524660808201523060a082015260009060c00160405160208183030381529060405280519060200120905090565b336001600160a01b037f000000000000000000000000000000000000000000000000000000000000000016146109785760405162461bcd60e51b815260206004820152602a60248201527f53494d546f6b656e3a2043616c6c6572206973206e6f7420426f72726f7765726044820152694f7065726174696f6e7360b01b60648201526084016105c7565b6001600160a01b038216610f525760405162461bcd60e51b815260206004820152601f60248201527f45524332303a206d696e7420746f20746865207a65726f20616464726573730060448201526064016105c7565b8060026000828254610f649190611861565b90915550506001600160a01b03821660008181526020818152604080832080548601905551848152600080516020611899833981519152910160405180910390a35050565b606060ff8314610fc357610fbc8361138e565b9050610403565b818054610fcf9061182d565b80601f0160208091040260200160405190810160405280929190818152602001828054610ffb9061182d565b80156110485780601f1061101d57610100808354040283529160200191611048565b820191906000526020600020905b81548152906001019060200180831161102b57829003601f168201915b50505050509050610403565b336001600160a01b037f00000000000000000000000000000000000000000000000000000000000000001614806110b35750336001600160a01b037f000000000000000000000000000000000000000000000000000000000000000016145b806110e65750336001600160a01b037f000000000000000000000000000000000000000000000000000000000000000016145b6109785760405162461bcd60e51b815260206004820152604c60248201527f53494d3a2043616c6c6572206973206e65697468657220426f72726f7765724f60448201527f7065726174696f6e73206e6f722054726f76654d616e61676572206e6f72205360648201526b1d18589a5b1a5d1e541bdbdb60a21b608482015260a4016105c7565b6001600160a01b0382166111cd5760405162461bcd60e51b815260206004820152602160248201527f45524332303a206275726e2066726f6d20746865207a65726f206164647265736044820152607360f81b60648201526084016105c7565b6001600160a01b038216600090815260208190526040902054818110156112415760405162461bcd60e51b815260206004820152602260248201527f45524332303a206275726e20616d6f756e7420657863656564732062616c616e604482015261636560f01b60648201526084016105c7565b6001600160a01b038316600081815260208181526040808320868603905560028054879003905551858152919291600080516020611899833981519152910160405180910390a3505050565b336001600160a01b037f000000000000000000000000000000000000000000000000000000000000000016146109785760405162461bcd60e51b8152602060048201526024808201527f53494d3a2043616c6c6572206973206e6f74207468652053746162696c697479604482015263141bdbdb60e21b60648201526084016105c7565b6001600160a01b03811660009081526007602052604090208054600181018255905b50919050565b6000610403611346610d46565b8360405161190160f01b8152600281019290925260228201526042902090565b6000806000611377878787876113cd565b9150915061138481611487565b5095945050505050565b6060600061139b836115cc565b604080516020808252818301909252919250600091906020820181803683375050509182525060208101929092525090565b6000806fa2a8918ca85bafe22016d0b997e4df60600160ff1b038311156113fa575060009050600361147e565b6040805160008082526020820180845289905260ff881692820192909252606081018690526080810185905260019060a0016020604051602081039080840390855afa15801561144e573d6000803e3d6000fd5b5050604051601f1901519150506001600160a01b0381166114775760006001925092505061147e565b9150600090505b94509492505050565b600081600481111561149b5761149b611882565b036114a35750565b60018160048111156114b7576114b7611882565b036114ff5760405162461bcd60e51b815260206004820152601860248201527745434453413a20696e76616c6964207369676e617475726560401b60448201526064016105c7565b600281600481111561151357611513611882565b036115605760405162461bcd60e51b815260206004820152601f60248201527f45434453413a20696e76616c6964207369676e6174757265206c656e6774680060448201526064016105c7565b600381600481111561157457611574611882565b03610ccf5760405162461bcd60e51b815260206004820152602260248201527f45434453413a20696e76616c6964207369676e6174757265202773272076616c604482015261756560f01b60648201526084016105c7565b600060ff8216601f81111561040357604051632cd44ac360e21b815260040160405180910390fd5b6000815180845260005b8181101561161a576020818501810151868301820152016115fe565b506000602082860101526020601f19601f83011685010191505092915050565b60208152600061164d60208301846115f4565b9392505050565b80356001600160a01b038116811461166b57600080fd5b919050565b6000806040838503121561168357600080fd5b61168c83611654565b946020939093013593505050565b6000806000606084860312156116af57600080fd5b6116b884611654565b92506116c660208501611654565b9150604084013590509250925092565b6000602082840312156116e857600080fd5b61164d82611654565b60ff60f81b881681526000602060e08184015261171160e084018a6115f4565b8381036040850152611723818a6115f4565b606085018990526001600160a01b038816608086015260a0850187905284810360c0860152855180825283870192509083019060005b8181101561177557835183529284019291840191600101611759565b50909c9b505050505050505050505050565b600080600080600080600060e0888a0312156117a257600080fd5b6117ab88611654565b96506117b960208901611654565b95506040880135945060608801359350608088013560ff811681146117dd57600080fd5b9699959850939692959460a0840135945060c09093013592915050565b6000806040838503121561180d57600080fd5b61181683611654565b915061182460208401611654565b90509250929050565b600181811c9082168061184157607f821691505b60208210810361133357634e487b7160e01b600052602260045260246000fd5b8082018082111561040357634e487b7160e01b600052601160045260246000fd5b634e487b7160e01b600052602160045260246000fdfeddf252ad1be2c89b69c2b068fc378daa952ba7f163c4a11628f55a4df523b3efa264697066735822122052ea6c3fa5bc7b49b419903e98d7a4d637656b0462eb382ec12572784f37570064736f6c63430008130033",
  "devdoc": {
    "events": {
      "Approval(address,address,uint256)": {
        "details": "Emitted when the allowance of a `spender` for an `owner` is set by a call to {approve}. `value` is the new allowance."
      },
      "EIP712DomainChanged()": {
        "details": "MAY be emitted to signal that the domain could have changed."
      },
      "Transfer(address,address,uint256)": {
        "details": "Emitted when `value` tokens are moved from one account (`from`) to another (`to`). Note that `value` may be zero."
      }
    },
    "kind": "dev",
    "methods": {
      "DOMAIN_SEPARATOR()": {
        "details": "See {IERC20Permit-DOMAIN_SEPARATOR}."
      },
      "allowance(address,address)": {
        "details": "See {IERC20-allowance}."
      },
      "approve(address,uint256)": {
        "details": "See {IERC20-approve}. NOTE: If `amount` is the maximum `uint256`, the allowance is not updated on `transferFrom`. This is semantically equivalent to an infinite approval. Requirements: - `spender` cannot be the zero address."
      },
      "balanceOf(address)": {
        "details": "See {IERC20-balanceOf}."
      },
      "decimals()": {
        "details": "Returns the number of decimals used to get its user representation. For example, if `decimals` equals `2`, a balance of `505` tokens should be displayed to a user as `5.05` (`505 / 10 ** 2`). Tokens usually opt for a value of 18, imitating the relationship between Ether and Wei. This is the default value returned by this function, unless it's overridden. NOTE: This information is only used for _display_ purposes: it in no way affects any of the arithmetic of the contract, including {IERC20-balanceOf} and {IERC20-transfer}."
      },
      "decreaseAllowance(address,uint256)": {
        "details": "Atomically decreases the allowance granted to `spender` by the caller. This is an alternative to {approve} that can be used as a mitigation for problems described in {IERC20-approve}. Emits an {Approval} event indicating the updated allowance. Requirements: - `spender` cannot be the zero address. - `spender` must have allowance for the caller of at least `subtractedValue`."
      },
      "eip712Domain()": {
        "details": "See {EIP-5267}. _Available since v4.9._"
      },
      "increaseAllowance(address,uint256)": {
        "details": "Atomically increases the allowance granted to `spender` by the caller. This is an alternative to {approve} that can be used as a mitigation for problems described in {IERC20-approve}. Emits an {Approval} event indicating the updated allowance. Requirements: - `spender` cannot be the zero address."
      },
      "name()": {
        "details": "Returns the name of the token."
      },
      "nonces(address)": {
        "details": "See {IERC20Permit-nonces}."
      },
      "permit(address,address,uint256,uint256,uint8,bytes32,bytes32)": {
        "details": "See {IERC20Permit-permit}."
      },
      "symbol()": {
        "details": "Returns the symbol of the token, usually a shorter version of the name."
      },
      "totalSupply()": {
        "details": "See {IERC20-totalSupply}."
      }
    },
    "version": 1
  },
  "userdoc": {
    "kind": "user",
    "methods": {},
    "version": 1
  },
  "storageLayout": {
    "storage": [
      {
        "astId": 788,
        "contract": "contracts/SIMToken.sol:SIMToken",
        "label": "_balances",
        "offset": 0,
        "slot": "0",
        "type": "t_mapping(t_address,t_uint256)"
      },
      {
        "astId": 794,
        "contract": "contracts/SIMToken.sol:SIMToken",
        "label": "_allowances",
        "offset": 0,
        "slot": "1",
        "type": "t_mapping(t_address,t_mapping(t_address,t_uint256))"
      },
      {
        "astId": 796,
        "contract": "contracts/SIMToken.sol:SIMToken",
        "label": "_totalSupply",
        "offset": 0,
        "slot": "2",
        "type": "t_uint256"
      },
      {
        "astId": 798,
        "contract": "contracts/SIMToken.sol:SIMToken",
        "label": "_name",
        "offset": 0,
        "slot": "3",
        "type": "t_string_storage"
      },
      {
        "astId": 800,
        "contract": "contracts/SIMToken.sol:SIMToken",
        "label": "_symbol",
        "offset": 0,
        "slot": "4",
        "type": "t_string_storage"
      },
      {
        "astId": 3587,
        "contract": "contracts/SIMToken.sol:SIMToken",
        "label": "_nameFallback",
        "offset": 0,
        "slot": "5",
        "type": "t_string_storage"
      },
      {
        "astId": 3589,
        "contract": "contracts/SIMToken.sol:SIMToken",
        "label": "_versionFallback",
        "offset": 0,
        "slot": "6",
        "type": "t_string_storage"
      },
      {
        "astId": 1460,
        "contract": "contracts/SIMToken.sol:SIMToken",
        "label": "_nonces",
        "offset": 0,
        "slot": "7",
        "type": "t_mapping(t_address,t_struct(Counter)2565_storage)"
      },
      {
        "astId": 1468,
        "contract": "contracts/SIMToken.sol:SIMToken",
        "label": "_PERMIT_TYPEHASH_DEPRECATED_SLOT",
        "offset": 0,
        "slot": "8",
        "type": "t_bytes32"
      }
    ],
    "types": {
      "t_address": {
        "encoding": "inplace",
        "label": "address",
        "numberOfBytes": "20"
      },
      "t_bytes32": {
        "encoding": "inplace",
        "label": "bytes32",
        "numberOfBytes": "32"
      },
      "t_mapping(t_address,t_mapping(t_address,t_uint256))": {
        "encoding": "mapping",
        "key": "t_address",
        "label": "mapping(address => mapping(address => uint256))",
        "numberOfBytes": "32",
        "value": "t_mapping(t_address,t_uint256)"
      },
      "t_mapping(t_address,t_struct(Counter)2565_storage)": {
        "encoding": "mapping",
        "key": "t_address",
        "label": "mapping(address => struct Counters.Counter)",
        "numberOfBytes": "32",
        "value": "t_struct(Counter)2565_storage"
      },
      "t_mapping(t_address,t_uint256)": {
        "encoding": "mapping",
        "key": "t_address",
        "label": "mapping(address => uint256)",
        "numberOfBytes": "32",
        "value": "t_uint256"
      },
      "t_string_storage": {
        "encoding": "bytes",
        "label": "string",
        "numberOfBytes": "32"
      },
      "t_struct(Counter)2565_storage": {
        "encoding": "inplace",
        "label": "struct Counters.Counter",
        "members": [
          {
            "astId": 2564,
            "contract": "contracts/SIMToken.sol:SIMToken",
            "label": "_value",
            "offset": 0,
            "slot": "0",
            "type": "t_uint256"
          }
        ],
        "numberOfBytes": "32"
      },
      "t_uint256": {
        "encoding": "inplace",
        "label": "uint256",
        "numberOfBytes": "32"
      }
    }
  }
}