{
  "address": "0x7D68ECf1762bA27120d0f98BFcFa0da67eb15860",
  "abi": [
    {
      "anonymous": false,
      "inputs": [
        {
          "indexed": false,
          "internalType": "uint256",
          "name": "time",
          "type": "uint256"
        },
        {
          "indexed": false,
          "internalType": "uint256",
          "name": "tokens",
          "type": "uint256"
        }
      ],
      "name": "CheckpointToken",
      "type": "event"
    },
    {
      "anonymous": false,
      "inputs": [
        {
          "indexed": false,
          "internalType": "uint256",
          "name": "tokenId",
          "type": "uint256"
        },
        {
          "indexed": false,
          "internalType": "uint256",
          "name": "amount",
          "type": "uint256"
        },
        {
          "indexed": false,
          "internalType": "uint256",
          "name": "claimEpoch",
          "type": "uint256"
        },
        {
          "indexed": false,
          "internalType": "uint256",
          "name": "maxEpoch",
          "type": "uint256"
        }
      ],
      "name": "Claimed",
      "type": "event"
    },
    {
      "anonymous": false,
      "inputs": [
        {
          "indexed": false,
          "internalType": "address",
          "name": "controller",
          "type": "address"
        },
        {
          "indexed": false,
          "internalType": "uint256",
          "name": "ts",
          "type": "uint256"
        },
        {
          "indexed": false,
          "internalType": "uint256",
          "name": "block",
          "type": "uint256"
        }
      ],
      "name": "ContractInitialized",
      "type": "event"
    },
    {
      "anonymous": false,
      "inputs": [
        {
          "indexed": false,
          "internalType": "uint8",
          "name": "version",
          "type": "uint8"
        }
      ],
      "name": "Initialized",
      "type": "event"
    },
    {
      "anonymous": false,
      "inputs": [
        {
          "indexed": false,
          "internalType": "uint256",
          "name": "value",
          "type": "uint256"
        },
        {
          "indexed": false,
          "internalType": "address",
          "name": "oldLogic",
          "type": "address"
        }
      ],
      "name": "RevisionIncreased",
      "type": "event"
    },
    {
      "inputs": [],
      "name": "CONTROLLABLE_VERSION",
      "outputs": [
        {
          "internalType": "string",
          "name": "",
          "type": "string"
        }
      ],
      "stateMutability": "view",
      "type": "function"
    },
    {
      "inputs": [],
      "name": "I_TETU_ERC165",
      "outputs": [
        {
          "internalType": "bytes4",
          "name": "",
          "type": "bytes4"
        }
      ],
      "stateMutability": "view",
      "type": "function"
    },
    {
      "inputs": [],
      "name": "VE_DIST_VERSION",
      "outputs": [
        {
          "internalType": "string",
          "name": "",
          "type": "string"
        }
      ],
      "stateMutability": "view",
      "type": "function"
    },
    {
      "inputs": [],
      "name": "activePeriod",
      "outputs": [
        {
          "internalType": "uint256",
          "name": "",
          "type": "uint256"
        }
      ],
      "stateMutability": "view",
      "type": "function"
    },
    {
      "inputs": [
        {
          "internalType": "uint256",
          "name": "toDistribute",
          "type": "uint256"
        },
        {
          "internalType": "uint256",
          "name": "t0",
          "type": "uint256"
        },
        {
          "internalType": "uint256",
          "name": "t1",
          "type": "uint256"
        },
        {
          "internalType": "uint256",
          "name": "sinceLast",
          "type": "uint256"
        }
      ],
      "name": "adjustToDistribute",
      "outputs": [
        {
          "internalType": "uint256",
          "name": "",
          "type": "uint256"
        }
      ],
      "stateMutability": "pure",
      "type": "function"
    },
    {
      "inputs": [
        {
          "internalType": "uint256",
          "name": "t",
          "type": "uint256"
        },
        {
          "internalType": "uint256",
          "name": "ptTs",
          "type": "uint256"
        },
        {
          "internalType": "int128",
          "name": "ptBias",
          "type": "int128"
        },
        {
          "internalType": "int128",
          "name": "ptSlope",
          "type": "int128"
        }
      ],
      "name": "adjustVeSupply",
      "outputs": [
        {
          "internalType": "uint256",
          "name": "",
          "type": "uint256"
        }
      ],
      "stateMutability": "pure",
      "type": "function"
    },
    {
      "inputs": [
        {
          "internalType": "uint256",
          "name": "_tokenId",
          "type": "uint256"
        },
        {
          "internalType": "uint256",
          "name": "weekCursor",
          "type": "uint256"
        },
        {
          "internalType": "uint256",
          "name": "_lastTokenTime",
          "type": "uint256"
        },
        {
          "components": [
            {
              "internalType": "int128",
              "name": "bias",
              "type": "int128"
            },
            {
              "internalType": "int128",
              "name": "slope",
              "type": "int128"
            },
            {
              "internalType": "uint256",
              "name": "ts",
              "type": "uint256"
            },
            {
              "internalType": "uint256",
              "name": "blk",
              "type": "uint256"
            }
          ],
          "internalType": "struct IVe.Point",
          "name": "userPoint",
          "type": "tuple"
        },
        {
          "internalType": "uint256",
          "name": "userEpoch",
          "type": "uint256"
        },
        {
          "internalType": "uint256",
          "name": "maxUserEpoch",
          "type": "uint256"
        },
        {
          "internalType": "contract IVe",
          "name": "_ve",
          "type": "address"
        }
      ],
      "name": "calculateToDistribute",
      "outputs": [
        {
          "components": [
            {
              "internalType": "uint256",
              "name": "toDistribute",
              "type": "uint256"
            },
            {
              "internalType": "uint256",
              "name": "userEpoch",
              "type": "uint256"
            },
            {
              "internalType": "uint256",
              "name": "weekCursor",
              "type": "uint256"
            },
            {
              "internalType": "uint256",
              "name": "maxUserEpoch",
              "type": "uint256"
            },
            {
              "internalType": "bool",
              "name": "success",
              "type": "bool"
            }
          ],
          "internalType": "struct VeDistributor.ClaimCalculationResult",
          "name": "",
          "type": "tuple"
        }
      ],
      "stateMutability": "view",
      "type": "function"
    },
    {
      "inputs": [],
      "name": "checkpoint",
      "outputs": [],
      "stateMutability": "nonpayable",
      "type": "function"
    },
    {
      "inputs": [],
      "name": "checkpointTotalSupply",
      "outputs": [],
      "stateMutability": "nonpayable",
      "type": "function"
    },
    {
      "inputs": [
        {
          "internalType": "uint256",
          "name": "_tokenId",
          "type": "uint256"
        }
      ],
      "name": "claim",
      "outputs": [
        {
          "internalType": "uint256",
          "name": "",
          "type": "uint256"
        }
      ],
      "stateMutability": "nonpayable",
      "type": "function"
    },
    {
      "inputs": [
        {
          "internalType": "uint256[]",
          "name": "_tokenIds",
          "type": "uint256[]"
        }
      ],
      "name": "claimMany",
      "outputs": [
        {
          "internalType": "bool",
          "name": "",
          "type": "bool"
        }
      ],
      "stateMutability": "nonpayable",
      "type": "function"
    },
    {
      "inputs": [
        {
          "internalType": "uint256",
          "name": "_tokenId",
          "type": "uint256"
        }
      ],
      "name": "claimable",
      "outputs": [
        {
          "internalType": "uint256",
          "name": "",
          "type": "uint256"
        }
      ],
      "stateMutability": "view",
      "type": "function"
    },
    {
      "inputs": [],
      "name": "controller",
      "outputs": [
        {
          "internalType": "address",
          "name": "",
          "type": "address"
        }
      ],
      "stateMutability": "view",
      "type": "function"
    },
    {
      "inputs": [],
      "name": "created",
      "outputs": [
        {
          "internalType": "uint256",
          "name": "",
          "type": "uint256"
        }
      ],
      "stateMutability": "view",
      "type": "function"
    },
    {
      "inputs": [],
      "name": "createdBlock",
      "outputs": [
        {
          "internalType": "uint256",
          "name": "",
          "type": "uint256"
        }
      ],
      "stateMutability": "view",
      "type": "function"
    },
    {
      "inputs": [
        {
          "internalType": "contract IVe",
          "name": "_ve",
          "type": "address"
        },
        {
          "internalType": "uint256",
          "name": "_timestamp",
          "type": "uint256"
        }
      ],
      "name": "findTimestampEpoch",
      "outputs": [
        {
          "internalType": "uint256",
          "name": "",
          "type": "uint256"
        }
      ],
      "stateMutability": "view",
      "type": "function"
    },
    {
      "inputs": [
        {
          "internalType": "contract IVe",
          "name": "_ve",
          "type": "address"
        },
        {
          "internalType": "uint256",
          "name": "tokenId",
          "type": "uint256"
        },
        {
          "internalType": "uint256",
          "name": "_timestamp",
          "type": "uint256"
        },
        {
          "internalType": "uint256",
          "name": "maxUserEpoch",
          "type": "uint256"
        }
      ],
      "name": "findTimestampUserEpoch",
      "outputs": [
        {
          "internalType": "uint256",
          "name": "",
          "type": "uint256"
        }
      ],
      "stateMutability": "view",
      "type": "function"
    },
    {
      "inputs": [
        {
          "internalType": "uint256",
          "name": "slot",
          "type": "uint256"
        }
      ],
      "name": "getSlot",
      "outputs": [
        {
          "internalType": "bytes32",
          "name": "result",
          "type": "bytes32"
        }
      ],
      "stateMutability": "view",
      "type": "function"
    },
    {
      "inputs": [
        {
          "internalType": "address",
          "name": "oldLogic",
          "type": "address"
        }
      ],
      "name": "increaseRevision",
      "outputs": [],
      "stateMutability": "nonpayable",
      "type": "function"
    },
    {
      "inputs": [
        {
          "internalType": "address",
          "name": "controller_",
          "type": "address"
        },
        {
          "internalType": "address",
          "name": "_ve",
          "type": "address"
        },
        {
          "internalType": "address",
          "name": "_rewardToken",
          "type": "address"
        }
      ],
      "name": "init",
      "outputs": [],
      "stateMutability": "nonpayable",
      "type": "function"
    },
    {
      "inputs": [
        {
          "internalType": "address",
          "name": "_value",
          "type": "address"
        }
      ],
      "name": "isController",
      "outputs": [
        {
          "internalType": "bool",
          "name": "",
          "type": "bool"
        }
      ],
      "stateMutability": "view",
      "type": "function"
    },
    {
      "inputs": [
        {
          "internalType": "address",
          "name": "_value",
          "type": "address"
        }
      ],
      "name": "isGovernance",
      "outputs": [
        {
          "internalType": "bool",
          "name": "",
          "type": "bool"
        }
      ],
      "stateMutability": "view",
      "type": "function"
    },
    {
      "inputs": [],
      "name": "lastTokenTime",
      "outputs": [
        {
          "internalType": "uint256",
          "name": "",
          "type": "uint256"
        }
      ],
      "stateMutability": "view",
      "type": "function"
    },
    {
      "inputs": [],
      "name": "previousImplementation",
      "outputs": [
        {
          "internalType": "address",
          "name": "",
          "type": "address"
        }
      ],
      "stateMutability": "view",
      "type": "function"
    },
    {
      "inputs": [],
      "name": "revision",
      "outputs": [
        {
          "internalType": "uint256",
          "name": "",
          "type": "uint256"
        }
      ],
      "stateMutability": "view",
      "type": "function"
    },
    {
      "inputs": [],
      "name": "rewardToken",
      "outputs": [
        {
          "internalType": "address",
          "name": "",
          "type": "address"
        }
      ],
      "stateMutability": "view",
      "type": "function"
    },
    {
      "inputs": [],
      "name": "startTime",
      "outputs": [
        {
          "internalType": "uint256",
          "name": "",
          "type": "uint256"
        }
      ],
      "stateMutability": "view",
      "type": "function"
    },
    {
      "inputs": [
        {
          "internalType": "bytes4",
          "name": "interfaceId",
          "type": "bytes4"
        }
      ],
      "name": "supportsInterface",
      "outputs": [
        {
          "internalType": "bool",
          "name": "",
          "type": "bool"
        }
      ],
      "stateMutability": "view",
      "type": "function"
    },
    {
      "inputs": [],
      "name": "timeCursor",
      "outputs": [
        {
          "internalType": "uint256",
          "name": "",
          "type": "uint256"
        }
      ],
      "stateMutability": "view",
      "type": "function"
    },
    {
      "inputs": [
        {
          "internalType": "uint256",
          "name": "",
          "type": "uint256"
        }
      ],
      "name": "timeCursorOf",
      "outputs": [
        {
          "internalType": "uint256",
          "name": "",
          "type": "uint256"
        }
      ],
      "stateMutability": "view",
      "type": "function"
    },
    {
      "inputs": [],
      "name": "timestamp",
      "outputs": [
        {
          "internalType": "uint256",
          "name": "",
          "type": "uint256"
        }
      ],
      "stateMutability": "view",
      "type": "function"
    },
    {
      "inputs": [],
      "name": "tokenLastBalance",
      "outputs": [
        {
          "internalType": "uint256",
          "name": "",
          "type": "uint256"
        }
      ],
      "stateMutability": "view",
      "type": "function"
    },
    {
      "inputs": [
        {
          "internalType": "uint256",
          "name": "",
          "type": "uint256"
        }
      ],
      "name": "tokensPerWeek",
      "outputs": [
        {
          "internalType": "uint256",
          "name": "",
          "type": "uint256"
        }
      ],
      "stateMutability": "view",
      "type": "function"
    },
    {
      "inputs": [
        {
          "internalType": "uint256",
          "name": "",
          "type": "uint256"
        }
      ],
      "name": "userEpochOf",
      "outputs": [
        {
          "internalType": "uint256",
          "name": "",
          "type": "uint256"
        }
      ],
      "stateMutability": "view",
      "type": "function"
    },
    {
      "inputs": [],
      "name": "ve",
      "outputs": [
        {
          "internalType": "contract IVe",
          "name": "",
          "type": "address"
        }
      ],
      "stateMutability": "view",
      "type": "function"
    },
    {
      "inputs": [
        {
          "internalType": "uint256",
          "name": "_tokenId",
          "type": "uint256"
        },
        {
          "internalType": "uint256",
          "name": "_timestamp",
          "type": "uint256"
        }
      ],
      "name": "veForAt",
      "outputs": [
        {
          "internalType": "uint256",
          "name": "",
          "type": "uint256"
        }
      ],
      "stateMutability": "view",
      "type": "function"
    },
    {
      "inputs": [
        {
          "internalType": "uint256",
          "name": "",
          "type": "uint256"
        }
      ],
      "name": "veSupply",
      "outputs": [
        {
          "internalType": "uint256",
          "name": "",
          "type": "uint256"
        }
      ],
      "stateMutability": "view",
      "type": "function"
    }
  ],
  "transactionHash": "0x1e5f6547e83a5132d7c7eef01b09aaef38a93cea4a95ab30f8e734ecf44cc438",
  "args": [],
  "numDeployments": 1,
  "solcInputHash": "b29cd153aaed98a3f3bb92c92603933d",
  "bytecode": "0x60806040523480156200001157600080fd5b506200001c62000022565b620000e3565b600054610100900460ff16156200008f5760405162461bcd60e51b815260206004820152602760248201527f496e697469616c697a61626c653a20636f6e747261637420697320696e697469604482015266616c697a696e6760c81b606482015260840160405180910390fd5b60005460ff90811614620000e1576000805460ff191660ff9081179091556040519081527f7f26b83ff96e1f2b6a682f133852f6798a09c465da95921460cefb38474024989060200160405180910390a15b565b6127f180620000f36000396000f3fe608060405234801561001057600080fd5b50600436106101f75760003560e01c80638f80ed0311610120578063c2c4c5c1116100b8578063dee1f0e41161007c578063dee1f0e4146104d3578063e2eefd25146104e6578063e32890c4146104f9578063f77c47911461051f578063f7c618c11461052757600080fd5b8063c2c4c5c11461044d578063c9e14ed214610455578063cc68792114610468578063d1d58b251461048c578063d471e04e1461049f57600080fd5b80638f80ed031461035a578063925489a8146103b1578063936725ec146103c4578063939ea66b146103f557806398bdfdee146104045780639abd185c146104175780639d0bcca01461042a578063b429afeb14610432578063b80777ea1461044557600080fd5b80634593144c116101935780634593144c146102bf5780634607bf60146102c75780634fac6ccd146102ed57806378e97925146103005780637cc963801461030f5780637eba7ba6146103175780638736659b14610329578063899519be146103385780638ec8468a1461034b57600080fd5b806301ffc9a7146101fc5780630a441f7b146102245780630f6592ef1461023b578063184b95591461024e5780631f85071614610263578063325a19f114610289578063326a940714610291578063379607f5146102995780633935c802146102ac575b600080fd5b61020f61020a36600461218b565b61053a565b60405190151581526020015b60405180910390f35b61022d60025481565b60405190815260200161021b565b61022d6102493660046121b5565b610565565b61026161025c3660046121e3565b610588565b005b60005461027c906201000090046001600160a01b031681565b60405161021b919061222e565b61022d610750565b610261610785565b61022d6102a73660046121b5565b61078f565b61022d6102ba366004612252565b61089a565b61022d61098e565b61022d6102d53660046121b5565b66071afd498d00076020526000908152604090205481565b6102616102fb36600461228d565b6109be565b61022d66071afd498d00065481565b61022d610acc565b61022d6103253660046121b5565b5490565b61022d66071afd498d00035481565b61022d6103463660046121b5565b610aea565b61022d66071afd498d00045481565b61036d610368366004612329565b610b00565b60405161021b9190600060a0820190508251825260208301516020830152604083015160408301526060830151606083015260808301511515608083015292915050565b61020f6103bf3660046123d6565b610d40565b6103e860405180604001604052806005815260200164332e302e3160d81b81525081565b60405161021b91906124a0565b61022d66071afd498d00055481565b61022d6104123660046124d3565b610e61565b61022d610425366004612505565b610eb6565b61027c610ff1565b61020f61044036600461228d565b611021565b61022d611046565b610261611060565b61022d610463366004612527565b6110a6565b6103e8604051806040016040528060058152602001640312e302e360dc1b81525081565b61022d61049a3660046121b5565b61110b565b6104c67fb7b79fa96c6b05833230c71a365e58c01f37ecd85517ea152b4a3ffdb77bebbe81565b60405161021b9190612571565b61020f6104e136600461228d565b61115d565b61022d6104f4366004612586565b6111e2565b61022d6105073660046121b5565b66071afd498d00086020526000908152604090205481565b61027c611337565b60015461027c906001600160a01b031681565b60006001600160e01b0319821663090ff8e960e01b148061055f575061055f82611367565b92915050565b66038d7ea4c680038166038d7ea4c68000811061058157600080fd5b0154905081565b600054610100900460ff16158080156105a85750600054600160ff909116105b806105c25750303b1580156105c2575060005460ff166001145b61062a5760405162461bcd60e51b815260206004820152602e60248201527f496e697469616c697a61626c653a20636f6e747261637420697320616c72656160448201526d191e481a5b9a5d1a585b1a5e995960921b60648201526084015b60405180910390fd5b6000805460ff19166001179055801561064d576000805461ff0019166101001790555b6106568461138c565b61065f826115f5565b610689837f1c4e305e0bae3dfecd9d4d5b42b853e8d0efdb7ff49ff5b3e7e192fd59c5ad05611636565b600062093a8061069981426125c8565b6106a391906125ea565b66071afd498d000681905566071afd498d000581905566071afd498d00035550600180546001600160a01b0319166001600160a01b03848116919091179091556000805462010000600160b01b0319166201000092861692909202919091179055801561074a576000805461ff0019169055604051600181527f7f26b83ff96e1f2b6a682f133852f6798a09c465da95921460cefb38474024989060200160405180910390a15b50505050565b600061078061032560017f6f55f470bdc9cb5f04223fd822021061668e4dccb43e8727b295106dc9769c8b612601565b905090565b61078d611690565b565b6000805466071afd498d000354620100009091046001600160a01b03169042106107bb576107bb611690565b66071afd498d00055462093a806107d281836125c8565b6107dc91906125ea565b905060006107eb858484611815565b90508015610892576040516331a9108f60e11b815260048101869052610874906001600160a01b03851690636352211e906024015b602060405180830381865afa15801561083d573d6000803e3d6000fd5b505050506040513d601f19601f820116820180604052508101906108619190612614565b6001546001600160a01b031690836118b7565b8066071afd498d0004600082825461088c9190612601565b90915550505b949350505050565b60008082815b6080811015610982578183101561098257600060026108bf8486612631565b6108ca906002612631565b6108d491906125c8565b6040516322565a1560e11b8152600481018a9052602481018290529091506000906001600160a01b038b16906344acb42a90604401608060405180830381865afa158015610926573d6000803e3d6000fd5b505050506040513d601f19601f8201168201806040525081019061094a9190612644565b90508781604001511161095f5781945061096d565b61096a600183612601565b93505b5050808061097a9061269b565b9150506108a0565b50909695505050505050565b600061078061032560017f812a673dfca07956350df10f8a654925f561d7a0da09bdbe79e653939a14d9f1612601565b333014610a0d5760405162461bcd60e51b815260206004820152601b60248201527f496e637265617365207265766973696f6e20666f7262696464656e00000000006044820152606401610621565b6000610a2b610325600160008051602061279c833981519152612601565b610a36906001612631565b9050610a5881610a55600160008051602061279c833981519152612601565b55565b610a8782610a5560017fbfaaa2fb63266ff27c2da975f5894955056f50419af651a81f6c5060581857e4612601565b604080518281526001600160a01b03841660208201527ff27e2ef832a4eb8ed8ec553b875eecd44764cda95b1c24170e281539e0a869c8910160405180910390a15050565b6000610780610325600160008051602061279c833981519152612601565b60038166038d7ea4c68000811061058157600080fd5b610b0861215a565b604080516080810182526000808252602082018190529181018290526060810182905290805b6032811015610cf157888a1015610cf15787604001518a10158015610b535750858711155b15610c1957610b63600188612631565b965087925085871115610ba25760405180608001604052806000600f0b81526020016000600f0b81526020016000815260200160008152509750610cdf565b6040516322565a1560e11b8152600481018c9052602481018890526001600160a01b038616906344acb42a90604401608060405180830381865afa158015610bee573d6000803e3d6000fd5b505050506040513d601f19601f82011682018060405250810190610c129190612644565b9750610cdf565b600083604001518b610c2b9190612601565b90506000610c53856020015183610c4291906126b4565b8651610c4e91906126db565b61190e565b600f0b905080158015610c6557508789115b15610c71575050610cf1565b66038d7ea4c680038c66038d7ea4c680008110610c9057610c90612708565b015460038d66038d7ea4c680008110610cab57610cab612708565b0154610cb790836125ea565b610cc191906125c8565b610ccb9085612631565b9350610cda62093a808d612631565b9b5050505b80610ce98161269b565b915050610b2e565b506040518060a00160405280828152602001610d198760018a610d149190612601565b611928565b81526020018a81526020018681526020016001151581525092505050979650505050505050565b600066071afd498d0003544210610d5957610d59611690565b66071afd498d00055462093a80610d7081836125c8565b610d7a91906125ea565b60008054919250620100009091046001600160a01b031690805b8551811015610e31576000868281518110610db157610db1612708565b6020026020010151905080600003610dc95750610e31565b6000610dd6828688611815565b90508015610e1c576040516331a9108f60e11b815260048101839052610e0f906001600160a01b03871690636352211e90602401610820565b610e198185612631565b93505b50508080610e299061269b565b915050610d94565b508015610e56578066071afd498d00046000828254610e509190612601565b90915550505b506001949350505050565b60008284111580610e795750610e778385612601565b155b80610e82575081155b15610e8e575083610892565b81610e998486612601565b610ea390876125ea565b610ead91906125c8565b95945050505050565b6000805460405163e58f594760e01b815260048101859052620100009091046001600160a01b0316908290829063e58f594790602401602060405180830381865afa158015610f09573d6000803e3d6000fd5b505050506040513d601f19601f82011682018060405250810190610f2d919061271e565b90506000610f3d8387878561089a565b6040516322565a1560e11b815260048101889052602481018290529091506000906001600160a01b038516906344acb42a90604401608060405180830381865afa158015610f8f573d6000803e3d6000fd5b505050506040513d601f19601f82011682018060405250810190610fb39190612644565b9050610fe3816040015187610fc89190612601565b8260200151610fd791906126b4565b8251610c4e91906126db565b600f0b979650505050505050565b600061078061032560017fbfaaa2fb63266ff27c2da975f5894955056f50419af651a81f6c5060581857e4612601565b600061102b611337565b6001600160a01b0316826001600160a01b0316149050919050565b600062093a8061105681426125c8565b61078091906125ea565b6002546110708162093a80612631565b42106110a35761108362093a80426125c8565b6110909062093a806125ea565b60025561109b61193e565b6110a3611690565b50565b6000838510156110b857506000610892565b60006110c48587612601565b90506110d081846126b4565b600f0b84600f0b12156110e7576000915050610892565b6110fe6110f482856126b4565b610c4e90866126db565b600f0b9695505050505050565b60008062093a808066071afd498d00055461112691906125c8565b61113091906125ea565b9050600061115484600060029054906101000a90046001600160a01b031684611b0c565b51949350505050565b6000816001600160a01b0316611171611337565b6001600160a01b0316635aa6e6756040518163ffffffff1660e01b8152600401602060405180830381865afa1580156111ae573d6000803e3d6000fd5b505050506040513d601f19601f820116820180604052508101906111d29190612614565b6001600160a01b03161492915050565b600080600090506000846001600160a01b031663900cf0cf6040518163ffffffff1660e01b8152600401602060405180830381865afa158015611229573d6000803e3d6000fd5b505050506040513d601f19601f8201168201806040525081019061124d919061271e565b905060005b608081101561132d578183101561132d57600060026112718486612631565b61127c906002612631565b61128691906125c8565b604051638ad4c44760e01b8152600481018290529091506000906001600160a01b03891690638ad4c44790602401608060405180830381865afa1580156112d1573d6000803e3d6000fd5b505050506040513d601f19601f820116820180604052508101906112f59190612644565b90508681604001511161130a57819450611318565b611315600183612601565b93505b505080806113259061269b565b915050611252565b5090949350505050565b600061078061032560017f5165972ef41194f06c5007493031d0b927c20741adcb74403b954009fd2c3618612601565b60006001600160e01b0319821663c19fa56160e01b148061055f575061055f82611d4d565b600054610100900460ff166113f75760405162461bcd60e51b815260206004820152602b60248201527f496e697469616c697a61626c653a20636f6e7472616374206973206e6f74206960448201526a6e697469616c697a696e6760a81b6064820152608401610621565b6001600160a01b03811661143f5760405162461bcd60e51b815260206004820152600f60248201526e2d32b9379031b7b73a3937b63632b960891b6044820152606401610621565b611469817f4c2403fdcb3cff9b705d96bf0705858e3390412670a62c8bcba611ca7e20ab86611636565b60006001600160a01b0316816001600160a01b0316635aa6e6756040518163ffffffff1660e01b8152600401602060405180830381865afa1580156114b2573d6000803e3d6000fd5b505050506040513d601f19601f820116820180604052508101906114d69190612614565b6001600160a01b03160361151e5760405162461bcd60e51b815260206004820152600f60248201526e5a65726f20676f7665726e616e636560881b6044820152606401610621565b61154d81610a5560017f5165972ef41194f06c5007493031d0b927c20741adcb74403b954009fd2c3618612601565b61157c42610a5560017f6f55f470bdc9cb5f04223fd822021061668e4dccb43e8727b295106dc9769c8b612601565b6115ab43610a5560017f812a673dfca07956350df10f8a654925f561d7a0da09bdbe79e653939a14d9f1612601565b604080516001600160a01b0383168152426020820152438183015290517f1a2dd071001ebf6e03174e3df5b305795a4ad5d41d8fdb9ba41dbbe2367134269181900360600190a150565b6115fe81611d82565b6110a35760405162461bcd60e51b815260206004820152600960248201526804e6f742045524332360bc1b6044820152606401610621565b6116408282611ea8565b61168c5760405162461bcd60e51b815260206004820152601a60248201527f496e74657266616365206973206e6f7420737570706f727465640000000000006044820152606401610621565b5050565b6000805466071afd498d000354620100009091046001600160a01b03169162093a806116bc81426125c8565b6116c691906125ea565b9050826001600160a01b031663c2c4c5c16040518163ffffffff1660e01b8152600401600060405180830381600087803b15801561170357600080fd5b505af1158015611717573d6000803e3d6000fd5b5050505060005b60148110156118075781831161180757600061173a85856111e2565b604051638ad4c44760e01b8152600481018290529091506000906001600160a01b03871690638ad4c44790602401608060405180830381865afa158015611785573d6000803e3d6000fd5b505050506040513d601f19601f820116820180604052508101906117a99190612644565b90506117c3858260400151836000015184602001516110a6565b66038d7ea4c680038666038d7ea4c6800081106117e2576117e2612708565b015550506117f362093a8084612631565b9250806117ff8161269b565b91505061171e565b505066071afd498d00035550565b600080611823858585611b0c565b90508060800151156118ac5760208181018051600088815266071afd498d000884526040808220929092558185015166071afd498d0007855290829020558351915160608086015183518b815295860194909452918401528201527fcae2990aa9af8eb1c64713b7eddb3a80bf18e49a94a13fe0d0002b5d61d58f009060800160405180910390a15b5190505b9392505050565b604080516001600160a01b038416602482015260448082018490528251808303909101815260649091019091526020810180516001600160e01b031663a9059cbb60e01b179052611909908490611f62565b505050565b60008082600f0b12611920578161055f565b600092915050565b600081831061193757816118b0565b5090919050565b6001546040516370a0823160e01b81526000916001600160a01b0316906370a082319061196f90309060040161222e565b602060405180830381865afa15801561198c573d6000803e3d6000fd5b505050506040513d601f19601f820116820180604052508101906119b0919061271e565b9050600066071afd498d000454826119c89190612601565b66071afd498d000483905566071afd498d00055490915060006119eb8242612601565b4266071afd498d0005559050600062093a80611a0781856125c8565b611a1191906125ea565b90506000805b6014811015611aca57611a2d62093a8084612631565b915081421015611a7757611a4386428787610e61565b60038466038d7ea4c680008110611a5c57611a5c612708565b016000828254611a6c9190612631565b90915550611aca9050565b611a8386838787610e61565b60038466038d7ea4c680008110611a9c57611a9c612708565b016000828254611aac9190612631565b90915550508194508192508080611ac29061269b565b915050611a17565b5060408051428152602081018790527fce749457b74e10f393f2c6b1ce4261b78791376db5a3f501477a809f03f500d6910160405180910390a1505050505050565b611b1461215a565b60405163e58f594760e01b81526004810185905260009081906001600160a01b0386169063e58f594790602401602060405180830381865afa158015611b5e573d6000803e3d6000fd5b505050506040513d601f19601f82011682018060405250810190611b82919061271e565b66071afd498d0006549091506000829003611bcf576040518060a00160405280600081526020016000815260200160008152602001600081526020016000151581525093505050506118b0565b600087815266071afd498d0007602052604081205490819003611bff57611bf88789848661089a565b9350611c17565b600088815266071afd498d0008602052604090205493505b83600003611c2457600193505b6040516322565a1560e11b815260048101899052602481018590526000906001600160a01b038916906344acb42a90604401608060405180830381865afa158015611c73573d6000803e3d6000fd5b505050506040513d601f19601f82011682018060405250810190611c979190612644565b905081600003611cdc5762093a8080600162093a808460400151611cbb9190612631565b611cc59190612601565b611ccf91906125c8565b611cd991906125ea565b91505b66071afd498d0005548210611d25576040518060a001604052806000815260200160008152602001600081526020016000815260200160001515815250955050505050506118b0565b82821015611d31578291505b611d408983898489898e610b00565b9998505050505050505050565b60006001600160e01b0319821663b7b79fa960e01b148061055f57506301ffc9a760e01b6001600160e01b031983161461055f565b60006001600160a01b038216611daa5760405162461bcd60e51b815260040161062190612737565b813b6000819003611dbe5750600092915050565b6000836001600160a01b03166318160ddd6040518163ffffffff1660e01b8152600401602060405180830381865afa925050508015611e1a575060408051601f3d908101601f19168201909252611e179181019061271e565b60015b15611e255760019150505b6040516370a0823160e01b81526000906001600160a01b038616906370a0823190611e5490309060040161222e565b602060405180830381865afa925050508015611e8d575060408051601f3d908101601f19168201909252611e8a9181019061271e565b60015b15611e985760019150505b818015610ead5750949350505050565b60006001600160a01b038316611ed05760405162461bcd60e51b815260040161062190612737565b823b6000819003611ee557600091505061055f565b6040516301ffc9a760e01b81526001600160a01b038516906301ffc9a790611f11908690600401612571565b602060405180830381865afa925050508015611f4a575060408051601f3d908101601f19168201909252611f479181019061275d565b60015b15611f5857915061055f9050565b5060009392505050565b6000611fb7826040518060400160405280602081526020017f5361666545524332303a206c6f772d6c6576656c2063616c6c206661696c6564815250856001600160a01b03166120379092919063ffffffff16565b9050805160001480611fd8575080806020019051810190611fd8919061275d565b6119095760405162461bcd60e51b815260206004820152602a60248201527f5361666545524332303a204552433230206f7065726174696f6e20646964206e6044820152691bdd081cdd58d8d9595960b21b6064820152608401610621565b6060610892848460008585600080866001600160a01b0316858760405161205e919061277f565b60006040518083038185875af1925050503d806000811461209b576040519150601f19603f3d011682016040523d82523d6000602084013e6120a0565b606091505b50915091506120b1878383876120bc565b979650505050505050565b6060831561212b578251600003612124576001600160a01b0385163b6121245760405162461bcd60e51b815260206004820152601d60248201527f416464726573733a2063616c6c20746f206e6f6e2d636f6e74726163740000006044820152606401610621565b5081610892565b61089283838151156121405781518083602001fd5b8060405162461bcd60e51b815260040161062191906124a0565b6040518060a00160405280600081526020016000815260200160008152602001600081526020016000151581525090565b60006020828403121561219d57600080fd5b81356001600160e01b0319811681146118b057600080fd5b6000602082840312156121c757600080fd5b5035919050565b6001600160a01b03811681146110a357600080fd5b6000806000606084860312156121f857600080fd5b8335612203816121ce565b92506020840135612213816121ce565b91506040840135612223816121ce565b809150509250925092565b6001600160a01b0391909116815260200190565b803561224d816121ce565b919050565b6000806000806080858703121561226857600080fd5b8435612273816121ce565b966020860135965060408601359560600135945092505050565b60006020828403121561229f57600080fd5b81356118b0816121ce565b634e487b7160e01b600052604160045260246000fd5b6040516080810167ffffffffffffffff811182821017156122e3576122e36122aa565b60405290565b604051601f8201601f1916810167ffffffffffffffff81118282101715612312576123126122aa565b604052919050565b80600f0b81146110a357600080fd5b600080600080600080600087890361014081121561234657600080fd5b8835975060208901359650604089013595506080605f198201121561236a57600080fd5b506123736122c0565b60608901356123818161231a565b815260808901356123918161231a565b602082015260a0890135604082015260c08901356060820152935060e0880135925061010088013591506123c86101208901612242565b905092959891949750929550565b600060208083850312156123e957600080fd5b823567ffffffffffffffff8082111561240157600080fd5b818501915085601f83011261241557600080fd5b813581811115612427576124276122aa565b8060051b91506124388483016122e9565b818152918301840191848101908884111561245257600080fd5b938501935b8385101561247057843582529385019390850190612457565b98975050505050505050565b60005b8381101561249757818101518382015260200161247f565b50506000910152565b60208152600082518060208401526124bf81604085016020870161247c565b601f01601f19169190910160400192915050565b600080600080608085870312156124e957600080fd5b5050823594602084013594506040840135936060013592509050565b6000806040838503121561251857600080fd5b50508035926020909101359150565b6000806000806080858703121561253d57600080fd5b843593506020850135925060408501356125568161231a565b915060608501356125668161231a565b939692955090935050565b6001600160e01b031991909116815260200190565b6000806040838503121561259957600080fd5b82356125a4816121ce565b946020939093013593505050565b634e487b7160e01b600052601160045260246000fd5b6000826125e557634e487b7160e01b600052601260045260246000fd5b500490565b808202811582820484141761055f5761055f6125b2565b8181038181111561055f5761055f6125b2565b60006020828403121561262657600080fd5b81516118b0816121ce565b8082018082111561055f5761055f6125b2565b60006080828403121561265657600080fd5b61265e6122c0565b82516126698161231a565b815260208301516126798161231a565b6020820152604083810151908201526060928301519281019290925250919050565b6000600182016126ad576126ad6125b2565b5060010190565b600082600f0b82600f0b0280600f0b91508082146126d4576126d46125b2565b5092915050565b600f82810b9082900b0360016001607f1b0319811260016001607f1b038213171561055f5761055f6125b2565b634e487b7160e01b600052603260045260246000fd5b60006020828403121561273057600080fd5b5051919050565b6020808252600c908201526b5a65726f206164647265737360a01b604082015260600190565b60006020828403121561276f57600080fd5b815180151581146118b057600080fd5b6000825161279181846020870161247c565b919091019291505056fe22573091f17911fb166032a3d9e0554aa73d31b7b7ddea4a4dd2995650af84bda264697066735822122071d2657e8fd64a371ab4ca7511e1cf9997c87a33a6d354e5bd1a2af1aea3bf6e64736f6c63430008130033",
  "devdoc": {
    "author": "belbix",
    "events": {
      "Initialized(uint8)": {
        "details": "Triggered when the contract has been initialized or reinitialized."
      }
    },
    "kind": "dev",
    "methods": {
      "adjustToDistribute(uint256,uint256,uint256,uint256)": {
        "details": "Adjust value based on time since last update"
      },
      "adjustVeSupply(uint256,uint256,int128,int128)": {
        "details": "Calculate ve supply based on bias and slop for the given timestamp"
      },
      "checkpointTotalSupply()": {
        "details": "Call ve checkpoint and write veSupply at the current timeCursor"
      },
      "claim(uint256)": {
        "details": "Claim rewards for given veID"
      },
      "claimMany(uint256[])": {
        "details": "Claim rewards for given veIDs"
      },
      "claimable(uint256)": {
        "details": "Return available to claim earned amount"
      },
      "created()": {
        "returns": {
          "_0": "Creation timestamp"
        }
      },
      "createdBlock()": {
        "returns": {
          "_0": "Creation block number"
        }
      },
      "findTimestampEpoch(address,uint256)": {
        "details": "Search in the loop given timestamp through ve points history.      Return minimal possible epoch."
      },
      "findTimestampUserEpoch(address,uint256,uint256,uint256)": {
        "details": "Search in the loop given timestamp through ve user points history.      Return minimal possible epoch."
      },
      "getSlot(uint256)": {
        "details": "Gets a slot as bytes32"
      },
      "increaseRevision(address)": {
        "details": "Revision should be increased on each contract upgrade"
      },
      "init(address,address,address)": {
        "details": "Proxy initialization. Call it after contract deploy."
      },
      "isController(address)": {
        "details": "Return true if given address is controller"
      },
      "previousImplementation()": {
        "details": "Previous logic implementation"
      },
      "revision()": {
        "details": "Contract upgrade counter"
      },
      "supportsInterface(bytes4)": {
        "details": "See {IERC165-supportsInterface}."
      },
      "timestamp()": {
        "details": "Block timestamp rounded to weeks"
      },
      "veForAt(uint256,uint256)": {
        "details": "Return ve power at given timestamp"
      }
    },
    "stateVariables": {
      "VE_DIST_VERSION": {
        "details": "Version of this contract. Adjust manually on each code modification."
      },
      "activePeriod": {
        "details": "Cursor for the current epoch"
      },
      "lastTokenTime": {
        "details": "Last checkpoint time"
      },
      "rewardToken": {
        "details": "Token for ve rewards"
      },
      "startTime": {
        "details": "Timestamp when this contract was inited"
      },
      "timeCursor": {
        "details": "Ve supply checkpoint time cursor"
      },
      "timeCursorOf": {
        "details": "veID => week cursor stored on the claim action"
      },
      "tokenLastBalance": {
        "details": "Token balance updated on checkpoint/claim"
      },
      "tokensPerWeek": {
        "details": "Tokens per week stored on checkpoint call. Predefined array size = max weeks size"
      },
      "userEpochOf": {
        "details": "veID => epoch stored on the claim action"
      },
      "ve": {
        "details": "Voting escrow token address"
      },
      "veSupply": {
        "details": "Ve supply checkpoints. Predefined array size = max weeks size"
      }
    },
    "title": "Contract for distributing rewards to ve holders.        Rewards will be staked to the veNFT without extending lock period.        Based on Solidly contract.",
    "version": 1
  },
  "userdoc": {
    "kind": "user",
    "methods": {
      "CONTROLLABLE_VERSION()": {
        "notice": "Version of the contract"
      },
      "controller()": {
        "notice": "Return controller address saved in the contract slot"
      },
      "created()": {
        "notice": "Return creation timestamp"
      },
      "createdBlock()": {
        "notice": "Return creation block number"
      },
      "isGovernance(address)": {
        "notice": "Return true if given address is setup as governance in Controller"
      }
    },
    "version": 1
  },
  "storageLayout": {
    "storage": [
      {
        "astId": 6,
        "contract": "contracts/VeDistributor.sol:VeDistributor",
        "label": "_initialized",
        "offset": 0,
        "slot": "0",
        "type": "t_uint8"
      },
      {
        "astId": 9,
        "contract": "contracts/VeDistributor.sol:VeDistributor",
        "label": "_initializing",
        "offset": 1,
        "slot": "0",
        "type": "t_bool"
      },
      {
        "astId": 24373,
        "contract": "contracts/VeDistributor.sol:VeDistributor",
        "label": "ve",
        "offset": 2,
        "slot": "0",
        "type": "t_contract(IVe)29471"
      },
      {
        "astId": 24377,
        "contract": "contracts/VeDistributor.sol:VeDistributor",
        "label": "rewardToken",
        "offset": 0,
        "slot": "1",
        "type": "t_address"
      },
      {
        "astId": 24380,
        "contract": "contracts/VeDistributor.sol:VeDistributor",
        "label": "activePeriod",
        "offset": 0,
        "slot": "2",
        "type": "t_uint256"
      },
      {
        "astId": 24385,
        "contract": "contracts/VeDistributor.sol:VeDistributor",
        "label": "tokensPerWeek",
        "offset": 0,
        "slot": "3",
        "type": "t_array(t_uint256)1000000000000000_storage"
      },
      {
        "astId": 24390,
        "contract": "contracts/VeDistributor.sol:VeDistributor",
        "label": "veSupply",
        "offset": 0,
        "slot": "1000000000000003",
        "type": "t_array(t_uint256)1000000000000000_storage"
      },
      {
        "astId": 24393,
        "contract": "contracts/VeDistributor.sol:VeDistributor",
        "label": "timeCursor",
        "offset": 0,
        "slot": "2000000000000003",
        "type": "t_uint256"
      },
      {
        "astId": 24396,
        "contract": "contracts/VeDistributor.sol:VeDistributor",
        "label": "tokenLastBalance",
        "offset": 0,
        "slot": "2000000000000004",
        "type": "t_uint256"
      },
      {
        "astId": 24399,
        "contract": "contracts/VeDistributor.sol:VeDistributor",
        "label": "lastTokenTime",
        "offset": 0,
        "slot": "2000000000000005",
        "type": "t_uint256"
      },
      {
        "astId": 24402,
        "contract": "contracts/VeDistributor.sol:VeDistributor",
        "label": "startTime",
        "offset": 0,
        "slot": "2000000000000006",
        "type": "t_uint256"
      },
      {
        "astId": 24407,
        "contract": "contracts/VeDistributor.sol:VeDistributor",
        "label": "timeCursorOf",
        "offset": 0,
        "slot": "2000000000000007",
        "type": "t_mapping(t_uint256,t_uint256)"
      },
      {
        "astId": 24412,
        "contract": "contracts/VeDistributor.sol:VeDistributor",
        "label": "userEpochOf",
        "offset": 0,
        "slot": "2000000000000008",
        "type": "t_mapping(t_uint256,t_uint256)"
      }
    ],
    "types": {
      "t_address": {
        "encoding": "inplace",
        "label": "address",
        "numberOfBytes": "20"
      },
      "t_array(t_uint256)1000000000000000_storage": {
        "base": "t_uint256",
        "encoding": "inplace",
        "label": "uint256[1000000000000000]",
        "numberOfBytes": "32000000000000000"
      },
      "t_bool": {
        "encoding": "inplace",
        "label": "bool",
        "numberOfBytes": "1"
      },
      "t_contract(IVe)29471": {
        "encoding": "inplace",
        "label": "contract IVe",
        "numberOfBytes": "20"
      },
      "t_mapping(t_uint256,t_uint256)": {
        "encoding": "mapping",
        "key": "t_uint256",
        "label": "mapping(uint256 => uint256)",
        "numberOfBytes": "32",
        "value": "t_uint256"
      },
      "t_uint256": {
        "encoding": "inplace",
        "label": "uint256",
        "numberOfBytes": "32"
      },
      "t_uint8": {
        "encoding": "inplace",
        "label": "uint8",
        "numberOfBytes": "1"
      }
    }
  }
}