{
  "address": "0x4A38a264c26cA27FB1cca3cBfEC56067a3404BB7",
  "abi": [
    {
      "anonymous": false,
      "inputs": [
        {
          "indexed": false,
          "internalType": "address",
          "name": "_newActivePoolAddress",
          "type": "address"
        }
      ],
      "name": "ActivePoolAddressChanged",
      "type": "event"
    },
    {
      "anonymous": false,
      "inputs": [
        {
          "indexed": false,
          "internalType": "uint256",
          "name": "_SIMDebt",
          "type": "uint256"
        }
      ],
      "name": "ActivePoolSIMDebtUpdated",
      "type": "event"
    },
    {
      "anonymous": false,
      "inputs": [
        {
          "indexed": false,
          "internalType": "uint256",
          "name": "_WSTETH",
          "type": "uint256"
        }
      ],
      "name": "ActivePoolWSTETHBalanceUpdated",
      "type": "event"
    },
    {
      "anonymous": false,
      "inputs": [
        {
          "indexed": false,
          "internalType": "address",
          "name": "_newBorrowerOperationsAddress",
          "type": "address"
        }
      ],
      "name": "BorrowerOperationsAddressChanged",
      "type": "event"
    },
    {
      "anonymous": false,
      "inputs": [
        {
          "indexed": false,
          "internalType": "address",
          "name": "_newDefaultPoolAddress",
          "type": "address"
        }
      ],
      "name": "DefaultPoolAddressChanged",
      "type": "event"
    },
    {
      "anonymous": false,
      "inputs": [
        {
          "indexed": false,
          "internalType": "address",
          "name": "_to",
          "type": "address"
        },
        {
          "indexed": false,
          "internalType": "uint256",
          "name": "_amount",
          "type": "uint256"
        }
      ],
      "name": "EtherSent",
      "type": "event"
    },
    {
      "anonymous": false,
      "inputs": [
        {
          "indexed": true,
          "internalType": "address",
          "name": "previousOwner",
          "type": "address"
        },
        {
          "indexed": true,
          "internalType": "address",
          "name": "newOwner",
          "type": "address"
        }
      ],
      "name": "OwnershipTransferred",
      "type": "event"
    },
    {
      "anonymous": false,
      "inputs": [
        {
          "indexed": false,
          "internalType": "uint256",
          "name": "_newBalance",
          "type": "uint256"
        }
      ],
      "name": "SIMBalanceUpdated",
      "type": "event"
    },
    {
      "anonymous": false,
      "inputs": [
        {
          "indexed": false,
          "internalType": "address",
          "name": "_newStabilityPoolAddress",
          "type": "address"
        }
      ],
      "name": "StabilityPoolAddressChanged",
      "type": "event"
    },
    {
      "anonymous": false,
      "inputs": [
        {
          "indexed": false,
          "internalType": "address",
          "name": "_newTroveManagerAddress",
          "type": "address"
        }
      ],
      "name": "TroveManagerAddressChanged",
      "type": "event"
    },
    {
      "anonymous": false,
      "inputs": [
        {
          "indexed": false,
          "internalType": "address",
          "name": "_newWSTETHAddress",
          "type": "address"
        }
      ],
      "name": "WSTETHAddressChanged",
      "type": "event"
    },
    {
      "anonymous": false,
      "inputs": [
        {
          "indexed": false,
          "internalType": "uint256",
          "name": "_newBalance",
          "type": "uint256"
        }
      ],
      "name": "WSTETHBalanceUpdated",
      "type": "event"
    },
    {
      "inputs": [],
      "name": "NAME",
      "outputs": [
        {
          "internalType": "string",
          "name": "",
          "type": "string"
        }
      ],
      "stateMutability": "view",
      "type": "function"
    },
    {
      "inputs": [],
      "name": "WSTETHAddress",
      "outputs": [
        {
          "internalType": "address",
          "name": "",
          "type": "address"
        }
      ],
      "stateMutability": "view",
      "type": "function"
    },
    {
      "inputs": [],
      "name": "borrowerOperationsAddress",
      "outputs": [
        {
          "internalType": "address",
          "name": "",
          "type": "address"
        }
      ],
      "stateMutability": "view",
      "type": "function"
    },
    {
      "inputs": [],
      "name": "collSurplusPoolAddress",
      "outputs": [
        {
          "internalType": "address",
          "name": "",
          "type": "address"
        }
      ],
      "stateMutability": "view",
      "type": "function"
    },
    {
      "inputs": [
        {
          "internalType": "uint256",
          "name": "_amount",
          "type": "uint256"
        }
      ],
      "name": "decreaseSIMDebt",
      "outputs": [],
      "stateMutability": "nonpayable",
      "type": "function"
    },
    {
      "inputs": [],
      "name": "defaultPoolAddress",
      "outputs": [
        {
          "internalType": "address",
          "name": "",
          "type": "address"
        }
      ],
      "stateMutability": "view",
      "type": "function"
    },
    {
      "inputs": [],
      "name": "getSIMDebt",
      "outputs": [
        {
          "internalType": "uint256",
          "name": "",
          "type": "uint256"
        }
      ],
      "stateMutability": "view",
      "type": "function"
    },
    {
      "inputs": [],
      "name": "getWSTETH",
      "outputs": [
        {
          "internalType": "uint256",
          "name": "",
          "type": "uint256"
        }
      ],
      "stateMutability": "view",
      "type": "function"
    },
    {
      "inputs": [
        {
          "internalType": "uint256",
          "name": "_amount",
          "type": "uint256"
        }
      ],
      "name": "increaseSIMDebt",
      "outputs": [],
      "stateMutability": "nonpayable",
      "type": "function"
    },
    {
      "inputs": [],
      "name": "owner",
      "outputs": [
        {
          "internalType": "address",
          "name": "",
          "type": "address"
        }
      ],
      "stateMutability": "view",
      "type": "function"
    },
    {
      "inputs": [
        {
          "internalType": "uint256",
          "name": "amount",
          "type": "uint256"
        }
      ],
      "name": "receiveWSTETH",
      "outputs": [],
      "stateMutability": "nonpayable",
      "type": "function"
    },
    {
      "inputs": [],
      "name": "renounceOwnership",
      "outputs": [],
      "stateMutability": "nonpayable",
      "type": "function"
    },
    {
      "inputs": [
        {
          "internalType": "address",
          "name": "_account",
          "type": "address"
        },
        {
          "internalType": "uint256",
          "name": "_amount",
          "type": "uint256"
        }
      ],
      "name": "sendWSTETH",
      "outputs": [],
      "stateMutability": "nonpayable",
      "type": "function"
    },
    {
      "inputs": [
        {
          "internalType": "address",
          "name": "_WSTETHAddress",
          "type": "address"
        },
        {
          "internalType": "address",
          "name": "_borrowerOperationsAddress",
          "type": "address"
        },
        {
          "internalType": "address",
          "name": "_troveManagerAddress",
          "type": "address"
        },
        {
          "internalType": "address",
          "name": "_stabilityPoolAddress",
          "type": "address"
        },
        {
          "internalType": "address",
          "name": "_defaultPoolAddress",
          "type": "address"
        },
        {
          "internalType": "address",
          "name": "_collSurplusPoolAddress",
          "type": "address"
        }
      ],
      "name": "setAddresses",
      "outputs": [],
      "stateMutability": "nonpayable",
      "type": "function"
    },
    {
      "inputs": [],
      "name": "stabilityPoolAddress",
      "outputs": [
        {
          "internalType": "address",
          "name": "",
          "type": "address"
        }
      ],
      "stateMutability": "view",
      "type": "function"
    },
    {
      "inputs": [
        {
          "internalType": "address",
          "name": "newOwner",
          "type": "address"
        }
      ],
      "name": "transferOwnership",
      "outputs": [],
      "stateMutability": "nonpayable",
      "type": "function"
    },
    {
      "inputs": [],
      "name": "troveManagerAddress",
      "outputs": [
        {
          "internalType": "address",
          "name": "",
          "type": "address"
        }
      ],
      "stateMutability": "view",
      "type": "function"
    }
  ],
  "transactionHash": "0xae82ed22e2206a0b3c054685c9063b02240e15adfd1abd0f1ca891da783ae108",
  "args": [],
  "numDeployments": 1,
  "solcInputHash": "66a0f7be4f01c27a4eec5bc8ef6aeaa8",
  "bytecode": "0x608060405234801561001057600080fd5b5061001a3361001f565b61006f565b600080546001600160a01b038381166001600160a01b0319831681178455604051919092169283917f8be0079c531659141344cd1fd0a4f28419497f9722a3daafe3b4186f6b6457e09190a35050565b610cf88061007e6000396000f3fe608060405234801561001057600080fd5b50600436106100eb5760003560e01c8063864069e411610092578063864069e4146101955780638da5cb5b146101a7578063a3f4df7e146101b8578063aac1846f146101ee578063b7f8cf9b14610201578063c7662fa514610214578063d5c37ac01461021c578063dbb0c61a1461022f578063f2fde38b1461024257600080fd5b80630b622ab2146100f05780632a9043ec146101195780635617c5c71461012c5780635a4d28bb1461013f5780636bfc0b79146101525780636cfb6bf914610167578063707cf39f1461017a578063715018a61461018d575b600080fd5b600454610103906001600160a01b031681565b6040516101109190610b07565b60405180910390f35b600654610103906001600160a01b031681565b600154610103906001600160a01b031681565b600354610103906001600160a01b031681565b610165610160366004610b1b565b610255565b005b610165610175366004610b50565b6102a7565b610165610188366004610b1b565b61046b565b610165610481565b6007545b604051908152602001610110565b6000546001600160a01b0316610103565b6101e16040518060400160405280600a8152602001691058dd1a5d99541bdbdb60b21b81525081565b6040516101109190610bc4565b600554610103906001600160a01b031681565b600254610103906001600160a01b031681565b600854610199565b61016561022a366004610c12565b610495565b61016561023d366004610b1b565b610701565b610165610250366004610c3c565b61074c565b61025d6107ca565b8060085461026b9190610c74565b60088190556040519081527fcf001b551a0259431a03e514d4517ad4351940fbf1408b5bbc06d7d73800d94d906020015b60405180910390a150565b6102af610890565b6102b8866108ea565b6102c1856108ea565b6102ca846108ea565b6102d3836108ea565b6102dc826108ea565b6102e5816108ea565b600180546001600160a01b03199081166001600160a01b0389811691909117909255600280548216888416179055600380548216878416179055600480548216868416179055600580548216858416179055600680549091169183169190911790556040517f93f162485267c0964263151ca9faf9640ba9e5587e78253262023562891b2d7590610377908890610b07565b60405180910390a17f3ca631ffcd2a9b5d9ae18543fc82f58eb4ca33af9e6ab01b7a8e95331e6ed985856040516103ae9190610b07565b60405180910390a17f143219c9e69b09e07e095fcc889b43d8f46ca892bba65f08dc3a0050869a5678846040516103e59190610b07565b60405180910390a17f82966d27eea39b038ee0fa30cd16532bb24f6e65d31cb58fb227aa5766cdcc7f8360405161041c9190610b07565b60405180910390a17f5ee0cae2f063ed938bb55046f6a932fb6ae792bf43624806bb90abe68a50be9b826040516104539190610b07565b60405180910390a1610463610481565b505050505050565b61047361098f565b8060085461026b9190610c8d565b610489610890565b6104936000610a2e565b565b61049d6107ca565b806007546104ab9190610c74565b60078190556040519081527fad43b1d82d90e6bdb02a7f83cc91209c520c7757e4a6a3cc33a789f37c8925af9060200160405180910390a1604080516001600160a01b0384168152602081018390527f6109e2559dfa766aaec7118351d48a523f0a4157f49c8d68749c8ac41318ad12910160405180910390a160015460405163a9059cbb60e01b81526001600160a01b038481166004830152602482018490529091169063a9059cbb906044016020604051808303816000875af1158015610578573d6000803e3d6000fd5b505050506040513d601f19601f8201168201806040525081019061059c9190610ca0565b6105a557600080fd5b6005546001600160a01b039081169083160361061a57600554604051636dd8630d60e11b8152600481018390526001600160a01b039091169063dbb0c61a90602401600060405180830381600087803b15801561060157600080fd5b505af1158015610615573d6000803e3d6000fd5b505050505b6004546001600160a01b039081169083160361068d5760048054604051636dd8630d60e11b81529182018390526001600160a01b03169063dbb0c61a90602401600060405180830381600087803b15801561067457600080fd5b505af1158015610688573d6000803e3d6000fd5b505050505b6006546001600160a01b03908116908316036106fd57600654604051636dd8630d60e11b8152600481018390526001600160a01b039091169063dbb0c61a90602401600060405180830381600087803b1580156106e957600080fd5b505af1158015610463573d6000803e3d6000fd5b5050565b610709610a7e565b806007546107179190610c8d565b60078190556040519081527fad43b1d82d90e6bdb02a7f83cc91209c520c7757e4a6a3cc33a789f37c8925af9060200161029c565b610754610890565b6001600160a01b0381166107be5760405162461bcd60e51b815260206004820152602660248201527f4f776e61626c653a206e6577206f776e657220697320746865207a65726f206160448201526564647265737360d01b60648201526084015b60405180910390fd5b6107c781610a2e565b50565b6002546001600160a01b03163314806107ed57506003546001600160a01b031633145b8061080257506004546001600160a01b031633145b6104935760405162461bcd60e51b815260206004820152605360248201527f416374697665506f6f6c3a2043616c6c6572206973206e65697468657220426f60448201527f72726f7765724f7065726174696f6e73206e6f722054726f76654d616e6167656064820152721c881b9bdc8814dd18589a5b1a5d1e541bdbdb606a1b608482015260a4016107b5565b6000546001600160a01b031633146104935760405162461bcd60e51b815260206004820181905260248201527f4f776e61626c653a2063616c6c6572206973206e6f7420746865206f776e657260448201526064016107b5565b6001600160a01b0381166109405760405162461bcd60e51b815260206004820152601e60248201527f4163636f756e742063616e6e6f74206265207a65726f2061646472657373000060448201526064016107b5565b803b806106fd5760405162461bcd60e51b815260206004820181905260248201527f4163636f756e7420636f64652073697a652063616e6e6f74206265207a65726f60448201526064016107b5565b6002546001600160a01b03163314806109b257506003546001600160a01b031633145b6104935760405162461bcd60e51b815260206004820152604160248201527f416374697665506f6f6c3a2043616c6c6572206973206e65697468657220426f60448201527f72726f7765724f7065726174696f6e73206e6f722054726f76654d616e6167656064820152603960f91b608482015260a4016107b5565b600080546001600160a01b038381166001600160a01b0319831681178455604051919092169283917f8be0079c531659141344cd1fd0a4f28419497f9722a3daafe3b4186f6b6457e09190a35050565b6002546001600160a01b0316331480610aa157506005546001600160a01b031633145b6104935760405162461bcd60e51b815260206004820152603160248201527f416374697665506f6f6c3a2043616c6c6572206973206e65697468657220424f604482015270081b9bdc88111959985d5b1d08141bdbdb607a1b60648201526084016107b5565b6001600160a01b0391909116815260200190565b600060208284031215610b2d57600080fd5b5035919050565b80356001600160a01b0381168114610b4b57600080fd5b919050565b60008060008060008060c08789031215610b6957600080fd5b610b7287610b34565b9550610b8060208801610b34565b9450610b8e60408801610b34565b9350610b9c60608801610b34565b9250610baa60808801610b34565b9150610bb860a08801610b34565b90509295509295509295565b600060208083528351808285015260005b81811015610bf157858101830151858201604001528201610bd5565b506000604082860101526040601f19601f8301168501019250505092915050565b60008060408385031215610c2557600080fd5b610c2e83610b34565b946020939093013593505050565b600060208284031215610c4e57600080fd5b610c5782610b34565b9392505050565b634e487b7160e01b600052601160045260246000fd5b81810381811115610c8757610c87610c5e565b92915050565b80820180821115610c8757610c87610c5e565b600060208284031215610cb257600080fd5b81518015158114610c5757600080fdfea2646970667358221220a6903bc79b495834087cf4e20b8def4da8406be0b39c3556232fafcd565b652f64736f6c63430008130033",
  "devdoc": {
    "kind": "dev",
    "methods": {
      "owner()": {
        "details": "Returns the address of the current owner."
      },
      "renounceOwnership()": {
        "details": "Leaves the contract without owner. It will not be possible to call `onlyOwner` functions. Can only be called by the current owner. NOTE: Renouncing ownership will leave the contract without an owner, thereby disabling any functionality that is only available to the owner."
      },
      "transferOwnership(address)": {
        "details": "Transfers ownership of the contract to a new account (`newOwner`). Can only be called by the current owner."
      }
    },
    "version": 1
  },
  "userdoc": {
    "kind": "user",
    "methods": {},
    "version": 1
  },
  "storageLayout": {
    "storage": [
      {
        "astId": 506,
        "contract": "contracts/ActivePool.sol:ActivePool",
        "label": "_owner",
        "offset": 0,
        "slot": "0",
        "type": "t_address"
      },
      {
        "astId": 6475,
        "contract": "contracts/ActivePool.sol:ActivePool",
        "label": "WSTETHAddress",
        "offset": 0,
        "slot": "1",
        "type": "t_address"
      },
      {
        "astId": 6477,
        "contract": "contracts/ActivePool.sol:ActivePool",
        "label": "borrowerOperationsAddress",
        "offset": 0,
        "slot": "2",
        "type": "t_address"
      },
      {
        "astId": 6479,
        "contract": "contracts/ActivePool.sol:ActivePool",
        "label": "troveManagerAddress",
        "offset": 0,
        "slot": "3",
        "type": "t_address"
      },
      {
        "astId": 6481,
        "contract": "contracts/ActivePool.sol:ActivePool",
        "label": "stabilityPoolAddress",
        "offset": 0,
        "slot": "4",
        "type": "t_address"
      },
      {
        "astId": 6483,
        "contract": "contracts/ActivePool.sol:ActivePool",
        "label": "defaultPoolAddress",
        "offset": 0,
        "slot": "5",
        "type": "t_address"
      },
      {
        "astId": 6485,
        "contract": "contracts/ActivePool.sol:ActivePool",
        "label": "collSurplusPoolAddress",
        "offset": 0,
        "slot": "6",
        "type": "t_address"
      },
      {
        "astId": 6487,
        "contract": "contracts/ActivePool.sol:ActivePool",
        "label": "WSTETH",
        "offset": 0,
        "slot": "7",
        "type": "t_uint256"
      },
      {
        "astId": 6489,
        "contract": "contracts/ActivePool.sol:ActivePool",
        "label": "SIMDebt",
        "offset": 0,
        "slot": "8",
        "type": "t_uint256"
      }
    ],
    "types": {
      "t_address": {
        "encoding": "inplace",
        "label": "address",
        "numberOfBytes": "20"
      },
      "t_uint256": {
        "encoding": "inplace",
        "label": "uint256",
        "numberOfBytes": "32"
      }
    }
  }
}