{
  "address": "0x960FdE8a92d5Ad1245E7AD267641F230d9a39Df1",
  "abi": [
    {
      "anonymous": false,
      "inputs": [
        {
          "indexed": false,
          "internalType": "address",
          "name": "_activePoolAddress",
          "type": "address"
        }
      ],
      "name": "ActivePoolAddressChanged",
      "type": "event"
    },
    {
      "anonymous": false,
      "inputs": [
        {
          "indexed": false,
          "internalType": "address",
          "name": "_collSurplusPoolAddress",
          "type": "address"
        }
      ],
      "name": "CollSurplusPoolAddressChanged",
      "type": "event"
    },
    {
      "anonymous": false,
      "inputs": [
        {
          "indexed": false,
          "internalType": "address",
          "name": "_defaultPoolAddress",
          "type": "address"
        }
      ],
      "name": "DefaultPoolAddressChanged",
      "type": "event"
    },
    {
      "anonymous": false,
      "inputs": [
        {
          "indexed": false,
          "internalType": "address",
          "name": "_gasPoolAddress",
          "type": "address"
        }
      ],
      "name": "GasPoolAddressChanged",
      "type": "event"
    },
    {
      "anonymous": false,
      "inputs": [
        {
          "indexed": true,
          "internalType": "address",
          "name": "previousOwner",
          "type": "address"
        },
        {
          "indexed": true,
          "internalType": "address",
          "name": "newOwner",
          "type": "address"
        }
      ],
      "name": "OwnershipTransferred",
      "type": "event"
    },
    {
      "anonymous": false,
      "inputs": [
        {
          "indexed": false,
          "internalType": "address",
          "name": "_newPriceFeedAddress",
          "type": "address"
        }
      ],
      "name": "PriceFeedAddressChanged",
      "type": "event"
    },
    {
      "anonymous": false,
      "inputs": [
        {
          "indexed": true,
          "internalType": "address",
          "name": "_borrower",
          "type": "address"
        },
        {
          "indexed": false,
          "internalType": "uint256",
          "name": "_SIMFee",
          "type": "uint256"
        }
      ],
      "name": "SIMBorrowingFeePaid",
      "type": "event"
    },
    {
      "anonymous": false,
      "inputs": [
        {
          "indexed": false,
          "internalType": "address",
          "name": "_simTokenAddress",
          "type": "address"
        }
      ],
      "name": "SIMTokenAddressChanged",
      "type": "event"
    },
    {
      "anonymous": false,
      "inputs": [
        {
          "indexed": false,
          "internalType": "address",
          "name": "_VeAddress",
          "type": "address"
        }
      ],
      "name": "SimVeDistributorAddressChanged",
      "type": "event"
    },
    {
      "anonymous": false,
      "inputs": [
        {
          "indexed": false,
          "internalType": "address",
          "name": "_sortedTrovesAddress",
          "type": "address"
        }
      ],
      "name": "SortedTrovesAddressChanged",
      "type": "event"
    },
    {
      "anonymous": false,
      "inputs": [
        {
          "indexed": false,
          "internalType": "address",
          "name": "_stabilityPoolAddress",
          "type": "address"
        }
      ],
      "name": "StabilityPoolAddressChanged",
      "type": "event"
    },
    {
      "anonymous": false,
      "inputs": [
        {
          "indexed": true,
          "internalType": "address",
          "name": "_borrower",
          "type": "address"
        },
        {
          "indexed": false,
          "internalType": "uint256",
          "name": "arrayIndex",
          "type": "uint256"
        }
      ],
      "name": "TroveCreated",
      "type": "event"
    },
    {
      "anonymous": false,
      "inputs": [
        {
          "indexed": false,
          "internalType": "address",
          "name": "_newTroveManagerAddress",
          "type": "address"
        }
      ],
      "name": "TroveManagerAddressChanged",
      "type": "event"
    },
    {
      "anonymous": false,
      "inputs": [
        {
          "indexed": true,
          "internalType": "address",
          "name": "_borrower",
          "type": "address"
        },
        {
          "indexed": false,
          "internalType": "uint256",
          "name": "_debt",
          "type": "uint256"
        },
        {
          "indexed": false,
          "internalType": "uint256",
          "name": "_coll",
          "type": "uint256"
        },
        {
          "indexed": false,
          "internalType": "uint256",
          "name": "stake",
          "type": "uint256"
        },
        {
          "indexed": false,
          "internalType": "uint8",
          "name": "operation",
          "type": "uint8"
        }
      ],
      "name": "TroveUpdated",
      "type": "event"
    },
    {
      "inputs": [],
      "name": "BORROWING_FEE_FLOOR",
      "outputs": [
        {
          "internalType": "uint256",
          "name": "",
          "type": "uint256"
        }
      ],
      "stateMutability": "view",
      "type": "function"
    },
    {
      "inputs": [],
      "name": "CCR",
      "outputs": [
        {
          "internalType": "uint256",
          "name": "",
          "type": "uint256"
        }
      ],
      "stateMutability": "view",
      "type": "function"
    },
    {
      "inputs": [],
      "name": "DECIMAL_PRECISION",
      "outputs": [
        {
          "internalType": "uint256",
          "name": "",
          "type": "uint256"
        }
      ],
      "stateMutability": "view",
      "type": "function"
    },
    {
      "inputs": [],
      "name": "MCR",
      "outputs": [
        {
          "internalType": "uint256",
          "name": "",
          "type": "uint256"
        }
      ],
      "stateMutability": "view",
      "type": "function"
    },
    {
      "inputs": [],
      "name": "MIN_NET_DEBT",
      "outputs": [
        {
          "internalType": "uint256",
          "name": "",
          "type": "uint256"
        }
      ],
      "stateMutability": "view",
      "type": "function"
    },
    {
      "inputs": [],
      "name": "NAME",
      "outputs": [
        {
          "internalType": "string",
          "name": "",
          "type": "string"
        }
      ],
      "stateMutability": "view",
      "type": "function"
    },
    {
      "inputs": [],
      "name": "PERCENT_DIVISOR",
      "outputs": [
        {
          "internalType": "uint256",
          "name": "",
          "type": "uint256"
        }
      ],
      "stateMutability": "view",
      "type": "function"
    },
    {
      "inputs": [],
      "name": "WSTETHAddress",
      "outputs": [
        {
          "internalType": "address",
          "name": "",
          "type": "address"
        }
      ],
      "stateMutability": "view",
      "type": "function"
    },
    {
      "inputs": [],
      "name": "_100pct",
      "outputs": [
        {
          "internalType": "uint256",
          "name": "",
          "type": "uint256"
        }
      ],
      "stateMutability": "view",
      "type": "function"
    },
    {
      "inputs": [],
      "name": "activePool",
      "outputs": [
        {
          "internalType": "contract IActivePool",
          "name": "",
          "type": "address"
        }
      ],
      "stateMutability": "view",
      "type": "function"
    },
    {
      "inputs": [
        {
          "internalType": "uint256",
          "name": "amount",
          "type": "uint256"
        },
        {
          "internalType": "address",
          "name": "_upperHint",
          "type": "address"
        },
        {
          "internalType": "address",
          "name": "_lowerHint",
          "type": "address"
        }
      ],
      "name": "addColl",
      "outputs": [],
      "stateMutability": "nonpayable",
      "type": "function"
    },
    {
      "inputs": [
        {
          "internalType": "uint256",
          "name": "addColAmount",
          "type": "uint256"
        },
        {
          "internalType": "uint256",
          "name": "_maxFeePercentage",
          "type": "uint256"
        },
        {
          "internalType": "uint256",
          "name": "_collWithdrawal",
          "type": "uint256"
        },
        {
          "internalType": "uint256",
          "name": "_SIMChange",
          "type": "uint256"
        },
        {
          "internalType": "bool",
          "name": "_isDebtIncrease",
          "type": "bool"
        },
        {
          "internalType": "address",
          "name": "_upperHint",
          "type": "address"
        },
        {
          "internalType": "address",
          "name": "_lowerHint",
          "type": "address"
        }
      ],
      "name": "adjustTrove",
      "outputs": [],
      "stateMutability": "payable",
      "type": "function"
    },
    {
      "inputs": [],
      "name": "claimCollateral",
      "outputs": [],
      "stateMutability": "nonpayable",
      "type": "function"
    },
    {
      "inputs": [],
      "name": "closeTrove",
      "outputs": [],
      "stateMutability": "nonpayable",
      "type": "function"
    },
    {
      "inputs": [],
      "name": "collSurplusPool",
      "outputs": [
        {
          "internalType": "contract ICollSurplusPool",
          "name": "",
          "type": "address"
        }
      ],
      "stateMutability": "view",
      "type": "function"
    },
    {
      "inputs": [],
      "name": "defaultPool",
      "outputs": [
        {
          "internalType": "contract IDefaultPool",
          "name": "",
          "type": "address"
        }
      ],
      "stateMutability": "view",
      "type": "function"
    },
    {
      "inputs": [],
      "name": "feeReceiver",
      "outputs": [
        {
          "internalType": "address",
          "name": "",
          "type": "address"
        }
      ],
      "stateMutability": "view",
      "type": "function"
    },
    {
      "inputs": [],
      "name": "getEntireSystemColl",
      "outputs": [
        {
          "internalType": "uint256",
          "name": "entireSystemColl",
          "type": "uint256"
        }
      ],
      "stateMutability": "view",
      "type": "function"
    },
    {
      "inputs": [],
      "name": "getEntireSystemDebt",
      "outputs": [
        {
          "internalType": "uint256",
          "name": "entireSystemDebt",
          "type": "uint256"
        }
      ],
      "stateMutability": "view",
      "type": "function"
    },
    {
      "inputs": [
        {
          "internalType": "address",
          "name": "_borrower",
          "type": "address"
        },
        {
          "internalType": "address",
          "name": "_upperHint",
          "type": "address"
        },
        {
          "internalType": "address",
          "name": "_lowerHint",
          "type": "address"
        }
      ],
      "name": "moveWSTETHGainToTrove",
      "outputs": [],
      "stateMutability": "payable",
      "type": "function"
    },
    {
      "inputs": [
        {
          "internalType": "uint256",
          "name": "amount",
          "type": "uint256"
        },
        {
          "internalType": "uint256",
          "name": "_maxFeePercentage",
          "type": "uint256"
        },
        {
          "internalType": "uint256",
          "name": "_SIMAmount",
          "type": "uint256"
        },
        {
          "internalType": "address",
          "name": "_upperHint",
          "type": "address"
        },
        {
          "internalType": "address",
          "name": "_lowerHint",
          "type": "address"
        }
      ],
      "name": "openTrove",
      "outputs": [],
      "stateMutability": "payable",
      "type": "function"
    },
    {
      "inputs": [],
      "name": "owner",
      "outputs": [
        {
          "internalType": "address",
          "name": "",
          "type": "address"
        }
      ],
      "stateMutability": "view",
      "type": "function"
    },
    {
      "inputs": [],
      "name": "priceFeed",
      "outputs": [
        {
          "internalType": "contract IPriceFeed",
          "name": "",
          "type": "address"
        }
      ],
      "stateMutability": "view",
      "type": "function"
    },
    {
      "inputs": [],
      "name": "renounceOwnership",
      "outputs": [],
      "stateMutability": "nonpayable",
      "type": "function"
    },
    {
      "inputs": [
        {
          "internalType": "uint256",
          "name": "_SIMAmount",
          "type": "uint256"
        },
        {
          "internalType": "address",
          "name": "_upperHint",
          "type": "address"
        },
        {
          "internalType": "address",
          "name": "_lowerHint",
          "type": "address"
        }
      ],
      "name": "repaySIM",
      "outputs": [],
      "stateMutability": "nonpayable",
      "type": "function"
    },
    {
      "inputs": [
        {
          "internalType": "address",
          "name": "_WSTETHAddress",
          "type": "address"
        },
        {
          "internalType": "address",
          "name": "_troveManagerAddress",
          "type": "address"
        },
        {
          "internalType": "address",
          "name": "_activePoolAddress",
          "type": "address"
        },
        {
          "internalType": "address",
          "name": "_defaultPoolAddress",
          "type": "address"
        },
        {
          "internalType": "address",
          "name": "_stabilityPoolAddress",
          "type": "address"
        },
        {
          "internalType": "address",
          "name": "_collSurplusPoolAddress",
          "type": "address"
        },
        {
          "internalType": "address",
          "name": "_priceFeedAddress",
          "type": "address"
        },
        {
          "internalType": "address",
          "name": "_sortedTrovesAddress",
          "type": "address"
        },
        {
          "internalType": "address",
          "name": "_simTokenAddress",
          "type": "address"
        },
        {
          "internalType": "address",
          "name": "_simVeDistributorAddress",
          "type": "address"
        },
        {
          "internalType": "address",
          "name": "_feeReceiver",
          "type": "address"
        }
      ],
      "name": "setAddresses",
      "outputs": [],
      "stateMutability": "nonpayable",
      "type": "function"
    },
    {
      "inputs": [],
      "name": "simToken",
      "outputs": [
        {
          "internalType": "contract ISIMToken",
          "name": "",
          "type": "address"
        }
      ],
      "stateMutability": "view",
      "type": "function"
    },
    {
      "inputs": [],
      "name": "simVeDistributor",
      "outputs": [
        {
          "internalType": "address",
          "name": "",
          "type": "address"
        }
      ],
      "stateMutability": "view",
      "type": "function"
    },
    {
      "inputs": [],
      "name": "sortedTroves",
      "outputs": [
        {
          "internalType": "contract ISortedTroves",
          "name": "",
          "type": "address"
        }
      ],
      "stateMutability": "view",
      "type": "function"
    },
    {
      "inputs": [],
      "name": "stabilityPoolAddress",
      "outputs": [
        {
          "internalType": "address",
          "name": "",
          "type": "address"
        }
      ],
      "stateMutability": "view",
      "type": "function"
    },
    {
      "inputs": [
        {
          "internalType": "address",
          "name": "newOwner",
          "type": "address"
        }
      ],
      "name": "transferOwnership",
      "outputs": [],
      "stateMutability": "nonpayable",
      "type": "function"
    },
    {
      "inputs": [],
      "name": "troveManager",
      "outputs": [
        {
          "internalType": "contract ITroveManager",
          "name": "",
          "type": "address"
        }
      ],
      "stateMutability": "view",
      "type": "function"
    },
    {
      "inputs": [
        {
          "internalType": "uint256",
          "name": "_collWithdrawal",
          "type": "uint256"
        },
        {
          "internalType": "address",
          "name": "_upperHint",
          "type": "address"
        },
        {
          "internalType": "address",
          "name": "_lowerHint",
          "type": "address"
        }
      ],
      "name": "withdrawColl",
      "outputs": [],
      "stateMutability": "nonpayable",
      "type": "function"
    },
    {
      "inputs": [
        {
          "internalType": "uint256",
          "name": "_maxFeePercentage",
          "type": "uint256"
        },
        {
          "internalType": "uint256",
          "name": "_SIMAmount",
          "type": "uint256"
        },
        {
          "internalType": "address",
          "name": "_upperHint",
          "type": "address"
        },
        {
          "internalType": "address",
          "name": "_lowerHint",
          "type": "address"
        }
      ],
      "name": "withdrawSIM",
      "outputs": [],
      "stateMutability": "nonpayable",
      "type": "function"
    }
  ],
  "transactionHash": "0xc57822a1999c3c8038f8767ffb72a9f0c3b9a97ee91d5717296e0d41aaabeb63",
  "args": [],
  "numDeployments": 1,
  "solcInputHash": "4ec6f9376f02b1b14c8f28d3638a109e",
  "bytecode": "0x60806040523480156200001157600080fd5b506200001d3362000023565b62000075565b600380546001600160a01b038381166001600160a01b0319831681179093556040519116919082907f8be0079c531659141344cd1fd0a4f28419497f9722a3daafe3b4186f6b6457e090600090a35050565b6136f080620000856000396000f3fe6080604052600436106101b95760003560e01c8063741bef1a116100ed578063a20baee611610090578063a20baee61461021e578063a3f4df7e1461046d578063ae918754146104b8578063b3f00674146104d8578063cda775f9146104f8578063d540f25014610518578063d56d6bbe14610538578063f2fde38b14610558578063f92d34331461057857600080fd5b8063741bef1a14610396578063794e5724146103b6578063795d26c3146103d25780637985c5e4146103e75780637f7dde4a14610407578063887105d3146104275780638da5cb5b1461043c5780638f09162b1461045a57600080fd5b80633d83908a116101605780633d83908a146102c85780634870dd9a146102e85780635530273c146102fd5780635617c5c71461031d5780635733d58f1461033d5780635da8b1c3146103595780636f0b0c1c1461036c578063715018a61461038157806372fe25aa1461021e57600080fd5b80630b622ab2146101be5780630e704d50146101f457806311edbb581461020b5780631bf435551461021e57806321916942146102485780633b0713c5146102685780633c8c75ea146102885780633cc74225146102a8575b600080fd5b3480156101ca57600080fd5b506006546101de906001600160a01b031681565b6040516101eb919061327e565b60405180910390f35b34801561020057600080fd5b5061020961058d565b005b6102096102193660046132ae565b6108fc565b34801561022a57600080fd5b5061023a670de0b6b3a764000081565b6040519081526020016101eb565b34801561025457600080fd5b506102096102633660046132f1565b61091b565b34801561027457600080fd5b50610209610283366004613337565b610932565b34801561029457600080fd5b506008546101de906001600160a01b031681565b3480156102b457600080fd5b506001546101de906001600160a01b031681565b3480156102d457600080fd5b506005546101de906001600160a01b031681565b3480156102f457600080fd5b5061023a60c881565b34801561030957600080fd5b50610209610318366004613337565b610944565b34801561032957600080fd5b506004546101de906001600160a01b031681565b34801561034957600080fd5b5061023a6714d1120d7b16000081565b61020961036736600461336a565b610955565b34801561037857600080fd5b506102096109f2565b34801561038d57600080fd5b50610209610a50565b3480156103a257600080fd5b506002546101de906001600160a01b031681565b3480156103c257600080fd5b5061023a670f43fc2c04ee000081565b3480156103de57600080fd5b5061023a610a64565b3480156103f357600080fd5b506102096104023660046133d6565b610b60565b34801561041357600080fd5b506000546101de906001600160a01b031681565b34801561043357600080fd5b5061023a610e58565b34801561044857600080fd5b506003546001600160a01b03166101de565b6102096104683660046134a2565b610f1d565b34801561047957600080fd5b506104ab60405180604001604052806012815260200171426f72726f7765724f7065726174696f6e7360701b81525081565b6040516101eb91906134f2565b3480156104c457600080fd5b50600a546101de906001600160a01b031681565b3480156104e457600080fd5b50600b546101de906001600160a01b031681565b34801561050457600080fd5b506007546101de906001600160a01b031681565b34801561052457600080fd5b506009546101de906001600160a01b031681565b34801561054457600080fd5b50610209610553366004613337565b61156c565b34801561056457600080fd5b50610209610573366004613540565b6115fd565b34801561058457600080fd5b5061023a61167b565b6005546000546009546001600160a01b039283169291821691166105b1833361169d565b60025460408051630fdb11cf60e01b815290516000926001600160a01b031691630fdb11cf916004808301926020929190829003018187875af11580156105fc573d6000803e3d6000fd5b505050506040513d601f19601f82011682018060405250810190610620919061355b565b905061062b81611776565b604051630b07655760e01b81526001600160a01b03851690630b0765579061065790339060040161327e565b600060405180830381600087803b15801561067157600080fd5b505af1158015610685573d6000803e3d6000fd5b50506040516309019aaf60e31b8152600092506001600160a01b038716915063480cd578906106b890339060040161327e565b602060405180830381865afa1580156106d5573d6000803e3d6000fd5b505050506040513d601f19601f820116820180604052508101906106f9919061355b565b90506000856001600160a01b031663d66a2553336040518263ffffffff1660e01b8152600401610729919061327e565b602060405180830381865afa158015610746573d6000803e3d6000fd5b505050506040513d601f19601f8201168201806040525081019061076a919061355b565b90506107778433836117ee565b6000610788836000846000886118d1565b905061079381611944565b604051631fc5750960e31b81526001600160a01b0388169063fe2ba848906107bf90339060040161327e565b600060405180830381600087803b1580156107d957600080fd5b505af11580156107ed573d6000803e3d6000fd5b50506040516365e89c5760e11b81526001600160a01b038a16925063cbd138ae915061081d90339060040161327e565b600060405180830381600087803b15801561083757600080fd5b505af115801561084b573d6000803e3d6000fd5b5050604080516000808252602082018190528183015260016060820152905133935060008051602061369b83398151915292509081900360800190a2610893868633856119d4565b6040516303570deb60e61b81526001600160a01b0387169063d5c37ac0906108c1903390879060040161358a565b600060405180830381600087803b1580156108db57600080fd5b505af11580156108ef573d6000803e3d6000fd5b5050505050505050505050565b610904611a94565b61091683600080600086866000611b00565b505050565b61092c33600085600186868a611b00565b50505050565b61091633600085600086866000611b00565b610916338460008086866000611b00565b86156109da57600480546040516323b872dd60e01b81526001600160a01b03909116916323b872dd9161098e91339130918d91016135a3565b6020604051808303816000875af11580156109ad573d6000803e3d6000fd5b505050506040513d601f19601f820116820180604052508101906109d191906135c7565b6109da57600080fd5b6109e93386868686868c611b00565b50505050505050565b60075460405163b32beb5b60e01b81526001600160a01b039091169063b32beb5b90610a2290339060040161327e565b600060405180830381600087803b158015610a3c57600080fd5b505af115801561092c573d6000803e3d6000fd5b610a58612169565b610a6260006121c3565b565b600080546040805163c7662fa560e01b8152905183926001600160a01b03169163c7662fa59160048083019260209291908290030181865afa158015610aae573d6000803e3d6000fd5b505050506040513d601f19601f82011682018060405250810190610ad2919061355b565b90506000600160009054906101000a90046001600160a01b03166001600160a01b031663c7662fa56040518163ffffffff1660e01b8152600401602060405180830381865afa158015610b29573d6000803e3d6000fd5b505050506040513d601f19601f82011682018060405250810190610b4d919061355b565b9050610b5981836135fa565b9250505090565b610b68612169565b610b718b612215565b610b7a8a612215565b610b8389612215565b610b8c88612215565b610b9587612215565b610b9e86612215565b610ba785612215565b610bb084612215565b610bb983612215565b610bc282612215565b600480546001600160a01b03199081166001600160a01b038e8116919091179092556005805482168d84161790556000805482168c84161790556001805482168b84161790556006805482168a8416179055600780548216898416179055600280548216888416179055600a80548216878416179055600980548216868416179055600880548216858416179055600b80549091169183169190911790556040517f143219c9e69b09e07e095fcc889b43d8f46ca892bba65f08dc3a0050869a567890610c90908c9061327e565b60405180910390a17f78f058b189175430c48dc02699e3a0031ea4ff781536dc2fab847de4babdd88289604051610cc7919061327e565b60405180910390a17f5ee0cae2f063ed938bb55046f6a932fb6ae792bf43624806bb90abe68a50be9b88604051610cfe919061327e565b60405180910390a17f82966d27eea39b038ee0fa30cd16532bb24f6e65d31cb58fb227aa5766cdcc7f87604051610d35919061327e565b60405180910390a17fe67f36a6e961157d6eff83b91f3af5a62131ceb6f04954ef74f51c1c05e7f88d86604051610d6c919061327e565b60405180910390a17f8c537274438aa850a330284665d81a85dd38267d09e4050d416bfc94142db26485604051610da3919061327e565b60405180910390a17f65f4cf077bc01e4742eb5ad98326f6e95b63548ea24b17f8d5e823111fe7880084604051610dda919061327e565b60405180910390a17f522d83e1b4d0586985996a5a2f3987e11187efba22d8ee8b185af633301082af83604051610e11919061327e565b60405180910390a17f7f35097d0a4ae21d735903f35b1a00cfafcefe66f953b129f52b8a4c1953cc6082604051610e48919061327e565b60405180910390a16108ef610a50565b60008054604080516321901a7960e21b8152905183926001600160a01b03169163864069e49160048083019260209291908290030181865afa158015610ea2573d6000803e3d6000fd5b505050506040513d601f19601f82011682018060405250810190610ec6919061355b565b90506000600160009054906101000a90046001600160a01b03166001600160a01b031663864069e46040518163ffffffff1660e01b8152600401602060405180830381865afa158015610b29573d6000803e3d6000fd5b60408051606080820183526005546001600160a01b0390811683526000805482166020808601919091526009548316858701528551610100810187528281529081018290528086018290529283018190526080830181905260a0830181905260c0830181905260e08301526004805494516323b872dd60e01b81529394929392909116916323b872dd91610fb791339130918d91016135a3565b6020604051808303816000875af1158015610fd6573d6000803e3d6000fd5b505050506040513d601f19601f82011682018060405250810190610ffa91906135c7565b61100357600080fd5b600260009054906101000a90046001600160a01b03166001600160a01b0316630fdb11cf6040518163ffffffff1660e01b81526004016020604051808303816000875af1158015611058573d6000803e3d6000fd5b505050506040513d601f19601f8201168201806040525081019061107c919061355b565b80825260009061108b906122be565b905061109787826122db565b82516110a390336123ef565b60408201869052806110df576110c383600001518460400151888a6124b1565b6020830181905260408301516110d991906135fa565b60408301525b6110ec82604001516126d5565b6040820151606083018190526111045761110461360d565b6111178883606001518460000151612753565b6080830152606082015161112c908990612787565b60a083015280156111495761114482608001516127bf565b61117c565b6111568260800151612837565b600061116f8960018560600151600187600001516118d1565b905061117a81611944565b505b8251604051635d6b480f60e01b81526001600160a01b0390911690635d6b480f906111ae90339060019060040161358a565b600060405180830381600087803b1580156111c857600080fd5b505af11580156111dc573d6000803e3d6000fd5b505084516040516372423c1760e01b81526001600160a01b0390911692506372423c1791506112119033908c9060040161358a565b6020604051808303816000875af1158015611230573d6000803e3d6000fd5b505050506040513d601f19601f82011682018060405250810190611254919061355b565b5082516060830151604051639976cf4560e01b81526001600160a01b0390921691639976cf459161128a9133919060040161358a565b6020604051808303816000875af11580156112a9573d6000803e3d6000fd5b505050506040513d601f19601f820116820180604052508101906112cd919061355b565b5082516040516382fe3eb960e01b81526001600160a01b03909116906382fe3eb9906112fd90339060040161327e565b600060405180830381600087803b15801561131757600080fd5b505af115801561132b573d6000803e3d6000fd5b50508451604051630c7940bd60e11b81526001600160a01b0390911692506318f2817a915061135e90339060040161327e565b6020604051808303816000875af115801561137d573d6000803e3d6000fd5b505050506040513d601f19601f820116820180604052508101906113a1919061355b565b60c0830152600a5460a08301516040516346f7cf8760e01b81526001600160a01b03909216916346f7cf87916113e0913391908a908a90600401613623565b600060405180830381600087803b1580156113fa57600080fd5b505af115801561140e573d6000803e3d6000fd5b505084516040516315d549f160e01b81526001600160a01b0390911692506315d549f1915061144190339060040161327e565b6020604051808303816000875af1158015611460573d6000803e3d6000fd5b505050506040513d601f19601f82011682018060405250810190611484919061355b565b60e0830181905260405190815233907f59cfd0cd754bc5748b6770e94a4ffa5f678d885cb899dcfadc5734edb97c67ab9060200160405180910390a26114ce8360200151896128c7565b6114e783602001518460400151338986604001516129a2565b60608281015160c084015160408051928352602083018c9052820152600091810191909152339060008051602061369b8339815191529060800160405180910390a260208083015160405190815233917f9794ec0d2a774157c86453c5237bd9a8968af93795f98e8d51ec240ab46beb7b910160405180910390a25050505050505050565b600480546040516323b872dd60e01b81526001600160a01b03909116916323b872dd9161159f91339130918991016135a3565b6020604051808303816000875af11580156115be573d6000803e3d6000fd5b505050506040513d601f19601f820116820180604052508101906115e291906135c7565b6115eb57600080fd5b61091633600080600086866000611b00565b611605612169565b6001600160a01b03811661166f5760405162461bcd60e51b815260206004820152602660248201527f4f776e61626c653a206e6577206f776e657220697320746865207a65726f206160448201526564647265737360d01b60648201526084015b60405180910390fd5b611678816121c3565b50565b61168f6103e8670de0b6b3a764000061364e565b61169a906005613670565b81565b6040516321e3780160e01b81526000906001600160a01b038416906321e37801906116cc90859060040161327e565b602060405180830381865afa1580156116e9573d6000803e3d6000fd5b505050506040513d601f19601f8201168201806040525081019061170d919061355b565b9050806001146109165760405162461bcd60e51b815260206004820152602e60248201527f426f72726f7765724f70733a2054726f766520646f6573206e6f74206578697360448201526d1d081bdc881a5cc818db1bdcd95960921b6064820152608401611666565b61177f816122be565b156116785760405162461bcd60e51b815260206004820152603960248201527f426f72726f7765724f70733a204f7065726174696f6e206e6f74207065726d696044820152787474656420647572696e67205265636f76657279204d6f646560381b6064820152608401611666565b6040516370a0823160e01b815281906001600160a01b038516906370a082319061181c90869060040161327e565b602060405180830381865afa158015611839573d6000803e3d6000fd5b505050506040513d601f19601f8201168201806040525081019061185d919061355b565b10156109165760405162461bcd60e51b815260206004820152603c60248201527f426f72726f7765724f70733a2043616c6c657220646f65736e7420686176652060448201527f656e6f7567682053494d20746f206d616b652072657061796d656e74000000006064820152608401611666565b6000806118dc610e58565b905060006118e8610a64565b9050866118fe576118f98883613687565b611908565b61190888836135fa565b91508461191e576119198682613687565b611928565b61192886826135fa565b90506000611937838387612753565b9998505050505050505050565b6714d1120d7b1600008110156116785760405162461bcd60e51b815260206004820152604960248201527f426f72726f7765724f70733a20416e206f7065726174696f6e2074686174207760448201527f6f756c6420726573756c7420696e20544352203c20434352206973206e6f74206064820152681c195c9b5a5d1d195960ba1b608482015260a401611666565b604051636bfc0b7960e01b8152600481018290526001600160a01b03851690636bfc0b7990602401600060405180830381600087803b158015611a1657600080fd5b505af1158015611a2a573d6000803e3d6000fd5b5050604051632770a7eb60e21b81526001600160a01b0386169250639dc29fac9150611a5c908590859060040161358a565b600060405180830381600087803b158015611a7657600080fd5b505af1158015611a8a573d6000803e3d6000fd5b5050505050505050565b6006546001600160a01b03163314610a625760405162461bcd60e51b815260206004820152602960248201527f426f72726f7765724f70733a2043616c6c6572206973206e6f742053746162696044820152681b1a5d1e48141bdbdb60ba1b6064820152608401611666565b60408051606080820183526005546001600160a01b03908116835260008054821660208086019190915260095483168587015285516101a0810187528281528082018390528087018390529384018290526080840182905260a0840182905260c0840182905260e08401829052610100840182905261012084018290526101408401829052610160840182905261018084018290526002548651630fdb11cf60e01b8152965195969495931693630fdb11cf93600480830194919283900301908290875af1158015611bd6573d6000803e3d6000fd5b505050506040513d601f19601f82011682018060405250810190611bfa919061355b565b808252600090611c09906122be565b90508615611c2457611c1b84826122db565b611c2488612a63565b611c2d89612ad3565b611c378989612bb2565b8251611c43908b61169d565b600480546040516370a0823160e01b81526000926001600160a01b03909216916370a0823191611c759130910161327e565b602060405180830381865afa158015611c92573d6000803e3d6000fd5b505050506040513d601f19601f82011682018060405250810190611cb6919061355b565b9050336001600160a01b038c161480611cee57506006546001600160a01b031633148015611ce45750600081115b8015611cee575088155b611cfa57611cfa61360d565b8351604051630b07655760e01b81526001600160a01b0390911690630b07655790611d29908e9060040161327e565b600060405180830381600087803b158015611d4357600080fd5b505af1158015611d57573d6000803e3d6000fd5b50505050611d65818b612cb9565b15156060850152602084015260408301899052878015611d83575081155b15611db957611d9c846000015185604001518b886124b1565b61012084018190526040840151611db391906135fa565b60408401525b835160405163d66a255360e01b81526001600160a01b039091169063d66a255390611de8908e9060040161327e565b602060405180830381865afa158015611e05573d6000803e3d6000fd5b505050506040513d601f19601f82011682018060405250810190611e29919061355b565b608084015283516040516309019aaf60e31b81526001600160a01b039091169063480cd57890611e5d908e9060040161327e565b602060405180830381865afa158015611e7a573d6000803e3d6000fd5b505050506040513d601f19601f82011682018060405250810190611e9e919061355b565b60a0840181905260808401518451611eb7929190612753565b8360c0018181525050611ee78360a0015184608001518560200151866060015187604001518d8960000151612cd8565b60e084015260a08301518a1115611f0057611f0061360d565b611f0c828b8a86612d0b565b87158015611f1a5750600089115b15611f6657611f418360400151611f32856080015190565b611f3c9190613687565b6126d5565b611f5383608001518460400151612d7f565b611f6684604001518c85604001516117ee565b611f8484600001518c8560200151866060015187604001518d612e01565b6101408501526101608401528351604051630c7940bd60e11b81526001600160a01b03909116906318f2817a90611fbf908e9060040161327e565b6020604051808303816000875af1158015611fde573d6000803e3d6000fd5b505050506040513d601f19601f82011682018060405250810190612002919061355b565b8361018001818152505060006120308460a0015185608001518660200151876060015188604001518e612ff3565b600a5460405163015f109360e51b81529192506001600160a01b031690632be2126090612067908f9085908d908d90600401613623565b600060405180830381600087803b15801561208157600080fd5b505af1158015612095573d6000803e3d6000fd5b505050508b6001600160a01b031660008051602061369b8339815191528561014001518661016001518761018001516002808111156120d6576120d6613574565b6040805194855260208501939093529183015260ff16606082015260800160405180910390a261012084015160405190815233907f9794ec0d2a774157c86453c5237bd9a8968af93795f98e8d51ec240ab46beb7b9060200160405180910390a261215b8560200151866040015133876020015188606001518f8f8b60400151613024565b505050505050505050505050565b6003546001600160a01b03163314610a625760405162461bcd60e51b815260206004820181905260248201527f4f776e61626c653a2063616c6c6572206973206e6f7420746865206f776e65726044820152606401611666565b600380546001600160a01b038381166001600160a01b0319831681179093556040519116919082907f8be0079c531659141344cd1fd0a4f28419497f9722a3daafe3b4186f6b6457e090600090a35050565b6001600160a01b03811661226b5760405162461bcd60e51b815260206004820152601e60248201527f4163636f756e742063616e6e6f74206265207a65726f206164647265737300006044820152606401611666565b803b806122ba5760405162461bcd60e51b815260206004820181905260248201527f4163636f756e7420636f64652073697a652063616e6e6f74206265207a65726f6044820152606401611666565b5050565b6000806122ca836130b9565b6714d1120d7b160000119392505050565b801561235457670de0b6b3a76400008211156122ba5760405162461bcd60e51b815260206004820152603260248201527f4d6178206665652070657263656e74616765206d757374206c657373207468616044820152716e206f7220657175616c20746f203130302560701b6064820152608401611666565b6123686103e8670de0b6b3a764000061364e565b612373906005613670565b821015801561238a5750670de0b6b3a76400008211155b6122ba5760405162461bcd60e51b815260206004820152603060248201527f4d6178206665652070657263656e74616765206d75737420626520626574776560448201526f656e20302e352520616e64203130302560801b6064820152608401611666565b6040516321e3780160e01b81526000906001600160a01b038416906321e378019061241e90859060040161327e565b602060405180830381865afa15801561243b573d6000803e3d6000fd5b505050506040513d601f19601f8201168201806040525081019061245f919061355b565b9050806001036109165760405162461bcd60e51b815260206004820152601c60248201527f426f72726f7765724f70733a2054726f766520697320616374697665000000006044820152606401611666565b6000846001600160a01b0316635dba4c4a6040518163ffffffff1660e01b8152600401600060405180830381600087803b1580156124ee57600080fd5b505af1158015612502573d6000803e3d6000fd5b5050604051630631203b60e41b815260048101869052600092506001600160a01b038816915063631203b090602401602060405180830381865afa15801561254e573d6000803e3d6000fd5b505050506040513d601f19601f82011682018060405250810190612572919061355b565b905061257f8185856130e5565b600061258c60028361364e565b6008546040516340c10f1960e01b81529192506001600160a01b03808916926340c10f19926125c1921690859060040161358a565b600060405180830381600087803b1580156125db57600080fd5b505af11580156125ef573d6000803e3d6000fd5b50505050600860009054906101000a90046001600160a01b03166001600160a01b031663c2c4c5c16040518163ffffffff1660e01b8152600401600060405180830381600087803b15801561264357600080fd5b505af1158015612657573d6000803e3d6000fd5b5050600b546001600160a01b03808a1693506340c10f1992501661267b8486613687565b6040518363ffffffff1660e01b815260040161269892919061358a565b600060405180830381600087803b1580156126b257600080fd5b505af11580156126c6573d6000803e3d6000fd5b50939998505050505050505050565b670de0b6b3a76400008110156116785760405162461bcd60e51b815260206004820152603a60248201527f426f72726f7765724f70733a2054726f76652773206e65742064656274206d7560448201527f73742062652067726561746572207468616e206d696e696d756d0000000000006064820152608401611666565b6000821561277b576000836127688487613670565b612772919061364e565b91506127809050565b506000195b9392505050565b600081156127b457816127a368056bc75e2d6310000085613670565b6127ad919061364e565b90506127b9565b506000195b92915050565b6714d1120d7b1600008110156116785760405162461bcd60e51b815260206004820152603760248201527f426f72726f7765724f70733a204f7065726174696f6e206d757374206c65617660448201527632903a3937bb32903bb4ba341024a1a9101f1e9021a1a960491b6064820152608401611666565b670f43fc2c04ee00008110156116785760405162461bcd60e51b815260206004820152604960248201527f426f72726f7765724f70733a20416e206f7065726174696f6e2074686174207760448201527f6f756c6420726573756c7420696e20494352203c204d4352206973206e6f74206064820152681c195c9b5a5d1d195960ba1b608482015260a401611666565b6004805460405163a9059cbb60e01b81526001600160a01b039091169163a9059cbb916128f891869186910161358a565b6020604051808303816000875af1158015612917573d6000803e3d6000fd5b505050506040513d601f19601f8201168201806040525081019061293b91906135c7565b61294457600080fd5b604051636dd8630d60e11b8152600481018290526001600160a01b0383169063dbb0c61a90602401600060405180830381600087803b15801561298657600080fd5b505af115801561299a573d6000803e3d6000fd5b505050505050565b60405163707cf39f60e01b8152600481018290526001600160a01b0386169063707cf39f90602401600060405180830381600087803b1580156129e457600080fd5b505af11580156129f8573d6000803e3d6000fd5b50506040516340c10f1960e01b81526001600160a01b03871692506340c10f199150612a2a908690869060040161358a565b600060405180830381600087803b158015612a4457600080fd5b505af1158015612a58573d6000803e3d6000fd5b505050505050505050565b600081116116785760405162461bcd60e51b815260206004820152603760248201527f426f72726f7765724f70733a204465627420696e637265617365207265717569604482015276726573206e6f6e2d7a65726f20646562744368616e676560481b6064820152608401611666565b600480546040516370a0823160e01b81526001600160a01b03909116916370a0823191612b029130910161327e565b602060405180830381865afa158015612b1f573d6000803e3d6000fd5b505050506040513d601f19601f82011682018060405250810190612b43919061355b565b1580612b4d575080155b6116785760405162461bcd60e51b815260206004820152603060248201527f426f72726f7765724f7065726174696f6e733a2043616e6e6f7420776974686460448201526f1c985dc8185b99081859190818dbdb1b60821b6064820152608401611666565b600480546040516370a0823160e01b81526001600160a01b03909116916370a0823191612be19130910161327e565b602060405180830381865afa158015612bfe573d6000803e3d6000fd5b505050506040513d601f19601f82011682018060405250810190612c22919061355b565b151580612c2e57508115155b80612c3857508015155b6122ba5760405162461bcd60e51b815260206004820152604660248201527f426f72726f7765724f70733a205468657265206d75737420626520656974686560448201527f72206120636f6c6c61746572616c206368616e6765206f7220612064656274206064820152656368616e676560d01b608482015260a401611666565b6000808315612ccd57508290506001612cd1565b8291505b9250929050565b6000806000612ceb8a8a8a8a8a8a613156565b915091506000612cfc838387612753565b9b9a5050505050505050505050565b8315612d4457612d1a83613194565b8115612d3f57612d2d8160e001516127bf565b612d3f8160e001518260c00151613208565b61092c565b612d518160e00151612837565b612d6e8160200151826060015183604001518585600001516118d1565b610100820181905261092c90611944565b818111156122ba5760405162461bcd60e51b815260206004820152604360248201527f426f72726f7765724f70733a20416d6f756e7420726570616964206d7573742060448201527f6e6f74206265206c6172676572207468616e207468652054726f76652773206460648201526219589d60ea1b608482015260a401611666565b600080600085612e815760405163d3d6f84360e01b81526001600160a01b038a169063d3d6f84390612e39908b908b9060040161358a565b6020604051808303816000875af1158015612e58573d6000803e3d6000fd5b505050506040513d601f19601f82011682018060405250810190612e7c919061355b565b612ef2565b6040516372423c1760e01b81526001600160a01b038a16906372423c1790612eaf908b908b9060040161358a565b6020604051808303816000875af1158015612ece573d6000803e3d6000fd5b505050506040513d601f19601f82011682018060405250810190612ef2919061355b565b9050600084612f7157604051630930874960e11b81526001600160a01b038b16906312610e9290612f29908c908a9060040161358a565b6020604051808303816000875af1158015612f48573d6000803e3d6000fd5b505050506040513d601f19601f82011682018060405250810190612f6c919061355b565b612fe2565b604051639976cf4560e01b81526001600160a01b038b1690639976cf4590612f9f908c908a9060040161358a565b6020604051808303816000875af1158015612fbe573d6000803e3d6000fd5b505050506040513d601f19601f82011682018060405250810190612fe2919061355b565b919a91995090975050505050505050565b6000806000613006898989898989613156565b9150915060006130168383612787565b9a9950505050505050505050565b811561303c5761303788888886856129a2565b613048565b613048888888866119d4565b831561305d5761305888866128c7565b611a8a565b6040516303570deb60e61b81526001600160a01b0389169063d5c37ac09061308b908990899060040161358a565b600060405180830381600087803b1580156130a557600080fd5b505af115801561215b573d6000803e3d6000fd5b6000806130c4610e58565b905060006130d0610a64565b90506130dd828286612753565b949350505050565b6000826130fa670de0b6b3a764000086613670565b613104919061364e565b90508181111561092c5760405162461bcd60e51b815260206004820152601d60248201527f4665652065786365656465642070726f7669646564206d6178696d756d0000006044820152606401611666565b60008087878661316f5761316a888b613687565b613179565b613179888b6135fa565b91508461318a57612f6c868a613687565b612fe2868a6135fa565b80156116785760405162461bcd60e51b815260206004820152603e60248201527f426f72726f7765724f70733a20436f6c6c61746572616c20776974686472617760448201527f616c206e6f74207065726d6974746564205265636f76657279204d6f646500006064820152608401611666565b808210156122ba5760405162461bcd60e51b815260206004820152603e60248201527f426f72726f7765724f70733a2043616e6e6f7420646563726561736520796f7560448201527f722054726f766527732049435220696e205265636f76657279204d6f646500006064820152608401611666565b6001600160a01b0391909116815260200190565b80356001600160a01b03811681146132a957600080fd5b919050565b6000806000606084860312156132c357600080fd5b6132cc84613292565b92506132da60208501613292565b91506132e860408501613292565b90509250925092565b6000806000806080858703121561330757600080fd5b843593506020850135925061331e60408601613292565b915061332c60608601613292565b905092959194509250565b60008060006060848603121561334c57600080fd5b833592506132da60208501613292565b801515811461167857600080fd5b600080600080600080600060e0888a03121561338557600080fd5b8735965060208801359550604088013594506060880135935060808801356133ac8161335c565b92506133ba60a08901613292565b91506133c860c08901613292565b905092959891949750929550565b60008060008060008060008060008060006101608c8e0312156133f857600080fd5b6134018c613292565b9a5061340f60208d01613292565b995061341d60408d01613292565b985061342b60608d01613292565b975061343960808d01613292565b965061344760a08d01613292565b955061345560c08d01613292565b945061346360e08d01613292565b93506134726101008d01613292565b92506134816101208d01613292565b91506134906101408d01613292565b90509295989b509295989b9093969950565b600080600080600060a086880312156134ba57600080fd5b8535945060208601359350604086013592506134d860608701613292565b91506134e660808701613292565b90509295509295909350565b600060208083528351808285015260005b8181101561351f57858101830151858201604001528201613503565b506000604082860101526040601f19601f8301168501019250505092915050565b60006020828403121561355257600080fd5b61278082613292565b60006020828403121561356d57600080fd5b5051919050565b634e487b7160e01b600052602160045260246000fd5b6001600160a01b03929092168252602082015260400190565b6001600160a01b039384168152919092166020820152604081019190915260600190565b6000602082840312156135d957600080fd5b81516127808161335c565b634e487b7160e01b600052601160045260246000fd5b808201808211156127b9576127b96135e4565b634e487b7160e01b600052600160045260246000fd5b6001600160a01b03948516815260208101939093529083166040830152909116606082015260800190565b60008261366b57634e487b7160e01b600052601260045260246000fd5b500490565b80820281158282048414176127b9576127b96135e4565b818103818111156127b9576127b96135e456fec3770d654ed33aeea6bf11ac8ef05d02a6a04ed4686dd2f624d853bbec43cc8ba26469706673582212206b16548990348aeffade3c7284466e774668358f69ea43099e2d63161566a24564736f6c63430008130033",
  "devdoc": {
    "kind": "dev",
    "methods": {
      "owner()": {
        "details": "Returns the address of the current owner."
      },
      "renounceOwnership()": {
        "details": "Leaves the contract without owner. It will not be possible to call `onlyOwner` functions. Can only be called by the current owner. NOTE: Renouncing ownership will leave the contract without an owner, thereby disabling any functionality that is only available to the owner."
      },
      "transferOwnership(address)": {
        "details": "Transfers ownership of the contract to a new account (`newOwner`). Can only be called by the current owner."
      }
    },
    "version": 1
  },
  "userdoc": {
    "kind": "user",
    "methods": {
      "claimCollateral()": {
        "notice": "Claim remaining collateral from a redemption or from a liquidation with ICR > MCR in Recovery Mode"
      }
    },
    "version": 1
  },
  "storageLayout": {
    "storage": [
      {
        "astId": 21034,
        "contract": "contracts/BorrowerOperations.sol:BorrowerOperations",
        "label": "activePool",
        "offset": 0,
        "slot": "0",
        "type": "t_contract(IActivePool)23133"
      },
      {
        "astId": 21037,
        "contract": "contracts/BorrowerOperations.sol:BorrowerOperations",
        "label": "defaultPool",
        "offset": 0,
        "slot": "1",
        "type": "t_contract(IDefaultPool)23462"
      },
      {
        "astId": 21041,
        "contract": "contracts/BorrowerOperations.sol:BorrowerOperations",
        "label": "priceFeed",
        "offset": 0,
        "slot": "2",
        "type": "t_contract(IPriceFeed)23597"
      },
      {
        "astId": 590,
        "contract": "contracts/BorrowerOperations.sol:BorrowerOperations",
        "label": "_owner",
        "offset": 0,
        "slot": "3",
        "type": "t_address"
      },
      {
        "astId": 4738,
        "contract": "contracts/BorrowerOperations.sol:BorrowerOperations",
        "label": "WSTETHAddress",
        "offset": 0,
        "slot": "4",
        "type": "t_address"
      },
      {
        "astId": 4741,
        "contract": "contracts/BorrowerOperations.sol:BorrowerOperations",
        "label": "troveManager",
        "offset": 0,
        "slot": "5",
        "type": "t_contract(ITroveManager)24470"
      },
      {
        "astId": 4743,
        "contract": "contracts/BorrowerOperations.sol:BorrowerOperations",
        "label": "stabilityPoolAddress",
        "offset": 0,
        "slot": "6",
        "type": "t_address"
      },
      {
        "astId": 4746,
        "contract": "contracts/BorrowerOperations.sol:BorrowerOperations",
        "label": "collSurplusPool",
        "offset": 0,
        "slot": "7",
        "type": "t_contract(ICollSurplusPool)23389"
      },
      {
        "astId": 4748,
        "contract": "contracts/BorrowerOperations.sol:BorrowerOperations",
        "label": "simVeDistributor",
        "offset": 0,
        "slot": "8",
        "type": "t_address"
      },
      {
        "astId": 4751,
        "contract": "contracts/BorrowerOperations.sol:BorrowerOperations",
        "label": "simToken",
        "offset": 0,
        "slot": "9",
        "type": "t_contract(ISIMToken)23682"
      },
      {
        "astId": 4754,
        "contract": "contracts/BorrowerOperations.sol:BorrowerOperations",
        "label": "sortedTroves",
        "offset": 0,
        "slot": "10",
        "type": "t_contract(ISortedTroves)23818"
      },
      {
        "astId": 4756,
        "contract": "contracts/BorrowerOperations.sol:BorrowerOperations",
        "label": "feeReceiver",
        "offset": 0,
        "slot": "11",
        "type": "t_address"
      }
    ],
    "types": {
      "t_address": {
        "encoding": "inplace",
        "label": "address",
        "numberOfBytes": "20"
      },
      "t_contract(IActivePool)23133": {
        "encoding": "inplace",
        "label": "contract IActivePool",
        "numberOfBytes": "20"
      },
      "t_contract(ICollSurplusPool)23389": {
        "encoding": "inplace",
        "label": "contract ICollSurplusPool",
        "numberOfBytes": "20"
      },
      "t_contract(IDefaultPool)23462": {
        "encoding": "inplace",
        "label": "contract IDefaultPool",
        "numberOfBytes": "20"
      },
      "t_contract(IPriceFeed)23597": {
        "encoding": "inplace",
        "label": "contract IPriceFeed",
        "numberOfBytes": "20"
      },
      "t_contract(ISIMToken)23682": {
        "encoding": "inplace",
        "label": "contract ISIMToken",
        "numberOfBytes": "20"
      },
      "t_contract(ISortedTroves)23818": {
        "encoding": "inplace",
        "label": "contract ISortedTroves",
        "numberOfBytes": "20"
      },
      "t_contract(ITroveManager)24470": {
        "encoding": "inplace",
        "label": "contract ITroveManager",
        "numberOfBytes": "20"
      }
    }
  }
}