{
  "address": "0xf6cBD5E1a3Bb8ce25A730ce8167f426Cdca5EB6f",
  "abi": [
    {
      "anonymous": false,
      "inputs": [
        {
          "indexed": false,
          "internalType": "uint256",
          "name": "_type",
          "type": "uint256"
        }
      ],
      "name": "AddressAnnounceRemove",
      "type": "event"
    },
    {
      "anonymous": false,
      "inputs": [
        {
          "indexed": false,
          "internalType": "uint256",
          "name": "_type",
          "type": "uint256"
        },
        {
          "indexed": false,
          "internalType": "address",
          "name": "value",
          "type": "address"
        }
      ],
      "name": "AddressChangeAnnounced",
      "type": "event"
    },
    {
      "anonymous": false,
      "inputs": [
        {
          "indexed": false,
          "internalType": "uint256",
          "name": "_type",
          "type": "uint256"
        },
        {
          "indexed": false,
          "internalType": "address",
          "name": "oldAddress",
          "type": "address"
        },
        {
          "indexed": false,
          "internalType": "address",
          "name": "newAddress",
          "type": "address"
        }
      ],
      "name": "AddressChanged",
      "type": "event"
    },
    {
      "anonymous": false,
      "inputs": [
        {
          "indexed": false,
          "internalType": "address",
          "name": "controller",
          "type": "address"
        },
        {
          "indexed": false,
          "internalType": "uint256",
          "name": "ts",
          "type": "uint256"
        },
        {
          "indexed": false,
          "internalType": "uint256",
          "name": "block",
          "type": "uint256"
        }
      ],
      "name": "ContractInitialized",
      "type": "event"
    },
    {
      "anonymous": false,
      "inputs": [
        {
          "indexed": false,
          "internalType": "uint8",
          "name": "version",
          "type": "uint8"
        }
      ],
      "name": "Initialized",
      "type": "event"
    },
    {
      "anonymous": false,
      "inputs": [
        {
          "indexed": false,
          "internalType": "address",
          "name": "proxy",
          "type": "address"
        }
      ],
      "name": "ProxyAnnounceRemoved",
      "type": "event"
    },
    {
      "anonymous": false,
      "inputs": [
        {
          "indexed": false,
          "internalType": "address",
          "name": "proxy",
          "type": "address"
        },
        {
          "indexed": false,
          "internalType": "address",
          "name": "implementation",
          "type": "address"
        }
      ],
      "name": "ProxyUpgradeAnnounced",
      "type": "event"
    },
    {
      "anonymous": false,
      "inputs": [
        {
          "indexed": false,
          "internalType": "address",
          "name": "proxy",
          "type": "address"
        },
        {
          "indexed": false,
          "internalType": "address",
          "name": "implementation",
          "type": "address"
        }
      ],
      "name": "ProxyUpgraded",
      "type": "event"
    },
    {
      "anonymous": false,
      "inputs": [
        {
          "indexed": false,
          "internalType": "uint256",
          "name": "value",
          "type": "uint256"
        },
        {
          "indexed": false,
          "internalType": "address",
          "name": "oldLogic",
          "type": "address"
        }
      ],
      "name": "RevisionIncreased",
      "type": "event"
    },
    {
      "inputs": [],
      "name": "CONTROLLABLE_VERSION",
      "outputs": [
        {
          "internalType": "string",
          "name": "",
          "type": "string"
        }
      ],
      "stateMutability": "view",
      "type": "function"
    },
    {
      "inputs": [],
      "name": "CONTROLLER_VERSION",
      "outputs": [
        {
          "internalType": "string",
          "name": "",
          "type": "string"
        }
      ],
      "stateMutability": "view",
      "type": "function"
    },
    {
      "inputs": [],
      "name": "I_TETU_ERC165",
      "outputs": [
        {
          "internalType": "bytes4",
          "name": "",
          "type": "bytes4"
        }
      ],
      "stateMutability": "view",
      "type": "function"
    },
    {
      "inputs": [],
      "name": "TIME_LOCK",
      "outputs": [
        {
          "internalType": "uint256",
          "name": "",
          "type": "uint256"
        }
      ],
      "stateMutability": "view",
      "type": "function"
    },
    {
      "inputs": [],
      "name": "addressAnnouncesList",
      "outputs": [
        {
          "components": [
            {
              "internalType": "uint256",
              "name": "_type",
              "type": "uint256"
            },
            {
              "internalType": "address",
              "name": "newAddress",
              "type": "address"
            },
            {
              "internalType": "uint256",
              "name": "timeLockAt",
              "type": "uint256"
            }
          ],
          "internalType": "struct Controller.AddressAnnounce[]",
          "name": "announces",
          "type": "tuple[]"
        }
      ],
      "stateMutability": "view",
      "type": "function"
    },
    {
      "inputs": [
        {
          "internalType": "enum Controller.AddressType",
          "name": "_type",
          "type": "uint8"
        },
        {
          "internalType": "address",
          "name": "value",
          "type": "address"
        }
      ],
      "name": "announceAddressChange",
      "outputs": [],
      "stateMutability": "nonpayable",
      "type": "function"
    },
    {
      "inputs": [
        {
          "internalType": "address[]",
          "name": "proxies",
          "type": "address[]"
        },
        {
          "internalType": "address[]",
          "name": "implementations",
          "type": "address[]"
        }
      ],
      "name": "announceProxyUpgrade",
      "outputs": [],
      "stateMutability": "nonpayable",
      "type": "function"
    },
    {
      "inputs": [
        {
          "internalType": "enum Controller.AddressType",
          "name": "_type",
          "type": "uint8"
        }
      ],
      "name": "changeAddress",
      "outputs": [],
      "stateMutability": "nonpayable",
      "type": "function"
    },
    {
      "inputs": [],
      "name": "controller",
      "outputs": [
        {
          "internalType": "address",
          "name": "",
          "type": "address"
        }
      ],
      "stateMutability": "view",
      "type": "function"
    },
    {
      "inputs": [],
      "name": "created",
      "outputs": [
        {
          "internalType": "uint256",
          "name": "",
          "type": "uint256"
        }
      ],
      "stateMutability": "view",
      "type": "function"
    },
    {
      "inputs": [],
      "name": "createdBlock",
      "outputs": [
        {
          "internalType": "uint256",
          "name": "",
          "type": "uint256"
        }
      ],
      "stateMutability": "view",
      "type": "function"
    },
    {
      "inputs": [
        {
          "internalType": "uint256",
          "name": "slot",
          "type": "uint256"
        }
      ],
      "name": "getSlot",
      "outputs": [
        {
          "internalType": "bytes32",
          "name": "result",
          "type": "bytes32"
        }
      ],
      "stateMutability": "view",
      "type": "function"
    },
    {
      "inputs": [],
      "name": "governance",
      "outputs": [
        {
          "internalType": "address",
          "name": "",
          "type": "address"
        }
      ],
      "stateMutability": "view",
      "type": "function"
    },
    {
      "inputs": [
        {
          "internalType": "address",
          "name": "oldLogic",
          "type": "address"
        }
      ],
      "name": "increaseRevision",
      "outputs": [],
      "stateMutability": "nonpayable",
      "type": "function"
    },
    {
      "inputs": [
        {
          "internalType": "address",
          "name": "_governance",
          "type": "address"
        }
      ],
      "name": "init",
      "outputs": [],
      "stateMutability": "nonpayable",
      "type": "function"
    },
    {
      "inputs": [
        {
          "internalType": "address",
          "name": "_value",
          "type": "address"
        }
      ],
      "name": "isController",
      "outputs": [
        {
          "internalType": "bool",
          "name": "",
          "type": "bool"
        }
      ],
      "stateMutability": "view",
      "type": "function"
    },
    {
      "inputs": [
        {
          "internalType": "address",
          "name": "_value",
          "type": "address"
        }
      ],
      "name": "isGovernance",
      "outputs": [
        {
          "internalType": "bool",
          "name": "",
          "type": "bool"
        }
      ],
      "stateMutability": "view",
      "type": "function"
    },
    {
      "inputs": [],
      "name": "previousImplementation",
      "outputs": [
        {
          "internalType": "address",
          "name": "",
          "type": "address"
        }
      ],
      "stateMutability": "view",
      "type": "function"
    },
    {
      "inputs": [
        {
          "internalType": "address",
          "name": "",
          "type": "address"
        }
      ],
      "name": "proxyAnnounces",
      "outputs": [
        {
          "internalType": "address",
          "name": "",
          "type": "address"
        }
      ],
      "stateMutability": "view",
      "type": "function"
    },
    {
      "inputs": [],
      "name": "proxyAnnouncesList",
      "outputs": [
        {
          "components": [
            {
              "internalType": "address",
              "name": "proxy",
              "type": "address"
            },
            {
              "internalType": "address",
              "name": "implementation",
              "type": "address"
            },
            {
              "internalType": "uint256",
              "name": "timeLockAt",
              "type": "uint256"
            }
          ],
          "internalType": "struct Controller.ProxyAnnounce[]",
          "name": "announces",
          "type": "tuple[]"
        }
      ],
      "stateMutability": "view",
      "type": "function"
    },
    {
      "inputs": [
        {
          "internalType": "enum Controller.AddressType",
          "name": "_type",
          "type": "uint8"
        }
      ],
      "name": "removeAddressAnnounce",
      "outputs": [],
      "stateMutability": "nonpayable",
      "type": "function"
    },
    {
      "inputs": [
        {
          "internalType": "address",
          "name": "proxy",
          "type": "address"
        }
      ],
      "name": "removeProxyAnnounce",
      "outputs": [],
      "stateMutability": "nonpayable",
      "type": "function"
    },
    {
      "inputs": [],
      "name": "revision",
      "outputs": [
        {
          "internalType": "uint256",
          "name": "",
          "type": "uint256"
        }
      ],
      "stateMutability": "view",
      "type": "function"
    },
    {
      "inputs": [
        {
          "internalType": "bytes4",
          "name": "interfaceId",
          "type": "bytes4"
        }
      ],
      "name": "supportsInterface",
      "outputs": [
        {
          "internalType": "bool",
          "name": "",
          "type": "bool"
        }
      ],
      "stateMutability": "view",
      "type": "function"
    },
    {
      "inputs": [
        {
          "internalType": "address[]",
          "name": "proxies",
          "type": "address[]"
        }
      ],
      "name": "upgradeProxy",
      "outputs": [],
      "stateMutability": "nonpayable",
      "type": "function"
    }
  ],
  "transactionHash": "0x3c2327b26e8533e015b0759dd82ed9b9a4a3344a569289e05ea3e6100f569c36",
  "args": [],
  "numDeployments": 1,
  "solcInputHash": "66a0f7be4f01c27a4eec5bc8ef6aeaa8",
  "bytecode": "0x608060405234801561001057600080fd5b5061001961001e565b6100dd565b600054610100900460ff161561008a5760405162461bcd60e51b815260206004820152602760248201527f496e697469616c697a61626c653a20636f6e747261637420697320696e697469604482015266616c697a696e6760c81b606482015260840160405180910390fd5b60005460ff908116146100db576000805460ff191660ff9081179091556040519081527f7f26b83ff96e1f2b6a682f133852f6798a09c465da95921460cefb38474024989060200160405180910390a15b565b611cc4806100ec6000396000f3fe608060405234801561001057600080fd5b50600436106101635760003560e01c80637eba7ba6116100ce578063d471e04e11610087578063d471e04e146102fa578063dee1f0e41461032e578063e0a09c6814610341578063e531fca31461034b578063ec5755f21461035e578063f77c479114610387578063fc63d8c51461038f57600080fd5b80637eba7ba614610283578063834b5b1d1461029557806391eb2893146102a8578063936725ec146102bb5780639d0bcca0146102df578063b429afeb146102e757600080fd5b80635526d679116101205780635526d679146101e95780635aa6e6751461021a5780635efa6a0f146102405780636a364b701461025357806372e800dc146102685780637cc963801461027b57600080fd5b806301ffc9a71461016857806319ab453c146101905780632ca9e124146101a5578063325a19f1146101b85780634593144c146101ce5780634fac6ccd146101d6575b600080fd5b61017b6101763660046117c5565b6103a4565b60405190151581526020015b60405180910390f35b6101a361019e366004611817565b6103cf565b005b6101a36101b3366004611843565b610530565b6101c06106c3565b604051908152602001610187565b6101c06106f8565b6101a36101e4366004611817565b610728565b61020d604051806040016040528060058152602001640312e302e360dc1b81525081565b604051610187919061185e565b600054610233906201000090046001600160a01b031681565b60405161018791906118ac565b6101a361024e366004611817565b61082f565b61025b6108a4565b60405161018791906118c0565b6101a36102763660046119dd565b6109aa565b6101c0610b20565b6101c0610291366004611a41565b5490565b6101a36102a3366004611a5a565b610b3e565b6101a36102b6366004611a8f565b610cb0565b61020d60405180604001604052806005815260200164332e302e3160d81b81525081565b610233610db0565b61017b6102f5366004611817565b610de0565b6103217fb7b79fa96c6b05833230c71a365e58c01f37ecd85517ea152b4a3ffdb77bebbe81565b6040516101879190611ac6565b61017b61033c366004611817565b610e05565b6101c06202a30081565b6101a3610359366004611843565b610e8a565b61023361036c366004611817565b600a602052600090815260409020546001600160a01b031681565b610233610eff565b610397610f2f565b6040516101879190611adb565b60006001600160e01b03198216634c2403fd60e01b14806103c957506103c98261103b565b92915050565b600054610100900460ff16158080156103ef5750600054600160ff909116105b806104095750303b158015610409575060005460ff166001145b6104715760405162461bcd60e51b815260206004820152602e60248201527f496e697469616c697a61626c653a20636f6e747261637420697320616c72656160448201526d191e481a5b9a5d1a585b1a5e995960921b60648201526084015b60405180910390fd5b6000805460ff191660011790558015610494576000805461ff0019166101001790555b6001600160a01b0382166104ba5760405162461bcd60e51b815260040161046890611b30565b6000805462010000600160b01b031916620100006001600160a01b038516021790556104e530611060565b801561052c576000805461ff0019169055604051600181527f7f26b83ff96e1f2b6a682f133852f6798a09c465da95921460cefb3847402498906020015b60405180910390a15b5050565b6105386112c7565b600061055782600181111561054f5761054f611b55565b600490611312565b9050600061057883600181111561057057610570611b55565b600190611312565b90506000600184600181111561059057610590611b55565b036105c65750600080546001600160a01b038481166201000090810262010000600160b01b0319841617909355919004166105f8565b60405162461bcd60e51b81526020600482015260076024820152662aa725a727aba760c91b6044820152606401610468565b6001600160a01b03811615610626574282106106265760405162461bcd60e51b815260040161046890611b6b565b61064384600181111561063b5761063b611b55565b600490611325565b5061066184600181111561065957610659611b55565b600190611325565b507fefc52903db788e17531d774f10b7ba8aa84168d1dd422986f7927b2217d9f22684600181111561069557610695611b55565b604080519182526001600160a01b03808516602084015286169082015260600160405180910390a150505050565b60006106f361029160017f6f55f470bdc9cb5f04223fd822021061668e4dccb43e8727b295106dc9769c8b611ba1565b905090565b60006106f361029160017f812a673dfca07956350df10f8a654925f561d7a0da09bdbe79e653939a14d9f1611ba1565b3330146107775760405162461bcd60e51b815260206004820152601b60248201527f496e637265617365207265766973696f6e20666f7262696464656e00000000006044820152606401610468565b60006107956102916001600080516020611c6f833981519152611ba1565b6107a0906001611bb4565b90506107c2816107bf6001600080516020611c6f833981519152611ba1565b55565b6107f1826107bf60017fbfaaa2fb63266ff27c2da975f5894955056f50419af651a81f6c5060581857e4611ba1565b604080518281526001600160a01b03841660208201527ff27e2ef832a4eb8ed8ec553b875eecd44764cda95b1c24170e281539e0a869c89101610523565b6108376112c7565b610842600782611331565b506001600160a01b0381166000908152600a60205260409081902080546001600160a01b0319169055517fc36fceef7be7f36db68aa2c4db64a750af1f6c6fae84c854c36780290bd5ff7c906108999083906118ac565b60405180910390a150565b606060006108b26007611346565b90508067ffffffffffffffff8111156108cd576108cd611925565b60405190808252806020026020018201604052801561091857816020015b60408051606081018252600080825260208083018290529282015282526000199092019101816108eb5790505b50915060005b818110156109a557600080610934600784611351565b6001600160a01b038083166000818152600a6020908152604091829020548251606081018452938452909316928201839052810183905288519395509193509187908690811061098657610986611bc7565b60200260200101819052505050508061099e90611bdd565b905061091e565b505090565b6109b26112c7565b80518251146109d35760405162461bcd60e51b815260040161046890611b30565b60005b8251811015610b1b5760008382815181106109f3576109f3611bc7565b602002602001015190506000838381518110610a1157610a11611bc7565b6020026020010151905060006001600160a01b0316816001600160a01b031603610a695760405162461bcd60e51b815260206004820152600960248201526816915493d7d253541360ba1b6044820152606401610468565b610a8382610a7a6202a30042611bb4565b6007919061136d565b610a9f5760405162461bcd60e51b815260040161046890611bf6565b6001600160a01b038281166000818152600a602090815260409182902080546001600160a01b031916948616948517905581519283528201929092527fc654dba084e531d8a1ccba8dff839df3a215096b6f64c52c10978e12c7401b2b910160405180910390a150508080610b1390611bdd565b9150506109d6565b505050565b60006106f36102916001600080516020611c6f833981519152611ba1565b610b466112c7565b60005b815181101561052c576000828281518110610b6657610b66611bc7565b602002602001015190506000610b8682600761138b90919063ffffffff16565b6001600160a01b038084166000908152600a602052604090205491925016428210610bc35760405162461bcd60e51b815260040161046890611b6b565b60405162900f0160e41b81526001600160a01b03841690630900f01090610bee9084906004016118ac565b600060405180830381600087803b158015610c0857600080fd5b505af1158015610c1c573d6000803e3d6000fd5b50505050610c3483600761133190919063ffffffff16565b506001600160a01b038381166000818152600a602090815260409182902080546001600160a01b03191690558151928352928416928201929092527f3684250ce1e33b790ed973c23080f312db0adb21a6d98c61a5c9ff99e4babc17910160405180910390a15050508080610ca890611bdd565b915050610b49565b610cb86112c7565b6001600160a01b038116610cfb5760405162461bcd60e51b815260206004820152600a6024820152695a45524f5f56414c554560b01b6044820152606401610468565b610d19826001811115610d1057610d10611b55565b600490836113a0565b610d355760405162461bcd60e51b815260040161046890611bf6565b610d60826001811115610d4a57610d4a611b55565b610d576202a30042611bb4565b600191906113b6565b507f1ae9c74b5a424648701a218f05271d52c512ad2de5a488115fd1dff455b90d39826001811115610d9457610d94611b55565b604080519182526001600160a01b038416602083015201610523565b60006106f361029160017fbfaaa2fb63266ff27c2da975f5894955056f50419af651a81f6c5060581857e4611ba1565b6000610dea610eff565b6001600160a01b0316826001600160a01b0316149050919050565b6000816001600160a01b0316610e19610eff565b6001600160a01b0316635aa6e6756040518163ffffffff1660e01b8152600401602060405180830381865afa158015610e56573d6000803e3d6000fd5b505050506040513d601f19601f82011682018060405250810190610e7a9190611c19565b6001600160a01b03161492915050565b610e926112c7565b610ea781600181111561063b5761063b611b55565b50610ebd81600181111561065957610659611b55565b507fbee0dc892ef5ebe0fce2a20729dc5b1c3d433aa3b33c9546eee3042274229615816001811115610ef157610ef1611b55565b604051908152602001610899565b60006106f361029160017f5165972ef41194f06c5007493031d0b927c20741adcb74403b954009fd2c3618611ba1565b60606000610f3d6001611346565b90508067ffffffffffffffff811115610f5857610f58611925565b604051908082528060200260200182016040528015610fb657816020015b610fa360405180606001604052806000815260200160006001600160a01b03168152602001600081525090565b815260200190600190039081610f765790505b50915060005b818110156109a557600080610fd2600184611351565b90925090506000610fe4600484611312565b90506040518060600160405280848152602001826001600160a01b031681526020018381525086858151811061101c5761101c611bc7565b60200260200101819052505050508061103490611bdd565b9050610fbc565b60006001600160e01b0319821663c19fa56160e01b14806103c957506103c9826113c3565b600054610100900460ff166110cb5760405162461bcd60e51b815260206004820152602b60248201527f496e697469616c697a61626c653a20636f6e7472616374206973206e6f74206960448201526a6e697469616c697a696e6760a81b6064820152608401610468565b6001600160a01b0381166111135760405162461bcd60e51b815260206004820152600f60248201526e2d32b9379031b7b73a3937b63632b960891b6044820152606401610468565b61113d817f4c2403fdcb3cff9b705d96bf0705858e3390412670a62c8bcba611ca7e20ab866113f8565b60006001600160a01b0316816001600160a01b0316635aa6e6756040518163ffffffff1660e01b8152600401602060405180830381865afa158015611186573d6000803e3d6000fd5b505050506040513d601f19601f820116820180604052508101906111aa9190611c19565b6001600160a01b0316036111f25760405162461bcd60e51b815260206004820152600f60248201526e5a65726f20676f7665726e616e636560881b6044820152606401610468565b611221816107bf60017f5165972ef41194f06c5007493031d0b927c20741adcb74403b954009fd2c3618611ba1565b611250426107bf60017f6f55f470bdc9cb5f04223fd822021061668e4dccb43e8727b295106dc9769c8b611ba1565b61127f436107bf60017f812a673dfca07956350df10f8a654925f561d7a0da09bdbe79e653939a14d9f1611ba1565b604080516001600160a01b038316815242602082015243918101919091527f1a2dd071001ebf6e03174e3df5b305795a4ad5d41d8fdb9ba41dbbe23671342690606001610899565b6000546201000090046001600160a01b031633146113105760405162461bcd60e51b815260206004820152600660248201526511115392515160d21b6044820152606401610468565b565b600061131e838361144e565b9392505050565b600061131e83836114be565b600061131e836001600160a01b0384166114be565b60006103c9826114db565b600080808061136086866114e6565b9097909650945050505050565b6000611383846001600160a01b03851684611511565b949350505050565b600061131e836001600160a01b03841661144e565b600061138384846001600160a01b038516611511565b6000611383848484611511565b60006001600160e01b0319821663b7b79fa960e01b14806103c957506301ffc9a760e01b6001600160e01b03198316146103c9565b611402828261152e565b61052c5760405162461bcd60e51b815260206004820152601a60248201527f496e74657266616365206973206e6f7420737570706f727465640000000000006044820152606401610468565b60008181526002830160205260408120548015158061147257506114728484611607565b61131e5760405162461bcd60e51b815260206004820152601e60248201527f456e756d657261626c654d61703a206e6f6e6578697374656e74206b657900006044820152606401610468565b6000818152600283016020526040812081905561131e8383611613565b60006103c98261161f565b600080806114f48585611629565b600081815260029690960160205260409095205494959350505050565b600082815260028401602052604081208290556113838484611635565b60006001600160a01b0383166115755760405162461bcd60e51b815260206004820152600c60248201526b5a65726f206164647265737360a01b6044820152606401610468565b823b600081900361158a5760009150506103c9565b6040516301ffc9a760e01b81526001600160a01b038516906301ffc9a7906115b6908690600401611ac6565b602060405180830381865afa9250505080156115ef575060408051601f3d908101601f191682019092526115ec91810190611c36565b60015b156115fd5791506103c99050565b5060009392505050565b600061131e8383611641565b600061131e8383611659565b60006103c9825490565b600061131e838361174c565b600061131e8383611776565b6000818152600183016020526040812054151561131e565b6000818152600183016020526040812054801561174257600061167d600183611ba1565b855490915060009061169190600190611ba1565b90508181146116f65760008660000182815481106116b1576116b1611bc7565b90600052602060002001549050808760000184815481106116d4576116d4611bc7565b6000918252602080832090910192909255918252600188019052604090208390555b855486908061170757611707611c58565b6001900381819060005260206000200160009055905585600101600086815260200190815260200160002060009055600193505050506103c9565b60009150506103c9565b600082600001828154811061176357611763611bc7565b9060005260206000200154905092915050565b60008181526001830160205260408120546117bd575081546001818101845560008481526020808220909301849055845484825282860190935260409020919091556103c9565b5060006103c9565b6000602082840312156117d757600080fd5b81356001600160e01b03198116811461131e57600080fd5b6001600160a01b038116811461180457600080fd5b50565b8035611812816117ef565b919050565b60006020828403121561182957600080fd5b813561131e816117ef565b80356002811061181257600080fd5b60006020828403121561185557600080fd5b61131e82611834565b600060208083528351808285015260005b8181101561188b5785810183015185820160400152820161186f565b506000604082860101526040601f19601f8301168501019250505092915050565b6001600160a01b0391909116815260200190565b602080825282518282018190526000919060409081850190868401855b8281101561191857815180516001600160a01b03908116865287820151168786015285015185850152606090930192908501906001016118dd565b5091979650505050505050565b634e487b7160e01b600052604160045260246000fd5b600082601f83011261194c57600080fd5b8135602067ffffffffffffffff8083111561196957611969611925565b8260051b604051601f19603f8301168101818110848211171561198e5761198e611925565b6040529384528581018301938381019250878511156119ac57600080fd5b83870191505b848210156119d2576119c382611807565b835291830191908301906119b2565b979650505050505050565b600080604083850312156119f057600080fd5b823567ffffffffffffffff80821115611a0857600080fd5b611a148683870161193b565b93506020850135915080821115611a2a57600080fd5b50611a378582860161193b565b9150509250929050565b600060208284031215611a5357600080fd5b5035919050565b600060208284031215611a6c57600080fd5b813567ffffffffffffffff811115611a8357600080fd5b6113838482850161193b565b60008060408385031215611aa257600080fd5b611aab83611834565b91506020830135611abb816117ef565b809150509250929050565b6001600160e01b031991909116815260200190565b602080825282518282018190526000919060409081850190868401855b8281101561191857815180518552868101516001600160a01b0316878601528501518585015260609093019290850190600101611af8565b6020808252600b908201526a15d493d391d7d25394155560aa1b604082015260600190565b634e487b7160e01b600052602160045260246000fd5b6020808252600690820152651313d0d2d15160d21b604082015260600190565b634e487b7160e01b600052601160045260246000fd5b818103818111156103c9576103c9611b8b565b808201808211156103c9576103c9611b8b565b634e487b7160e01b600052603260045260246000fd5b600060018201611bef57611bef611b8b565b5060010190565b60208082526009908201526810539393d55390d15160ba1b604082015260600190565b600060208284031215611c2b57600080fd5b815161131e816117ef565b600060208284031215611c4857600080fd5b8151801515811461131e57600080fd5b634e487b7160e01b600052603160045260246000fdfe22573091f17911fb166032a3d9e0554aa73d31b7b7ddea4a4dd2995650af84bda264697066735822122048e7c3422e3a216d2eb0c19532338af6694e0824959b6dd006ddcfc4ce552b6064736f6c63430008130033",
  "devdoc": {
    "events": {
      "Initialized(uint8)": {
        "details": "Triggered when the contract has been initialized or reinitialized."
      }
    },
    "kind": "dev",
    "methods": {
      "addressAnnouncesList()": {
        "details": "Return all announced address changes."
      },
      "announceAddressChange(uint8,address)": {
        "details": "Add announce information for given address type."
      },
      "changeAddress(uint8)": {
        "details": "Change time-locked address and remove lock info.      Less strict for reduce governance actions."
      },
      "created()": {
        "returns": {
          "_0": "Creation timestamp"
        }
      },
      "createdBlock()": {
        "returns": {
          "_0": "Creation block number"
        }
      },
      "getSlot(uint256)": {
        "details": "Gets a slot as bytes32"
      },
      "increaseRevision(address)": {
        "details": "Revision should be increased on each contract upgrade"
      },
      "init(address)": {
        "details": "Proxy initialization. Call it after contract deploy."
      },
      "isController(address)": {
        "details": "Return true if given address is controller"
      },
      "previousImplementation()": {
        "details": "Previous logic implementation"
      },
      "proxyAnnouncesList()": {
        "details": "Return all announced proxy upgrades."
      },
      "removeAddressAnnounce(uint8)": {
        "details": "Remove announced address change."
      },
      "revision()": {
        "details": "Contract upgrade counter"
      },
      "supportsInterface(bytes4)": {
        "details": "See {IERC165-supportsInterface}."
      },
      "upgradeProxy(address[])": {
        "details": "Upgrade proxy. Less strict for reduce governance actions."
      }
    },
    "stateVariables": {
      "CONTROLLER_VERSION": {
        "details": "Version of this contract. Adjust manually on each code modification."
      }
    },
    "version": 1
  },
  "userdoc": {
    "kind": "user",
    "methods": {
      "CONTROLLABLE_VERSION()": {
        "notice": "Version of the contract"
      },
      "controller()": {
        "notice": "Return controller address saved in the contract slot"
      },
      "created()": {
        "notice": "Return creation timestamp"
      },
      "createdBlock()": {
        "notice": "Return creation block number"
      },
      "isGovernance(address)": {
        "notice": "Return true if given address is setup as governance in Controller"
      }
    },
    "version": 1
  },
  "storageLayout": {
    "storage": [
      {
        "astId": 6,
        "contract": "contracts/Controller.sol:Controller",
        "label": "_initialized",
        "offset": 0,
        "slot": "0",
        "type": "t_uint8"
      },
      {
        "astId": 9,
        "contract": "contracts/Controller.sol:Controller",
        "label": "_initializing",
        "offset": 1,
        "slot": "0",
        "type": "t_bool"
      },
      {
        "astId": 9184,
        "contract": "contracts/Controller.sol:Controller",
        "label": "governance",
        "offset": 2,
        "slot": "0",
        "type": "t_address"
      },
      {
        "astId": 9187,
        "contract": "contracts/Controller.sol:Controller",
        "label": "_addressTimeLocks",
        "offset": 0,
        "slot": "1",
        "type": "t_struct(UintToUintMap)4846_storage"
      },
      {
        "astId": 9190,
        "contract": "contracts/Controller.sol:Controller",
        "label": "_addressAnnounces",
        "offset": 0,
        "slot": "4",
        "type": "t_struct(UintToAddressMap)5083_storage"
      },
      {
        "astId": 9193,
        "contract": "contracts/Controller.sol:Controller",
        "label": "_proxyTimeLocks",
        "offset": 0,
        "slot": "7",
        "type": "t_struct(AddressToUintMap)5350_storage"
      },
      {
        "astId": 9197,
        "contract": "contracts/Controller.sol:Controller",
        "label": "proxyAnnounces",
        "offset": 0,
        "slot": "10",
        "type": "t_mapping(t_address,t_address)"
      }
    ],
    "types": {
      "t_address": {
        "encoding": "inplace",
        "label": "address",
        "numberOfBytes": "20"
      },
      "t_array(t_bytes32)dyn_storage": {
        "base": "t_bytes32",
        "encoding": "dynamic_array",
        "label": "bytes32[]",
        "numberOfBytes": "32"
      },
      "t_bool": {
        "encoding": "inplace",
        "label": "bool",
        "numberOfBytes": "1"
      },
      "t_bytes32": {
        "encoding": "inplace",
        "label": "bytes32",
        "numberOfBytes": "32"
      },
      "t_mapping(t_address,t_address)": {
        "encoding": "mapping",
        "key": "t_address",
        "label": "mapping(address => address)",
        "numberOfBytes": "32",
        "value": "t_address"
      },
      "t_mapping(t_bytes32,t_bytes32)": {
        "encoding": "mapping",
        "key": "t_bytes32",
        "label": "mapping(bytes32 => bytes32)",
        "numberOfBytes": "32",
        "value": "t_bytes32"
      },
      "t_mapping(t_bytes32,t_uint256)": {
        "encoding": "mapping",
        "key": "t_bytes32",
        "label": "mapping(bytes32 => uint256)",
        "numberOfBytes": "32",
        "value": "t_uint256"
      },
      "t_struct(AddressToUintMap)5350_storage": {
        "encoding": "inplace",
        "label": "struct EnumerableMap.AddressToUintMap",
        "members": [
          {
            "astId": 5349,
            "contract": "contracts/Controller.sol:Controller",
            "label": "_inner",
            "offset": 0,
            "slot": "0",
            "type": "t_struct(Bytes32ToBytes32Map)4600_storage"
          }
        ],
        "numberOfBytes": "96"
      },
      "t_struct(Bytes32Set)6047_storage": {
        "encoding": "inplace",
        "label": "struct EnumerableSet.Bytes32Set",
        "members": [
          {
            "astId": 6046,
            "contract": "contracts/Controller.sol:Controller",
            "label": "_inner",
            "offset": 0,
            "slot": "0",
            "type": "t_struct(Set)5853_storage"
          }
        ],
        "numberOfBytes": "64"
      },
      "t_struct(Bytes32ToBytes32Map)4600_storage": {
        "encoding": "inplace",
        "label": "struct EnumerableMap.Bytes32ToBytes32Map",
        "members": [
          {
            "astId": 4595,
            "contract": "contracts/Controller.sol:Controller",
            "label": "_keys",
            "offset": 0,
            "slot": "0",
            "type": "t_struct(Bytes32Set)6047_storage"
          },
          {
            "astId": 4599,
            "contract": "contracts/Controller.sol:Controller",
            "label": "_values",
            "offset": 0,
            "slot": "2",
            "type": "t_mapping(t_bytes32,t_bytes32)"
          }
        ],
        "numberOfBytes": "96"
      },
      "t_struct(Set)5853_storage": {
        "encoding": "inplace",
        "label": "struct EnumerableSet.Set",
        "members": [
          {
            "astId": 5848,
            "contract": "contracts/Controller.sol:Controller",
            "label": "_values",
            "offset": 0,
            "slot": "0",
            "type": "t_array(t_bytes32)dyn_storage"
          },
          {
            "astId": 5852,
            "contract": "contracts/Controller.sol:Controller",
            "label": "_indexes",
            "offset": 0,
            "slot": "1",
            "type": "t_mapping(t_bytes32,t_uint256)"
          }
        ],
        "numberOfBytes": "64"
      },
      "t_struct(UintToAddressMap)5083_storage": {
        "encoding": "inplace",
        "label": "struct EnumerableMap.UintToAddressMap",
        "members": [
          {
            "astId": 5082,
            "contract": "contracts/Controller.sol:Controller",
            "label": "_inner",
            "offset": 0,
            "slot": "0",
            "type": "t_struct(Bytes32ToBytes32Map)4600_storage"
          }
        ],
        "numberOfBytes": "96"
      },
      "t_struct(UintToUintMap)4846_storage": {
        "encoding": "inplace",
        "label": "struct EnumerableMap.UintToUintMap",
        "members": [
          {
            "astId": 4845,
            "contract": "contracts/Controller.sol:Controller",
            "label": "_inner",
            "offset": 0,
            "slot": "0",
            "type": "t_struct(Bytes32ToBytes32Map)4600_storage"
          }
        ],
        "numberOfBytes": "96"
      },
      "t_uint256": {
        "encoding": "inplace",
        "label": "uint256",
        "numberOfBytes": "32"
      },
      "t_uint8": {
        "encoding": "inplace",
        "label": "uint8",
        "numberOfBytes": "1"
      }
    }
  }
}