{
  "address": "0x57Fc539b66bdc081e19bd828e6C668B249867959",
  "abi": [
    {
      "anonymous": false,
      "inputs": [
        {
          "indexed": true,
          "internalType": "address",
          "name": "previousOwner",
          "type": "address"
        },
        {
          "indexed": true,
          "internalType": "address",
          "name": "newOwner",
          "type": "address"
        }
      ],
      "name": "OwnershipTransferred",
      "type": "event"
    },
    {
      "anonymous": false,
      "inputs": [
        {
          "indexed": false,
          "internalType": "address",
          "name": "_sortedTrovesAddress",
          "type": "address"
        }
      ],
      "name": "SortedTrovesAddressChanged",
      "type": "event"
    },
    {
      "anonymous": false,
      "inputs": [
        {
          "indexed": false,
          "internalType": "address",
          "name": "_troveManagerAddress",
          "type": "address"
        }
      ],
      "name": "TroveManagerAddressChanged",
      "type": "event"
    },
    {
      "inputs": [],
      "name": "BORROWING_FEE_FLOOR",
      "outputs": [
        {
          "internalType": "uint256",
          "name": "",
          "type": "uint256"
        }
      ],
      "stateMutability": "view",
      "type": "function"
    },
    {
      "inputs": [],
      "name": "CCR",
      "outputs": [
        {
          "internalType": "uint256",
          "name": "",
          "type": "uint256"
        }
      ],
      "stateMutability": "view",
      "type": "function"
    },
    {
      "inputs": [],
      "name": "DECIMAL_PRECISION",
      "outputs": [
        {
          "internalType": "uint256",
          "name": "",
          "type": "uint256"
        }
      ],
      "stateMutability": "view",
      "type": "function"
    },
    {
      "inputs": [],
      "name": "MCR",
      "outputs": [
        {
          "internalType": "uint256",
          "name": "",
          "type": "uint256"
        }
      ],
      "stateMutability": "view",
      "type": "function"
    },
    {
      "inputs": [],
      "name": "MIN_NET_DEBT",
      "outputs": [
        {
          "internalType": "uint256",
          "name": "",
          "type": "uint256"
        }
      ],
      "stateMutability": "view",
      "type": "function"
    },
    {
      "inputs": [],
      "name": "NAME",
      "outputs": [
        {
          "internalType": "string",
          "name": "",
          "type": "string"
        }
      ],
      "stateMutability": "view",
      "type": "function"
    },
    {
      "inputs": [],
      "name": "PERCENT_DIVISOR",
      "outputs": [
        {
          "internalType": "uint256",
          "name": "",
          "type": "uint256"
        }
      ],
      "stateMutability": "view",
      "type": "function"
    },
    {
      "inputs": [],
      "name": "_100pct",
      "outputs": [
        {
          "internalType": "uint256",
          "name": "",
          "type": "uint256"
        }
      ],
      "stateMutability": "view",
      "type": "function"
    },
    {
      "inputs": [],
      "name": "activePool",
      "outputs": [
        {
          "internalType": "contract IActivePool",
          "name": "",
          "type": "address"
        }
      ],
      "stateMutability": "view",
      "type": "function"
    },
    {
      "inputs": [
        {
          "internalType": "uint256",
          "name": "_coll",
          "type": "uint256"
        },
        {
          "internalType": "uint256",
          "name": "_debt",
          "type": "uint256"
        },
        {
          "internalType": "uint256",
          "name": "_price",
          "type": "uint256"
        }
      ],
      "name": "computeCR",
      "outputs": [
        {
          "internalType": "uint256",
          "name": "",
          "type": "uint256"
        }
      ],
      "stateMutability": "pure",
      "type": "function"
    },
    {
      "inputs": [
        {
          "internalType": "uint256",
          "name": "_coll",
          "type": "uint256"
        },
        {
          "internalType": "uint256",
          "name": "_debt",
          "type": "uint256"
        }
      ],
      "name": "computeNominalCR",
      "outputs": [
        {
          "internalType": "uint256",
          "name": "",
          "type": "uint256"
        }
      ],
      "stateMutability": "pure",
      "type": "function"
    },
    {
      "inputs": [],
      "name": "defaultPool",
      "outputs": [
        {
          "internalType": "contract IDefaultPool",
          "name": "",
          "type": "address"
        }
      ],
      "stateMutability": "view",
      "type": "function"
    },
    {
      "inputs": [
        {
          "internalType": "uint256",
          "name": "_CR",
          "type": "uint256"
        },
        {
          "internalType": "uint256",
          "name": "_numTrials",
          "type": "uint256"
        },
        {
          "internalType": "uint256",
          "name": "_inputRandomSeed",
          "type": "uint256"
        }
      ],
      "name": "getApproxHint",
      "outputs": [
        {
          "internalType": "address",
          "name": "hintAddress",
          "type": "address"
        },
        {
          "internalType": "uint256",
          "name": "diff",
          "type": "uint256"
        },
        {
          "internalType": "uint256",
          "name": "latestRandomSeed",
          "type": "uint256"
        }
      ],
      "stateMutability": "view",
      "type": "function"
    },
    {
      "inputs": [],
      "name": "getEntireSystemColl",
      "outputs": [
        {
          "internalType": "uint256",
          "name": "entireSystemColl",
          "type": "uint256"
        }
      ],
      "stateMutability": "view",
      "type": "function"
    },
    {
      "inputs": [],
      "name": "getEntireSystemDebt",
      "outputs": [
        {
          "internalType": "uint256",
          "name": "entireSystemDebt",
          "type": "uint256"
        }
      ],
      "stateMutability": "view",
      "type": "function"
    },
    {
      "inputs": [
        {
          "internalType": "uint256",
          "name": "_SIMamount",
          "type": "uint256"
        },
        {
          "internalType": "uint256",
          "name": "_price",
          "type": "uint256"
        },
        {
          "internalType": "uint256",
          "name": "_maxIterations",
          "type": "uint256"
        }
      ],
      "name": "getRedemptionHints",
      "outputs": [
        {
          "internalType": "address",
          "name": "firstRedemptionHint",
          "type": "address"
        },
        {
          "internalType": "uint256",
          "name": "partialRedemptionHintNICR",
          "type": "uint256"
        },
        {
          "internalType": "uint256",
          "name": "truncatedSIMamount",
          "type": "uint256"
        }
      ],
      "stateMutability": "view",
      "type": "function"
    },
    {
      "inputs": [],
      "name": "owner",
      "outputs": [
        {
          "internalType": "address",
          "name": "",
          "type": "address"
        }
      ],
      "stateMutability": "view",
      "type": "function"
    },
    {
      "inputs": [],
      "name": "priceFeed",
      "outputs": [
        {
          "internalType": "contract IPriceFeed",
          "name": "",
          "type": "address"
        }
      ],
      "stateMutability": "view",
      "type": "function"
    },
    {
      "inputs": [],
      "name": "renounceOwnership",
      "outputs": [],
      "stateMutability": "nonpayable",
      "type": "function"
    },
    {
      "inputs": [
        {
          "internalType": "address",
          "name": "_sortedTrovesAddress",
          "type": "address"
        },
        {
          "internalType": "address",
          "name": "_troveManagerAddress",
          "type": "address"
        }
      ],
      "name": "setAddresses",
      "outputs": [],
      "stateMutability": "nonpayable",
      "type": "function"
    },
    {
      "inputs": [],
      "name": "sortedTroves",
      "outputs": [
        {
          "internalType": "contract ISortedTroves",
          "name": "",
          "type": "address"
        }
      ],
      "stateMutability": "view",
      "type": "function"
    },
    {
      "inputs": [
        {
          "internalType": "address",
          "name": "newOwner",
          "type": "address"
        }
      ],
      "name": "transferOwnership",
      "outputs": [],
      "stateMutability": "nonpayable",
      "type": "function"
    },
    {
      "inputs": [],
      "name": "troveManager",
      "outputs": [
        {
          "internalType": "contract ITroveManager",
          "name": "",
          "type": "address"
        }
      ],
      "stateMutability": "view",
      "type": "function"
    }
  ],
  "transactionHash": "0x04e00a6f1eb34a99eca05cee94ce3d0e2bec884bfcdd3039b447bc47819e4e39",
  "args": [],
  "numDeployments": 1,
  "solcInputHash": "4ec6f9376f02b1b14c8f28d3638a109e",
  "bytecode": "0x608060405234801561001057600080fd5b5061001a3361001f565b610071565b600380546001600160a01b038381166001600160a01b0319831681179093556040519116919082907f8be0079c531659141344cd1fd0a4f28419497f9722a3daafe3b4186f6b6457e090600090a35050565b611272806100806000396000f3fe608060405234801561001057600080fd5b506004361061014d5760003560e01c8063795d26c3116100c3578063a20baee61161007c578063a20baee61461018f578063a3f4df7e1461028f578063ae918754146102c6578063c394a7fa146102d9578063f2fde38b146102ec578063f92d3433146102ff57600080fd5b8063795d26c3146102355780637b41bdbe1461023d5780637f7dde4a14610250578063887105d3146102635780638da5cb5b1461026b57806390107afe1461027c57600080fd5b8063525acdbb11610115578063525acdbb146101e75780635733d58f146101fa578063715018a61461020957806372fe25aa1461018f578063741bef1a14610213578063794e57241461022657600080fd5b806313144dba146101525780631bf435551461018f5780633cc74225146101ac5780633d83908a146101cc5780634870dd9a146101df575b600080fd5b61016561016036600461102a565b610307565b604080516001600160a01b0390941684526020840192909252908201526060015b60405180910390f35b61019e670de0b6b3a764000081565b604051908152602001610186565b6001546101bf906001600160a01b031681565b6040516101869190611056565b6005546101bf906001600160a01b031681565b61019e60c881565b61019e6101f536600461102a565b6107e7565b61019e6714d1120d7b16000081565b6102116107fe565b005b6002546101bf906001600160a01b031681565b61019e670f43fc2c04ee000081565b61019e610812565b61016561024b36600461102a565b61090e565b6000546101bf906001600160a01b031681565b61019e610bfa565b6003546001600160a01b03166101bf565b61021161028a36600461107f565b610cbf565b6102b96040518060400160405280600b81526020016a48696e7448656c7065727360a81b81525081565b60405161018691906110b8565b6004546101bf906001600160a01b031681565b61019e6102e7366004611106565b610d84565b6102116102fa366004611128565b610d99565b61019e610e17565b6004805460408051634d62283160e01b81529051600093849384936001600160a01b0390911692899285928592634d622831928281019260209291908290030181865afa15801561035c573d6000803e3d6000fd5b505050506040513d601f19601f820116820180604052508101906103809190611145565b90505b6001600160a01b038116158015906104155750600554604051630d293c7160e41b81526001600160a01b038381166004830152602482018b9052670f43fc2c04ee000092169063d293c71090604401602060405180830381865afa1580156103ef573d6000803e3d6000fd5b505050506040513d601f19601f820116820180604052508101906104139190611162565b105b1561048e57604051632dc9c0eb60e21b81526001600160a01b0384169063b72703ac90610446908490600401611056565b602060405180830381865afa158015610463573d6000803e3d6000fd5b505050506040513d601f19601f820116820180604052508101906104879190611145565b9050610383565b8095508660000361049f5760001996505b6001600160a01b038116158015906104b75750600082115b80156104ce575060006104c988611191565b975087115b156107cf576005546040516312d954e360e01b81526000916001600160a01b0316906312d954e390610504908590600401611056565b602060405180830381865afa158015610521573d6000803e3d6000fd5b505050506040513d601f19601f820116820180604052508101906105459190611162565b60055460405163d66a255360e01b81526105bb916001600160a01b03169063d66a255390610577908790600401611056565b602060405180830381865afa158015610594573d6000803e3d6000fd5b505050506040513d601f19601f820116820180604052508101906105b89190611162565b90565b6105c591906111a8565b90508281111561074e57670de0b6b3a76400008111156107485760006105fc846105f7670de0b6b3a7640000856111bb565b610e39565b600554604051637af6696160e11b81529192506000916001600160a01b039091169063f5ecd2c290610632908790600401611056565b602060405180830381865afa15801561064f573d6000803e3d6000fd5b505050506040513d601f19601f820116820180604052508101906106739190611162565b6005546040516309019aaf60e31b81526001600160a01b039091169063480cd578906106a3908890600401611056565b602060405180830381865afa1580156106c0573d6000803e3d6000fd5b505050506040513d601f19601f820116820180604052508101906106e49190611162565b6106ee91906111a8565b905060008b610705670de0b6b3a7640000856111ce565b61070f91906111fb565b61071990836111bb565b9050600061072784866111bb565b9050806107348382610e4f565b9a5061074085896111bb565b975050505050505b506107cf565b61075881846111bb565b9250604051632dc9c0eb60e21b81526001600160a01b0385169063b72703ac90610786908590600401611056565b602060405180830381865afa1580156107a3573d6000803e3d6000fd5b505050506040513d601f19601f820116820180604052508101906107c79190611145565b91505061049f565b6107d9828a6111bb565b935050505093509350939050565b60006107f4848484610e85565b90505b9392505050565b610806610eb6565b6108106000610f10565b565b600080546040805163c7662fa560e01b8152905183926001600160a01b03169163c7662fa59160048083019260209291908290030181865afa15801561085c573d6000803e3d6000fd5b505050506040513d601f19601f820116820180604052508101906108809190611162565b90506000600160009054906101000a90046001600160a01b03166001600160a01b031663c7662fa56040518163ffffffff1660e01b8152600401602060405180830381865afa1580156108d7573d6000803e3d6000fd5b505050506040513d601f19601f820116820180604052508101906108fb9190611162565b905061090781836111a8565b9250505090565b600080600080600560009054906101000a90046001600160a01b03166001600160a01b03166349eefeee6040518163ffffffff1660e01b8152600401602060405180830381865afa158015610967573d6000803e3d6000fd5b505050506040513d601f19601f8201168201806040525081019061098b9190611162565b9050806000036109a5576000808693509350935050610bf1565b6004805460408051634d62283160e01b815290516001600160a01b0390921692634d6228319282820192602092908290030181865afa1580156109ec573d6000803e3d6000fd5b505050506040513d601f19601f82011682018060405250810190610a109190611145565b60055460405163b0d8e18160e01b8152919550610a8d9189916001600160a01b03169063b0d8e18190610a47908990600401611056565b602060405180830381865afa158015610a64573d6000803e3d6000fd5b505050506040513d601f19601f82011682018060405250810190610a889190611162565b610f62565b925084915060015b86811015610bee5760408051602081018590520160408051601f19818403018152919052805160209091012092506000610acf838561120f565b600554604051633669c91160e21b8152600481018390529192506000916001600160a01b039091169063d9a7244490602401602060405180830381865afa158015610b1e573d6000803e3d6000fd5b505050506040513d601f19601f82011682018060405250810190610b429190611145565b60055460405163b0d8e18160e01b81529192506000916001600160a01b039091169063b0d8e18190610b78908590600401611056565b602060405180830381865afa158015610b95573d6000803e3d6000fd5b505050506040513d601f19601f82011682018060405250810190610bb99190611162565b90506000610bc7828d610f62565b905087811015610bd8578097508298505b84610be281611223565b95505050505050610a95565b50505b93509350939050565b60008054604080516321901a7960e21b8152905183926001600160a01b03169163864069e49160048083019260209291908290030181865afa158015610c44573d6000803e3d6000fd5b505050506040513d601f19601f82011682018060405250810190610c689190611162565b90506000600160009054906101000a90046001600160a01b03166001600160a01b031663864069e46040518163ffffffff1660e01b8152600401602060405180830381865afa1580156108d7573d6000803e3d6000fd5b610cc7610eb6565b610cd082610f85565b610cd981610f85565b600480546001600160a01b038085166001600160a01b03199283161790925560058054928416929091169190911790556040517f65f4cf077bc01e4742eb5ad98326f6e95b63548ea24b17f8d5e823111fe7880090610d39908490611056565b60405180910390a17f143219c9e69b09e07e095fcc889b43d8f46ca892bba65f08dc3a0050869a567881604051610d709190611056565b60405180910390a1610d806107fe565b5050565b6000610d908383610e4f565b90505b92915050565b610da1610eb6565b6001600160a01b038116610e0b5760405162461bcd60e51b815260206004820152602660248201527f4f776e61626c653a206e6577206f776e657220697320746865207a65726f206160448201526564647265737360d01b60648201526084015b60405180910390fd5b610e1481610f10565b50565b610e2b6103e8670de0b6b3a76400006111fb565b610e369060056111ce565b81565b6000818310610e485781610d90565b5090919050565b60008115610e7c5781610e6b68056bc75e2d63100000856111ce565b610e7591906111fb565b9050610d93565b50600019610d93565b60008215610ead57600083610e9a84876111ce565b610ea491906111fb565b91506107f79050565b506000196107f7565b6003546001600160a01b031633146108105760405162461bcd60e51b815260206004820181905260248201527f4f776e61626c653a2063616c6c6572206973206e6f7420746865206f776e65726044820152606401610e02565b600380546001600160a01b038381166001600160a01b0319831681179093556040519116919082907f8be0079c531659141344cd1fd0a4f28419497f9722a3daafe3b4186f6b6457e090600090a35050565b600081831015610f7b57610f7683836111bb565b610d90565b610d9082846111bb565b6001600160a01b038116610fdb5760405162461bcd60e51b815260206004820152601e60248201527f4163636f756e742063616e6e6f74206265207a65726f206164647265737300006044820152606401610e02565b803b80610d805760405162461bcd60e51b815260206004820181905260248201527f4163636f756e7420636f64652073697a652063616e6e6f74206265207a65726f6044820152606401610e02565b60008060006060848603121561103f57600080fd5b505081359360208301359350604090920135919050565b6001600160a01b0391909116815260200190565b6001600160a01b0381168114610e1457600080fd5b6000806040838503121561109257600080fd5b823561109d8161106a565b915060208301356110ad8161106a565b809150509250929050565b600060208083528351808285015260005b818110156110e5578581018301518582016040015282016110c9565b506000604082860101526040601f19601f8301168501019250505092915050565b6000806040838503121561111957600080fd5b50508035926020909101359150565b60006020828403121561113a57600080fd5b81356107f78161106a565b60006020828403121561115757600080fd5b81516107f78161106a565b60006020828403121561117457600080fd5b5051919050565b634e487b7160e01b600052601160045260246000fd5b6000816111a0576111a061117b565b506000190190565b80820180821115610d9357610d9361117b565b81810381811115610d9357610d9361117b565b8082028115828204841417610d9357610d9361117b565b634e487b7160e01b600052601260045260246000fd5b60008261120a5761120a6111e5565b500490565b60008261121e5761121e6111e5565b500690565b6000600182016112355761123561117b565b506001019056fea2646970667358221220c80bfa2364c588fc65c86f6d356f5d0e7cd013fffd5da4c1b18e1002ffa7222864736f6c63430008130033",
  "devdoc": {
    "kind": "dev",
    "methods": {
      "owner()": {
        "details": "Returns the address of the current owner."
      },
      "renounceOwnership()": {
        "details": "Leaves the contract without owner. It will not be possible to call `onlyOwner` functions. Can only be called by the current owner. NOTE: Renouncing ownership will leave the contract without an owner, thereby disabling any functionality that is only available to the owner."
      },
      "transferOwnership(address)": {
        "details": "Transfers ownership of the contract to a new account (`newOwner`). Can only be called by the current owner."
      }
    },
    "version": 1
  },
  "userdoc": {
    "kind": "user",
    "methods": {},
    "version": 1
  },
  "storageLayout": {
    "storage": [
      {
        "astId": 21034,
        "contract": "contracts/HintHelpers.sol:HintHelpers",
        "label": "activePool",
        "offset": 0,
        "slot": "0",
        "type": "t_contract(IActivePool)23133"
      },
      {
        "astId": 21037,
        "contract": "contracts/HintHelpers.sol:HintHelpers",
        "label": "defaultPool",
        "offset": 0,
        "slot": "1",
        "type": "t_contract(IDefaultPool)23462"
      },
      {
        "astId": 21041,
        "contract": "contracts/HintHelpers.sol:HintHelpers",
        "label": "priceFeed",
        "offset": 0,
        "slot": "2",
        "type": "t_contract(IPriceFeed)23597"
      },
      {
        "astId": 590,
        "contract": "contracts/HintHelpers.sol:HintHelpers",
        "label": "_owner",
        "offset": 0,
        "slot": "3",
        "type": "t_address"
      },
      {
        "astId": 6827,
        "contract": "contracts/HintHelpers.sol:HintHelpers",
        "label": "sortedTroves",
        "offset": 0,
        "slot": "4",
        "type": "t_contract(ISortedTroves)23818"
      },
      {
        "astId": 6830,
        "contract": "contracts/HintHelpers.sol:HintHelpers",
        "label": "troveManager",
        "offset": 0,
        "slot": "5",
        "type": "t_contract(ITroveManager)24470"
      }
    ],
    "types": {
      "t_address": {
        "encoding": "inplace",
        "label": "address",
        "numberOfBytes": "20"
      },
      "t_contract(IActivePool)23133": {
        "encoding": "inplace",
        "label": "contract IActivePool",
        "numberOfBytes": "20"
      },
      "t_contract(IDefaultPool)23462": {
        "encoding": "inplace",
        "label": "contract IDefaultPool",
        "numberOfBytes": "20"
      },
      "t_contract(IPriceFeed)23597": {
        "encoding": "inplace",
        "label": "contract IPriceFeed",
        "numberOfBytes": "20"
      },
      "t_contract(ISortedTroves)23818": {
        "encoding": "inplace",
        "label": "contract ISortedTroves",
        "numberOfBytes": "20"
      },
      "t_contract(ITroveManager)24470": {
        "encoding": "inplace",
        "label": "contract ITroveManager",
        "numberOfBytes": "20"
      }
    }
  }
}