{
  "address": "0x7c0d6747738d341ba28dc9475FE0e7ffc25B7fdb",
  "abi": [
    {
      "anonymous": false,
      "inputs": [
        {
          "indexed": true,
          "internalType": "address",
          "name": "previousOwner",
          "type": "address"
        },
        {
          "indexed": true,
          "internalType": "address",
          "name": "newOwner",
          "type": "address"
        }
      ],
      "name": "OwnershipTransferred",
      "type": "event"
    },
    {
      "anonymous": false,
      "inputs": [
        {
          "indexed": false,
          "internalType": "address",
          "name": "_shadyTokenAddress",
          "type": "address"
        }
      ],
      "name": "SHADYTokenAddressSet",
      "type": "event"
    },
    {
      "anonymous": false,
      "inputs": [
        {
          "indexed": false,
          "internalType": "address",
          "name": "_stabilityPoolAddress",
          "type": "address"
        }
      ],
      "name": "StabilityPoolAddressSet",
      "type": "event"
    },
    {
      "anonymous": false,
      "inputs": [
        {
          "indexed": false,
          "internalType": "uint256",
          "name": "_totalSHADYIssued",
          "type": "uint256"
        }
      ],
      "name": "TotalSHADYIssuedUpdated",
      "type": "event"
    },
    {
      "inputs": [],
      "name": "DECIMAL_PRECISION",
      "outputs": [
        {
          "internalType": "uint256",
          "name": "",
          "type": "uint256"
        }
      ],
      "stateMutability": "view",
      "type": "function"
    },
    {
      "inputs": [],
      "name": "ISSUANCE_FACTOR",
      "outputs": [
        {
          "internalType": "uint256",
          "name": "",
          "type": "uint256"
        }
      ],
      "stateMutability": "view",
      "type": "function"
    },
    {
      "inputs": [],
      "name": "NAME",
      "outputs": [
        {
          "internalType": "string",
          "name": "",
          "type": "string"
        }
      ],
      "stateMutability": "view",
      "type": "function"
    },
    {
      "inputs": [],
      "name": "SECONDS_IN_ONE_MINUTE",
      "outputs": [
        {
          "internalType": "uint256",
          "name": "",
          "type": "uint256"
        }
      ],
      "stateMutability": "view",
      "type": "function"
    },
    {
      "inputs": [],
      "name": "SHADYSupplyCap",
      "outputs": [
        {
          "internalType": "uint256",
          "name": "",
          "type": "uint256"
        }
      ],
      "stateMutability": "view",
      "type": "function"
    },
    {
      "inputs": [],
      "name": "deploymentTime",
      "outputs": [
        {
          "internalType": "uint256",
          "name": "",
          "type": "uint256"
        }
      ],
      "stateMutability": "view",
      "type": "function"
    },
    {
      "inputs": [],
      "name": "issueSHADY",
      "outputs": [
        {
          "internalType": "uint256",
          "name": "",
          "type": "uint256"
        }
      ],
      "stateMutability": "nonpayable",
      "type": "function"
    },
    {
      "inputs": [],
      "name": "issuerAddress",
      "outputs": [
        {
          "internalType": "address",
          "name": "",
          "type": "address"
        }
      ],
      "stateMutability": "view",
      "type": "function"
    },
    {
      "inputs": [],
      "name": "owner",
      "outputs": [
        {
          "internalType": "address",
          "name": "",
          "type": "address"
        }
      ],
      "stateMutability": "view",
      "type": "function"
    },
    {
      "inputs": [],
      "name": "renounceOwnership",
      "outputs": [],
      "stateMutability": "nonpayable",
      "type": "function"
    },
    {
      "inputs": [
        {
          "internalType": "address",
          "name": "_account",
          "type": "address"
        },
        {
          "internalType": "uint256",
          "name": "_SHADYamount",
          "type": "uint256"
        }
      ],
      "name": "sendSHADY",
      "outputs": [],
      "stateMutability": "nonpayable",
      "type": "function"
    },
    {
      "inputs": [
        {
          "internalType": "address",
          "name": "_shadyTokenAddress",
          "type": "address"
        },
        {
          "internalType": "address",
          "name": "_issuerAddress",
          "type": "address"
        }
      ],
      "name": "setAddresses",
      "outputs": [],
      "stateMutability": "nonpayable",
      "type": "function"
    },
    {
      "inputs": [],
      "name": "shadyToken",
      "outputs": [
        {
          "internalType": "contract ISHADYToken",
          "name": "",
          "type": "address"
        }
      ],
      "stateMutability": "view",
      "type": "function"
    },
    {
      "inputs": [],
      "name": "totalSHADYIssued",
      "outputs": [
        {
          "internalType": "uint256",
          "name": "",
          "type": "uint256"
        }
      ],
      "stateMutability": "view",
      "type": "function"
    },
    {
      "inputs": [
        {
          "internalType": "address",
          "name": "newOwner",
          "type": "address"
        }
      ],
      "name": "transferOwnership",
      "outputs": [],
      "stateMutability": "nonpayable",
      "type": "function"
    }
  ],
  "transactionHash": "0x67444c74555417edefed355660d3e4851cf4c18bd86255a88a5d1c7f6c9e72fa",
  "args": [],
  "numDeployments": 1,
  "solcInputHash": "4ec6f9376f02b1b14c8f28d3638a109e",
  "bytecode": "0x60a060405234801561001057600080fd5b5061001a33610023565b42608052610073565b600080546001600160a01b038381166001600160a01b0319831681178455604051919092169283917f8be0079c531659141344cd1fd0a4f28419497f9722a3daafe3b4186f6b6457e09190a35050565b608051610b39610095600039600081816101f301526106660152610b396000f3fe608060405234801561001057600080fd5b50600436106100d55760003560e01c806390107afe1161008757806390107afe14610159578063a20baee61461016c578063a3f4df7e1461017b578063a63234e0146101bf578063aecb7be9146101d2578063c0504182146101db578063ecda10f5146101ee578063f2fde38b1461021557600080fd5b80630fc83da3146100da57806356061388146100fc578063586653e11461011c57806361ec893d1461012457806363f620c41461012c578063715018a61461013e5780638da5cb5b14610148575b600080fd5b6100e9670de0b5809a6f939881565b6040519081526020015b60405180910390f35b60015461010f906001600160a01b031681565b6040516100f3919061092b565b6100e9610228565b6100e9603c81565b6100e96a18d0bf423c03d8de00000081565b6101466102b7565b005b6000546001600160a01b031661010f565b61014661016736600461095b565b6102cb565b6100e9670de0b6b3a764000081565b6101b2604051806040016040528060188152602001774c69717569646974795265776172647349737375616e636560401b81525081565b6040516100f3919061098e565b60025461010f906001600160a01b031681565b6100e960035481565b6101466101e93660046109dc565b610408565b6100e97f000000000000000000000000000000000000000000000000000000000000000081565b610146610223366004610a06565b610579565b60006102326105f2565b6000670de0b6b3a764000061024561065c565b61025a906a18d0bf423c03d8de000000610a37565b6102649190610a64565b90506000600354826102769190610a78565b60038390556040518381529091507fca8c6da9ce6aab55ba8fc9e67c3d6d58167efeee4a5424619000f3efe9a9ef759060200160405180910390a192915050565b6102bf6106e2565b6102c9600061073c565b565b6102d36106e2565b6102dc8261078c565b600180546001600160a01b038085166001600160a01b0319928316811790935560028054918516919092161790556040516370a0823160e01b8152600091906370a082319061032f90309060040161092b565b602060405180830381865afa15801561034c573d6000803e3d6000fd5b505050506040513d601f19601f820116820180604052508101906103709190610a8b565b90506a18d0bf423c03d8de00000081101561038d5761038d610aa4565b7f9b259e146c2867d904f1e19936caa92e357539c679b78fb96c0a0b15160b7d18836040516103bc919061092b565b60405180910390a17f45c53611bc8ba9e11f4f8173bda9e3faf89c395ddb83f9a55230b156828db315826040516103f3919061092b565b60405180910390a16104036102b7565b505050565b6104106105f2565b6001546040516370a0823160e01b81526001600160a01b03909116906370a082319061044090309060040161092b565b602060405180830381865afa15801561045d573d6000803e3d6000fd5b505050506040513d601f19601f820116820180604052508101906104819190610a8b565b816003546a18d0bf423c03d8de00000061049b9190610a78565b6104a59190610aba565b11156105025760405162461bcd60e51b815260206004820152602160248201527f49737375616e63653a206e6f7420656e6f7567682069737375656420534841446044820152605960f81b60648201526084015b60405180910390fd5b60015460405163a9059cbb60e01b81526001600160a01b038481166004830152602482018490529091169063a9059cbb906044016020604051808303816000875af1158015610555573d6000803e3d6000fd5b505050506040513d601f19601f820116820180604052508101906104039190610acd565b6105816106e2565b6001600160a01b0381166105e65760405162461bcd60e51b815260206004820152602660248201527f4f776e61626c653a206e6577206f776e657220697320746865207a65726f206160448201526564647265737360d01b60648201526084016104f9565b6105ef8161073c565b50565b6002546001600160a01b031633146102c95760405162461bcd60e51b815260206004820152602760248201527f436f6d6d756e69747949737375616e63653a2063616c6c6572206973206e6f746044820152661034b9b9bab2b960c91b60648201526084016104f9565b600080603c61068b7f000000000000000000000000000000000000000000000000000000000000000042610a78565b6106959190610a64565b905060006106ab670de0b5809a6f939883610835565b905060006106c182670de0b6b3a7640000610a78565b9050670de0b6b3a76400008111156106db576106db610aa4565b9392505050565b6000546001600160a01b031633146102c95760405162461bcd60e51b815260206004820181905260248201527f4f776e61626c653a2063616c6c6572206973206e6f7420746865206f776e657260448201526064016104f9565b600080546001600160a01b038381166001600160a01b0319831681178455604051919092169283917f8be0079c531659141344cd1fd0a4f28419497f9722a3daafe3b4186f6b6457e09190a35050565b6001600160a01b0381166107e25760405162461bcd60e51b815260206004820152601e60248201527f4163636f756e742063616e6e6f74206265207a65726f2061646472657373000060448201526064016104f9565b803b806108315760405162461bcd60e51b815260206004820181905260248201527f4163636f756e7420636f64652073697a652063616e6e6f74206265207a65726f60448201526064016104f9565b5050565b6000631f54050082111561084b57631f54050091505b816000036108625750670de0b6b3a76400006108e6565b670de0b6b3a764000083835b60018111156108d657610882600282610aef565b6000036108a75761089382836108ec565b91506108a0600282610a64565b905061086e565b6108b182846108ec565b92506108bd82836108ec565b915060026108cc600183610a78565b6108a09190610a64565b6108e082846108ec565b93505050505b92915050565b6000806108f98385610a37565b9050670de0b6b3a764000061090f600282610a64565b6109199083610aba565b6109239190610a64565b949350505050565b6001600160a01b0391909116815260200190565b80356001600160a01b038116811461095657600080fd5b919050565b6000806040838503121561096e57600080fd5b6109778361093f565b91506109856020840161093f565b90509250929050565b600060208083528351808285015260005b818110156109bb5785810183015185820160400152820161099f565b506000604082860101526040601f19601f8301168501019250505092915050565b600080604083850312156109ef57600080fd5b6109f88361093f565b946020939093013593505050565b600060208284031215610a1857600080fd5b6106db8261093f565b634e487b7160e01b600052601160045260246000fd5b80820281158282048414176108e6576108e6610a21565b634e487b7160e01b600052601260045260246000fd5b600082610a7357610a73610a4e565b500490565b818103818111156108e6576108e6610a21565b600060208284031215610a9d57600080fd5b5051919050565b634e487b7160e01b600052600160045260246000fd5b808201808211156108e6576108e6610a21565b600060208284031215610adf57600080fd5b815180151581146106db57600080fd5b600082610afe57610afe610a4e565b50069056fea2646970667358221220804855dfd1019022f4bd9b1295351b12bf1dc052cd5a5bf3338a18a9e0f61f2b64736f6c63430008130033",
  "devdoc": {
    "kind": "dev",
    "methods": {
      "owner()": {
        "details": "Returns the address of the current owner."
      },
      "renounceOwnership()": {
        "details": "Leaves the contract without owner. It will not be possible to call `onlyOwner` functions. Can only be called by the current owner. NOTE: Renouncing ownership will leave the contract without an owner, thereby disabling any functionality that is only available to the owner."
      },
      "transferOwnership(address)": {
        "details": "Transfers ownership of the contract to a new account (`newOwner`). Can only be called by the current owner."
      }
    },
    "version": 1
  },
  "userdoc": {
    "kind": "user",
    "methods": {},
    "version": 1
  },
  "storageLayout": {
    "storage": [
      {
        "astId": 590,
        "contract": "contracts/LiquidityRewardsIssuance.sol:LiquidityRewardsIssuance",
        "label": "_owner",
        "offset": 0,
        "slot": "0",
        "type": "t_address"
      },
      {
        "astId": 21843,
        "contract": "contracts/LiquidityRewardsIssuance.sol:LiquidityRewardsIssuance",
        "label": "shadyToken",
        "offset": 0,
        "slot": "1",
        "type": "t_contract(ISHADYToken)23623"
      },
      {
        "astId": 21845,
        "contract": "contracts/LiquidityRewardsIssuance.sol:LiquidityRewardsIssuance",
        "label": "issuerAddress",
        "offset": 0,
        "slot": "2",
        "type": "t_address"
      },
      {
        "astId": 21847,
        "contract": "contracts/LiquidityRewardsIssuance.sol:LiquidityRewardsIssuance",
        "label": "totalSHADYIssued",
        "offset": 0,
        "slot": "3",
        "type": "t_uint256"
      }
    ],
    "types": {
      "t_address": {
        "encoding": "inplace",
        "label": "address",
        "numberOfBytes": "20"
      },
      "t_contract(ISHADYToken)23623": {
        "encoding": "inplace",
        "label": "contract ISHADYToken",
        "numberOfBytes": "20"
      },
      "t_uint256": {
        "encoding": "inplace",
        "label": "uint256",
        "numberOfBytes": "32"
      }
    }
  }
}