{
  "address": "0xaE8afcd6cB936E65DA62e405c624BE59B1FE47EE",
  "abi": [
    {
      "anonymous": false,
      "inputs": [
        {
          "indexed": false,
          "internalType": "address",
          "name": "lockupContractAddress_",
          "type": "address"
        },
        {
          "indexed": false,
          "internalType": "address",
          "name": "beneficiary_",
          "type": "address"
        },
        {
          "indexed": false,
          "internalType": "uint256",
          "name": "unlockTime_",
          "type": "uint256"
        },
        {
          "indexed": false,
          "internalType": "address",
          "name": "deployer_",
          "type": "address"
        }
      ],
      "name": "LockupContractDeployedThroughFactory",
      "type": "event"
    },
    {
      "anonymous": false,
      "inputs": [
        {
          "indexed": true,
          "internalType": "address",
          "name": "previousOwner",
          "type": "address"
        },
        {
          "indexed": true,
          "internalType": "address",
          "name": "newOwner",
          "type": "address"
        }
      ],
      "name": "OwnershipTransferred",
      "type": "event"
    },
    {
      "anonymous": false,
      "inputs": [
        {
          "indexed": false,
          "internalType": "address",
          "name": "shadyTokenAddress_",
          "type": "address"
        }
      ],
      "name": "SHADYTokenAddressSet",
      "type": "event"
    },
    {
      "inputs": [],
      "name": "NAME",
      "outputs": [
        {
          "internalType": "string",
          "name": "",
          "type": "string"
        }
      ],
      "stateMutability": "view",
      "type": "function"
    },
    {
      "inputs": [
        {
          "internalType": "address",
          "name": "_beneficiary",
          "type": "address"
        },
        {
          "internalType": "uint256",
          "name": "_unlockTime",
          "type": "uint256"
        }
      ],
      "name": "deployLockupContract",
      "outputs": [],
      "stateMutability": "nonpayable",
      "type": "function"
    },
    {
      "inputs": [
        {
          "internalType": "address",
          "name": "_contractAddress",
          "type": "address"
        }
      ],
      "name": "isRegisteredLockup",
      "outputs": [
        {
          "internalType": "bool",
          "name": "",
          "type": "bool"
        }
      ],
      "stateMutability": "view",
      "type": "function"
    },
    {
      "inputs": [
        {
          "internalType": "address",
          "name": "",
          "type": "address"
        }
      ],
      "name": "lockupContractToDeployer",
      "outputs": [
        {
          "internalType": "address",
          "name": "",
          "type": "address"
        }
      ],
      "stateMutability": "view",
      "type": "function"
    },
    {
      "inputs": [],
      "name": "owner",
      "outputs": [
        {
          "internalType": "address",
          "name": "",
          "type": "address"
        }
      ],
      "stateMutability": "view",
      "type": "function"
    },
    {
      "inputs": [],
      "name": "renounceOwnership",
      "outputs": [],
      "stateMutability": "nonpayable",
      "type": "function"
    },
    {
      "inputs": [
        {
          "internalType": "address",
          "name": "_shadyTokenAddress",
          "type": "address"
        }
      ],
      "name": "setSHADYTokenAddress",
      "outputs": [],
      "stateMutability": "nonpayable",
      "type": "function"
    },
    {
      "inputs": [],
      "name": "shadyTokenAddress",
      "outputs": [
        {
          "internalType": "address",
          "name": "",
          "type": "address"
        }
      ],
      "stateMutability": "view",
      "type": "function"
    },
    {
      "inputs": [
        {
          "internalType": "address",
          "name": "newOwner",
          "type": "address"
        }
      ],
      "name": "transferOwnership",
      "outputs": [],
      "stateMutability": "nonpayable",
      "type": "function"
    }
  ],
  "transactionHash": "0x25eb47641f501631b556091dfe3c443d7b0a653061f78cd105318471c06e695a",
  "args": [],
  "numDeployments": 1,
  "solcInputHash": "4ec6f9376f02b1b14c8f28d3638a109e",
  "bytecode": "0x608060405234801561001057600080fd5b5061001a3361001f565b61006f565b600080546001600160a01b038381166001600160a01b0319831681178455604051919092169283917f8be0079c531659141344cd1fd0a4f28419497f9722a3daafe3b4186f6b6457e09190a35050565b610ce48061007e6000396000f3fe608060405234801561001057600080fd5b50600436106100835760003560e01c806334c44b4d14610088578063715018a61461009d57806374e9d449146100a55780638da5cb5b146100d5578063a3f4df7e146100e6578063bb7603f114610127578063d83c72db14610165578063e8e787111461018e578063f2fde38b146101a1575b600080fd5b61009b610096366004610562565b6101b4565b005b61009b610294565b6001546100b8906001600160a01b031681565b6040516001600160a01b0390911681526020015b60405180910390f35b6000546001600160a01b03166100b8565b61011a604051806040016040528060158152602001744c6f636b7570436f6e7472616374466163746f727960581b81525081565b6040516100cc919061058c565b6101556101353660046105da565b6001600160a01b0390811660009081526002602052604090205416151590565b60405190151581526020016100cc565b6100b86101733660046105da565b6002602052600090815260409020546001600160a01b031681565b61009b61019c3660046105da565b6102a8565b61009b6101af3660046105da565b610315565b6001546001600160a01b03166101c981610390565b60008184846040516101da90610539565b6001600160a01b0393841681529290911660208301526040820152606001604051809103906000f080158015610214573d6000803e3d6000fd5b506001600160a01b0381811660008181526002602090815260409182902080546001600160a01b03191633908117909155825193845293891690830152810186905260608101919091529091507ff534ff9ac4abb71a4aa2f8715f3a8f41c05155fbf8af61daecc51365e3a5c0089060800160405180910390a150505050565b61029c6103e6565b6102a66000610440565b565b6102b06103e6565b6102b981610490565b600180546001600160a01b0319166001600160a01b0383169081179091556040519081527f9b259e146c2867d904f1e19936caa92e357539c679b78fb96c0a0b15160b7d189060200160405180910390a1610312610294565b50565b61031d6103e6565b6001600160a01b0381166103875760405162461bcd60e51b815260206004820152602660248201527f4f776e61626c653a206e6577206f776e657220697320746865207a65726f206160448201526564647265737360d01b60648201526084015b60405180910390fd5b61031281610440565b6001600160a01b0381166103125760405162461bcd60e51b815260206004820152601d60248201527f4c43463a2053484144592061646472657373206973206e6f7420736574000000604482015260640161037e565b6000546001600160a01b031633146102a65760405162461bcd60e51b815260206004820181905260248201527f4f776e61626c653a2063616c6c6572206973206e6f7420746865206f776e6572604482015260640161037e565b600080546001600160a01b038381166001600160a01b0319831681178455604051919092169283917f8be0079c531659141344cd1fd0a4f28419497f9722a3daafe3b4186f6b6457e09190a35050565b6001600160a01b0381166104e65760405162461bcd60e51b815260206004820152601e60248201527f4163636f756e742063616e6e6f74206265207a65726f20616464726573730000604482015260640161037e565b803b806105355760405162461bcd60e51b815260206004820181905260248201527f4163636f756e7420636f64652073697a652063616e6e6f74206265207a65726f604482015260640161037e565b5050565b6106b2806105fd83390190565b80356001600160a01b038116811461055d57600080fd5b919050565b6000806040838503121561057557600080fd5b61057e83610546565b946020939093013593505050565b600060208083528351808285015260005b818110156105b95785810183015185820160400152820161059d565b506000604082860101526040601f19601f8301168501019250505092915050565b6000602082840312156105ec57600080fd5b6105f582610546565b939250505056fe60a060405234801561001057600080fd5b506040516106b23803806106b283398101604081905261002f916101df565b600080546001600160a01b0319166001600160a01b038516179055610053816100a8565b60018190556001600160a01b038216608081905260408051918252602082018390527f5faee922186516bf77266643c1fda130acefc439d571400e8697106c6aed9b54910160405180910390a150505061025b565b60008060009054906101000a90046001600160a01b03166001600160a01b0316633c84b7c26040518163ffffffff1660e01b8152600401602060405180830381865afa1580156100fc573d6000803e3d6000fd5b505050506040513d601f19601f82011682018060405250810190610120919061021b565b90506101306301e1338082610234565b8210156101bf5760405162461bcd60e51b815260206004820152604d60248201527f4c6f636b7570436f6e74726163743a20756e6c6f636b2074696d65206d75737460448201527f206265206174206c65617374206f6e652079656172206166746572207379737460648201526c195b4819195c1b1bde5b595b9d609a1b608482015260a40160405180910390fd5b5050565b80516001600160a01b03811681146101da57600080fd5b919050565b6000806000606084860312156101f457600080fd5b6101fd846101c3565b925061020b602085016101c3565b9150604084015190509250925092565b60006020828403121561022d57600080fd5b5051919050565b8082018082111561025557634e487b7160e01b600052601160045260246000fd5b92915050565b60805161042f610283600039600081816087015281816101a50152610270015261042f6000f3fe608060405234801561001057600080fd5b50600436106100575760003560e01c8063251c1aa31461005c57806328c2b8d01461007857806338af3eed1461008257806356061388146100c1578063a3f4df7e146100d4575b600080fd5b61006560015481565b6040519081526020015b60405180910390f35b61008061010e565b005b6100a97f000000000000000000000000000000000000000000000000000000000000000081565b6040516001600160a01b03909116815260200161006f565b6000546100a9906001600160a01b031681565b6101016040518060400160405280600e81526020016d131bd8dadd5c10dbdb9d1c9858dd60921b81525081565b60405161006f9190610369565b610116610265565b61011e6102fa565b600080546040516370a0823160e01b81523060048201526001600160a01b03909116919082906370a0823190602401602060405180830381865afa15801561016a573d6000803e3d6000fd5b505050506040513d601f19601f8201168201806040525081019061018e91906103b7565b60405163a9059cbb60e01b81526001600160a01b037f000000000000000000000000000000000000000000000000000000000000000081166004830152602482018390529192509083169063a9059cbb906044016020604051808303816000875af1158015610201573d6000803e3d6000fd5b505050506040513d601f19601f8201168201806040525081019061022591906103d0565b61022e57600080fd5b6040518181527f7d17cbc0f78ccfed33842dd29dab2872e8347bf3981293ab2cfe35ca16371a2f9060200160405180910390a15050565b336001600160a01b037f000000000000000000000000000000000000000000000000000000000000000016146102f85760405162461bcd60e51b815260206004820152602d60248201527f4c6f636b7570436f6e74726163743a2063616c6c6572206973206e6f7420746860448201526c652062656e656669636961727960981b60648201526084015b60405180910390fd5b565b6001544210156102f85760405162461bcd60e51b815260206004820152603460248201527f4c6f636b7570436f6e74726163743a20546865206c6f636b75702064757261746044820152731a5bdb881b5d5cdd081a185d99481c185cdcd95960621b60648201526084016102ef565b600060208083528351808285015260005b818110156103965785810183015185820160400152820161037a565b506000604082860101526040601f19601f8301168501019250505092915050565b6000602082840312156103c957600080fd5b5051919050565b6000602082840312156103e257600080fd5b815180151581146103f257600080fd5b939250505056fea2646970667358221220fdbafb5eec4362d29479bd55384ef7ae3a319d8f07b85e132dde915fd4b7f40a64736f6c63430008130033a2646970667358221220de2e0155c6d67a149dd6b921d8442d328e0ec440787b469f00beae259c8aecd164736f6c63430008130033",
  "devdoc": {
    "kind": "dev",
    "methods": {
      "owner()": {
        "details": "Returns the address of the current owner."
      },
      "renounceOwnership()": {
        "details": "Leaves the contract without owner. It will not be possible to call `onlyOwner` functions. Can only be called by the current owner. NOTE: Renouncing ownership will leave the contract without an owner, thereby disabling any functionality that is only available to the owner."
      },
      "transferOwnership(address)": {
        "details": "Transfers ownership of the contract to a new account (`newOwner`). Can only be called by the current owner."
      }
    },
    "version": 1
  },
  "userdoc": {
    "kind": "user",
    "methods": {},
    "version": 1
  },
  "storageLayout": {
    "storage": [
      {
        "astId": 590,
        "contract": "contracts/LockupContractFactory.sol:LockupContractFactory",
        "label": "_owner",
        "offset": 0,
        "slot": "0",
        "type": "t_address"
      },
      {
        "astId": 7398,
        "contract": "contracts/LockupContractFactory.sol:LockupContractFactory",
        "label": "shadyTokenAddress",
        "offset": 0,
        "slot": "1",
        "type": "t_address"
      },
      {
        "astId": 7402,
        "contract": "contracts/LockupContractFactory.sol:LockupContractFactory",
        "label": "lockupContractToDeployer",
        "offset": 0,
        "slot": "2",
        "type": "t_mapping(t_address,t_address)"
      }
    ],
    "types": {
      "t_address": {
        "encoding": "inplace",
        "label": "address",
        "numberOfBytes": "20"
      },
      "t_mapping(t_address,t_address)": {
        "encoding": "mapping",
        "key": "t_address",
        "label": "mapping(address => address)",
        "numberOfBytes": "32",
        "value": "t_address"
      }
    }
  }
}