{
  "address": "0x74bBa28c13771FB32eD08e5522dfEc71ea8De48c",
  "abi": [
    {
      "anonymous": false,
      "inputs": [
        {
          "indexed": false,
          "internalType": "address",
          "name": "_newActivePoolAddress",
          "type": "address"
        }
      ],
      "name": "ActivePoolAddressChanged",
      "type": "event"
    },
    {
      "anonymous": false,
      "inputs": [
        {
          "indexed": false,
          "internalType": "address",
          "name": "_newBorrowerOperationsAddress",
          "type": "address"
        }
      ],
      "name": "BorrowerOperationsAddressChanged",
      "type": "event"
    },
    {
      "anonymous": false,
      "inputs": [
        {
          "indexed": false,
          "internalType": "address",
          "name": "_newCommunityIssuanceAddress",
          "type": "address"
        }
      ],
      "name": "CommunityIssuanceAddressChanged",
      "type": "event"
    },
    {
      "anonymous": false,
      "inputs": [
        {
          "indexed": false,
          "internalType": "address",
          "name": "_newDefaultPoolAddress",
          "type": "address"
        }
      ],
      "name": "DefaultPoolAddressChanged",
      "type": "event"
    },
    {
      "anonymous": false,
      "inputs": [
        {
          "indexed": true,
          "internalType": "address",
          "name": "_depositor",
          "type": "address"
        },
        {
          "indexed": false,
          "internalType": "uint256",
          "name": "_P",
          "type": "uint256"
        },
        {
          "indexed": false,
          "internalType": "uint256",
          "name": "_S",
          "type": "uint256"
        },
        {
          "indexed": false,
          "internalType": "uint256",
          "name": "_G",
          "type": "uint256"
        }
      ],
      "name": "DepositSnapshotUpdated",
      "type": "event"
    },
    {
      "anonymous": false,
      "inputs": [
        {
          "indexed": false,
          "internalType": "uint128",
          "name": "_currentEpoch",
          "type": "uint128"
        }
      ],
      "name": "EpochUpdated",
      "type": "event"
    },
    {
      "anonymous": false,
      "inputs": [
        {
          "indexed": true,
          "internalType": "address",
          "name": "_frontEnd",
          "type": "address"
        },
        {
          "indexed": false,
          "internalType": "uint256",
          "name": "_kickbackRate",
          "type": "uint256"
        }
      ],
      "name": "FrontEndRegistered",
      "type": "event"
    },
    {
      "anonymous": false,
      "inputs": [
        {
          "indexed": true,
          "internalType": "address",
          "name": "_frontEnd",
          "type": "address"
        },
        {
          "indexed": false,
          "internalType": "uint256",
          "name": "_P",
          "type": "uint256"
        },
        {
          "indexed": false,
          "internalType": "uint256",
          "name": "_G",
          "type": "uint256"
        }
      ],
      "name": "FrontEndSnapshotUpdated",
      "type": "event"
    },
    {
      "anonymous": false,
      "inputs": [
        {
          "indexed": true,
          "internalType": "address",
          "name": "_frontEnd",
          "type": "address"
        },
        {
          "indexed": false,
          "internalType": "uint256",
          "name": "_newFrontEndStake",
          "type": "uint256"
        },
        {
          "indexed": false,
          "internalType": "address",
          "name": "_depositor",
          "type": "address"
        }
      ],
      "name": "FrontEndStakeChanged",
      "type": "event"
    },
    {
      "anonymous": false,
      "inputs": [
        {
          "indexed": true,
          "internalType": "address",
          "name": "_depositor",
          "type": "address"
        },
        {
          "indexed": true,
          "internalType": "address",
          "name": "_frontEnd",
          "type": "address"
        }
      ],
      "name": "FrontEndTagSet",
      "type": "event"
    },
    {
      "anonymous": false,
      "inputs": [
        {
          "indexed": false,
          "internalType": "uint256",
          "name": "_G",
          "type": "uint256"
        },
        {
          "indexed": false,
          "internalType": "uint128",
          "name": "_epoch",
          "type": "uint128"
        },
        {
          "indexed": false,
          "internalType": "uint128",
          "name": "_scale",
          "type": "uint128"
        }
      ],
      "name": "G_Updated",
      "type": "event"
    },
    {
      "anonymous": false,
      "inputs": [
        {
          "indexed": true,
          "internalType": "address",
          "name": "previousOwner",
          "type": "address"
        },
        {
          "indexed": true,
          "internalType": "address",
          "name": "newOwner",
          "type": "address"
        }
      ],
      "name": "OwnershipTransferred",
      "type": "event"
    },
    {
      "anonymous": false,
      "inputs": [
        {
          "indexed": false,
          "internalType": "uint256",
          "name": "_P",
          "type": "uint256"
        }
      ],
      "name": "P_Updated",
      "type": "event"
    },
    {
      "anonymous": false,
      "inputs": [
        {
          "indexed": false,
          "internalType": "address",
          "name": "_newPriceFeedAddress",
          "type": "address"
        }
      ],
      "name": "PriceFeedAddressChanged",
      "type": "event"
    },
    {
      "anonymous": false,
      "inputs": [
        {
          "indexed": true,
          "internalType": "address",
          "name": "_depositor",
          "type": "address"
        },
        {
          "indexed": false,
          "internalType": "uint256",
          "name": "_SHADY",
          "type": "uint256"
        }
      ],
      "name": "SHADYPaidToDepositor",
      "type": "event"
    },
    {
      "anonymous": false,
      "inputs": [
        {
          "indexed": true,
          "internalType": "address",
          "name": "_frontEnd",
          "type": "address"
        },
        {
          "indexed": false,
          "internalType": "uint256",
          "name": "_SHADY",
          "type": "uint256"
        }
      ],
      "name": "SHADYPaidToFrontEnd",
      "type": "event"
    },
    {
      "anonymous": false,
      "inputs": [
        {
          "indexed": false,
          "internalType": "address",
          "name": "_newSIMTokenAddress",
          "type": "address"
        }
      ],
      "name": "SIMTokenAddressChanged",
      "type": "event"
    },
    {
      "anonymous": false,
      "inputs": [
        {
          "indexed": false,
          "internalType": "uint256",
          "name": "_S",
          "type": "uint256"
        },
        {
          "indexed": false,
          "internalType": "uint128",
          "name": "_epoch",
          "type": "uint128"
        },
        {
          "indexed": false,
          "internalType": "uint128",
          "name": "_scale",
          "type": "uint128"
        }
      ],
      "name": "S_Updated",
      "type": "event"
    },
    {
      "anonymous": false,
      "inputs": [
        {
          "indexed": false,
          "internalType": "uint128",
          "name": "_currentScale",
          "type": "uint128"
        }
      ],
      "name": "ScaleUpdated",
      "type": "event"
    },
    {
      "anonymous": false,
      "inputs": [
        {
          "indexed": false,
          "internalType": "address",
          "name": "_newSortedTrovesAddress",
          "type": "address"
        }
      ],
      "name": "SortedTrovesAddressChanged",
      "type": "event"
    },
    {
      "anonymous": false,
      "inputs": [
        {
          "indexed": false,
          "internalType": "uint256",
          "name": "_newBalance",
          "type": "uint256"
        }
      ],
      "name": "StabilityPoolSIMBalanceUpdated",
      "type": "event"
    },
    {
      "anonymous": false,
      "inputs": [
        {
          "indexed": false,
          "internalType": "uint256",
          "name": "_newBalance",
          "type": "uint256"
        }
      ],
      "name": "StabilityPoolWSTETHBalanceUpdated",
      "type": "event"
    },
    {
      "anonymous": false,
      "inputs": [
        {
          "indexed": false,
          "internalType": "address",
          "name": "_newTroveManagerAddress",
          "type": "address"
        }
      ],
      "name": "TroveManagerAddressChanged",
      "type": "event"
    },
    {
      "anonymous": false,
      "inputs": [
        {
          "indexed": true,
          "internalType": "address",
          "name": "_depositor",
          "type": "address"
        },
        {
          "indexed": false,
          "internalType": "uint256",
          "name": "_newDeposit",
          "type": "uint256"
        }
      ],
      "name": "UserDepositChanged",
      "type": "event"
    },
    {
      "anonymous": false,
      "inputs": [
        {
          "indexed": true,
          "internalType": "address",
          "name": "_depositor",
          "type": "address"
        },
        {
          "indexed": false,
          "internalType": "uint256",
          "name": "_WSTETH",
          "type": "uint256"
        },
        {
          "indexed": false,
          "internalType": "uint256",
          "name": "_SIMLoss",
          "type": "uint256"
        }
      ],
      "name": "WSTETHGainWithdrawn",
      "type": "event"
    },
    {
      "anonymous": false,
      "inputs": [
        {
          "indexed": false,
          "internalType": "address",
          "name": "_to",
          "type": "address"
        },
        {
          "indexed": false,
          "internalType": "uint256",
          "name": "_amount",
          "type": "uint256"
        }
      ],
      "name": "WSTETHSent",
      "type": "event"
    },
    {
      "inputs": [],
      "name": "BORROWING_FEE_FLOOR",
      "outputs": [
        {
          "internalType": "uint256",
          "name": "",
          "type": "uint256"
        }
      ],
      "stateMutability": "view",
      "type": "function"
    },
    {
      "inputs": [],
      "name": "CCR",
      "outputs": [
        {
          "internalType": "uint256",
          "name": "",
          "type": "uint256"
        }
      ],
      "stateMutability": "view",
      "type": "function"
    },
    {
      "inputs": [],
      "name": "DECIMAL_PRECISION",
      "outputs": [
        {
          "internalType": "uint256",
          "name": "",
          "type": "uint256"
        }
      ],
      "stateMutability": "view",
      "type": "function"
    },
    {
      "inputs": [],
      "name": "MCR",
      "outputs": [
        {
          "internalType": "uint256",
          "name": "",
          "type": "uint256"
        }
      ],
      "stateMutability": "view",
      "type": "function"
    },
    {
      "inputs": [],
      "name": "MIN_NET_DEBT",
      "outputs": [
        {
          "internalType": "uint256",
          "name": "",
          "type": "uint256"
        }
      ],
      "stateMutability": "view",
      "type": "function"
    },
    {
      "inputs": [],
      "name": "NAME",
      "outputs": [
        {
          "internalType": "string",
          "name": "",
          "type": "string"
        }
      ],
      "stateMutability": "view",
      "type": "function"
    },
    {
      "inputs": [],
      "name": "P",
      "outputs": [
        {
          "internalType": "uint256",
          "name": "",
          "type": "uint256"
        }
      ],
      "stateMutability": "view",
      "type": "function"
    },
    {
      "inputs": [],
      "name": "PERCENT_DIVISOR",
      "outputs": [
        {
          "internalType": "uint256",
          "name": "",
          "type": "uint256"
        }
      ],
      "stateMutability": "view",
      "type": "function"
    },
    {
      "inputs": [],
      "name": "SCALE_FACTOR",
      "outputs": [
        {
          "internalType": "uint256",
          "name": "",
          "type": "uint256"
        }
      ],
      "stateMutability": "view",
      "type": "function"
    },
    {
      "inputs": [],
      "name": "WSTETHAddress",
      "outputs": [
        {
          "internalType": "address",
          "name": "",
          "type": "address"
        }
      ],
      "stateMutability": "view",
      "type": "function"
    },
    {
      "inputs": [],
      "name": "_100pct",
      "outputs": [
        {
          "internalType": "uint256",
          "name": "",
          "type": "uint256"
        }
      ],
      "stateMutability": "view",
      "type": "function"
    },
    {
      "inputs": [],
      "name": "activePool",
      "outputs": [
        {
          "internalType": "contract IActivePool",
          "name": "",
          "type": "address"
        }
      ],
      "stateMutability": "view",
      "type": "function"
    },
    {
      "inputs": [],
      "name": "borrowerOperations",
      "outputs": [
        {
          "internalType": "contract IBorrowerOperations",
          "name": "",
          "type": "address"
        }
      ],
      "stateMutability": "view",
      "type": "function"
    },
    {
      "inputs": [],
      "name": "communityIssuance",
      "outputs": [
        {
          "internalType": "contract IIssuance",
          "name": "",
          "type": "address"
        }
      ],
      "stateMutability": "view",
      "type": "function"
    },
    {
      "inputs": [],
      "name": "currentEpoch",
      "outputs": [
        {
          "internalType": "uint128",
          "name": "",
          "type": "uint128"
        }
      ],
      "stateMutability": "view",
      "type": "function"
    },
    {
      "inputs": [],
      "name": "currentScale",
      "outputs": [
        {
          "internalType": "uint128",
          "name": "",
          "type": "uint128"
        }
      ],
      "stateMutability": "view",
      "type": "function"
    },
    {
      "inputs": [],
      "name": "defaultPool",
      "outputs": [
        {
          "internalType": "contract IDefaultPool",
          "name": "",
          "type": "address"
        }
      ],
      "stateMutability": "view",
      "type": "function"
    },
    {
      "inputs": [
        {
          "internalType": "address",
          "name": "",
          "type": "address"
        }
      ],
      "name": "depositSnapshots",
      "outputs": [
        {
          "internalType": "uint256",
          "name": "S",
          "type": "uint256"
        },
        {
          "internalType": "uint256",
          "name": "P",
          "type": "uint256"
        },
        {
          "internalType": "uint256",
          "name": "G",
          "type": "uint256"
        },
        {
          "internalType": "uint128",
          "name": "scale",
          "type": "uint128"
        },
        {
          "internalType": "uint128",
          "name": "epoch",
          "type": "uint128"
        }
      ],
      "stateMutability": "view",
      "type": "function"
    },
    {
      "inputs": [
        {
          "internalType": "address",
          "name": "",
          "type": "address"
        }
      ],
      "name": "deposits",
      "outputs": [
        {
          "internalType": "uint256",
          "name": "initialValue",
          "type": "uint256"
        },
        {
          "internalType": "address",
          "name": "frontEndTag",
          "type": "address"
        }
      ],
      "stateMutability": "view",
      "type": "function"
    },
    {
      "inputs": [
        {
          "internalType": "uint128",
          "name": "",
          "type": "uint128"
        },
        {
          "internalType": "uint128",
          "name": "",
          "type": "uint128"
        }
      ],
      "name": "epochToScaleToG",
      "outputs": [
        {
          "internalType": "uint256",
          "name": "",
          "type": "uint256"
        }
      ],
      "stateMutability": "view",
      "type": "function"
    },
    {
      "inputs": [
        {
          "internalType": "uint128",
          "name": "",
          "type": "uint128"
        },
        {
          "internalType": "uint128",
          "name": "",
          "type": "uint128"
        }
      ],
      "name": "epochToScaleToSum",
      "outputs": [
        {
          "internalType": "uint256",
          "name": "",
          "type": "uint256"
        }
      ],
      "stateMutability": "view",
      "type": "function"
    },
    {
      "inputs": [
        {
          "internalType": "address",
          "name": "_depositor",
          "type": "address"
        }
      ],
      "name": "getCompoundedSIMDeposit",
      "outputs": [
        {
          "internalType": "uint256",
          "name": "",
          "type": "uint256"
        }
      ],
      "stateMutability": "view",
      "type": "function"
    },
    {
      "inputs": [
        {
          "internalType": "address",
          "name": "_depositor",
          "type": "address"
        }
      ],
      "name": "getDepositorSHADYGain",
      "outputs": [
        {
          "internalType": "uint256",
          "name": "",
          "type": "uint256"
        }
      ],
      "stateMutability": "view",
      "type": "function"
    },
    {
      "inputs": [
        {
          "internalType": "address",
          "name": "_depositor",
          "type": "address"
        }
      ],
      "name": "getDepositorWSTETHGain",
      "outputs": [
        {
          "internalType": "uint256",
          "name": "",
          "type": "uint256"
        }
      ],
      "stateMutability": "view",
      "type": "function"
    },
    {
      "inputs": [],
      "name": "getEntireSystemColl",
      "outputs": [
        {
          "internalType": "uint256",
          "name": "entireSystemColl",
          "type": "uint256"
        }
      ],
      "stateMutability": "view",
      "type": "function"
    },
    {
      "inputs": [],
      "name": "getEntireSystemDebt",
      "outputs": [
        {
          "internalType": "uint256",
          "name": "entireSystemDebt",
          "type": "uint256"
        }
      ],
      "stateMutability": "view",
      "type": "function"
    },
    {
      "inputs": [],
      "name": "getTotalSIMDeposits",
      "outputs": [
        {
          "internalType": "uint256",
          "name": "",
          "type": "uint256"
        }
      ],
      "stateMutability": "view",
      "type": "function"
    },
    {
      "inputs": [],
      "name": "getWSTETH",
      "outputs": [
        {
          "internalType": "uint256",
          "name": "",
          "type": "uint256"
        }
      ],
      "stateMutability": "view",
      "type": "function"
    },
    {
      "inputs": [],
      "name": "lastSHADYError",
      "outputs": [
        {
          "internalType": "uint256",
          "name": "",
          "type": "uint256"
        }
      ],
      "stateMutability": "view",
      "type": "function"
    },
    {
      "inputs": [],
      "name": "lastSIMLossError_Offset",
      "outputs": [
        {
          "internalType": "uint256",
          "name": "",
          "type": "uint256"
        }
      ],
      "stateMutability": "view",
      "type": "function"
    },
    {
      "inputs": [],
      "name": "lastWSTETHError_Offset",
      "outputs": [
        {
          "internalType": "uint256",
          "name": "",
          "type": "uint256"
        }
      ],
      "stateMutability": "view",
      "type": "function"
    },
    {
      "inputs": [
        {
          "internalType": "uint256",
          "name": "_debtToOffset",
          "type": "uint256"
        },
        {
          "internalType": "uint256",
          "name": "_collToAdd",
          "type": "uint256"
        }
      ],
      "name": "offset",
      "outputs": [],
      "stateMutability": "nonpayable",
      "type": "function"
    },
    {
      "inputs": [],
      "name": "owner",
      "outputs": [
        {
          "internalType": "address",
          "name": "",
          "type": "address"
        }
      ],
      "stateMutability": "view",
      "type": "function"
    },
    {
      "inputs": [],
      "name": "priceFeed",
      "outputs": [
        {
          "internalType": "contract IPriceFeed",
          "name": "",
          "type": "address"
        }
      ],
      "stateMutability": "view",
      "type": "function"
    },
    {
      "inputs": [
        {
          "internalType": "uint256",
          "name": "_amount",
          "type": "uint256"
        },
        {
          "internalType": "address",
          "name": "",
          "type": "address"
        }
      ],
      "name": "provideToSP",
      "outputs": [],
      "stateMutability": "nonpayable",
      "type": "function"
    },
    {
      "inputs": [
        {
          "internalType": "uint256",
          "name": "amount",
          "type": "uint256"
        }
      ],
      "name": "receiveWSTETH",
      "outputs": [],
      "stateMutability": "nonpayable",
      "type": "function"
    },
    {
      "inputs": [],
      "name": "renounceOwnership",
      "outputs": [],
      "stateMutability": "nonpayable",
      "type": "function"
    },
    {
      "inputs": [
        {
          "internalType": "address",
          "name": "_WSTETHAddress",
          "type": "address"
        },
        {
          "internalType": "address",
          "name": "_borrowerOperationsAddress",
          "type": "address"
        },
        {
          "internalType": "address",
          "name": "_troveManagerAddress",
          "type": "address"
        },
        {
          "internalType": "address",
          "name": "_activePoolAddress",
          "type": "address"
        },
        {
          "internalType": "address",
          "name": "_simTokenAddress",
          "type": "address"
        },
        {
          "internalType": "address",
          "name": "_sortedTrovesAddress",
          "type": "address"
        },
        {
          "internalType": "address",
          "name": "_priceFeedAddress",
          "type": "address"
        },
        {
          "internalType": "address",
          "name": "_communityIssuanceAddress",
          "type": "address"
        }
      ],
      "name": "setAddresses",
      "outputs": [],
      "stateMutability": "nonpayable",
      "type": "function"
    },
    {
      "inputs": [],
      "name": "simToken",
      "outputs": [
        {
          "internalType": "contract ISIMToken",
          "name": "",
          "type": "address"
        }
      ],
      "stateMutability": "view",
      "type": "function"
    },
    {
      "inputs": [],
      "name": "sortedTroves",
      "outputs": [
        {
          "internalType": "contract ISortedTroves",
          "name": "",
          "type": "address"
        }
      ],
      "stateMutability": "view",
      "type": "function"
    },
    {
      "inputs": [
        {
          "internalType": "address",
          "name": "newOwner",
          "type": "address"
        }
      ],
      "name": "transferOwnership",
      "outputs": [],
      "stateMutability": "nonpayable",
      "type": "function"
    },
    {
      "inputs": [],
      "name": "troveManager",
      "outputs": [
        {
          "internalType": "contract ITroveManager",
          "name": "",
          "type": "address"
        }
      ],
      "stateMutability": "view",
      "type": "function"
    },
    {
      "inputs": [
        {
          "internalType": "uint256",
          "name": "_amount",
          "type": "uint256"
        }
      ],
      "name": "withdrawFromSP",
      "outputs": [],
      "stateMutability": "nonpayable",
      "type": "function"
    },
    {
      "inputs": [
        {
          "internalType": "address",
          "name": "_upperHint",
          "type": "address"
        },
        {
          "internalType": "address",
          "name": "_lowerHint",
          "type": "address"
        }
      ],
      "name": "withdrawWSTETHGainToTrove",
      "outputs": [],
      "stateMutability": "nonpayable",
      "type": "function"
    }
  ],
  "transactionHash": "0x895d8e988565b8b6d1affe44b375ca4c51c88b830a73133d130c3d63ecba07fb",
  "args": [],
  "numDeployments": 1,
  "solcInputHash": "4ec6f9376f02b1b14c8f28d3638a109e",
  "bytecode": "0x6080604052670de0b6b3a7640000600e5534801561001c57600080fd5b506100263361002b565b61007d565b600380546001600160a01b038381166001600160a01b0319831681179093556040519116919082907f8be0079c531659141344cd1fd0a4f28419497f9722a3daafe3b4186f6b6457e090600090a35050565b6129d58061008c6000396000f3fe608060405234801561001057600080fd5b50600436106102745760003560e01c80637f7dde4a11610151578063a3f4df7e116100c3578063d540f25011610087578063d540f250146105a6578063d733cfd0146105b9578063dbb0c61a146105cc578063f2fde38b146105df578063f92d3433146105f2578063fc7e286d146105fa57600080fd5b8063a3f4df7e14610529578063a4e59ac814610562578063ae91875414610575578063ce4b5bbe14610588578063d3d6b2381461059357600080fd5b8063887105d311610115578063887105d3146104e15780638b8fbd92146104e95780638da5cb5b146104f257806395fb16bb146105035780639a6ec10a14610516578063a20baee61461027957600080fd5b80637f7dde4a146104165780637f9be6871461042957806382e0a57414610431578063864069e41461045c57806386da08241461046457600080fd5b80635f788d65116101ea578063741bef1a116101ae578063741bef1a1461039e57806376671808146103b157806377553ad4146103e35780637884eabf146103f6578063794e5724146103ff578063795d26c31461040e57600080fd5b80635f788d65146103675780636cce4c891461037a578063715018a61461038357806372fe25aa1461027957806374120d0d1461038b57600080fd5b80633cc742251161023c5780633cc74225146103015780633d83908a146103215780634870dd9a146103345780635617c5c71461033c5780635733d58f1461034f5780635d99aaa81461035e57600080fd5b80631bf435551461027957806327911ce41461029b57806328a0a04d146102ae5780632e54bf95146102d9578063335525ad146102ee575b600080fd5b610288670de0b6b3a764000081565b6040519081526020015b60405180910390f35b6102886102a93660046125c8565b610647565b6102886102bc366004612601565b601060209081526000928352604080842090915290825290205481565b6102ec6102e7366004612634565b6106e5565b005b6102ec6102fc36600461264d565b6107e2565b600154610314906001600160a01b031681565b604051610292919061266f565b600654610314906001600160a01b031681565b61028860c881565b600454610314906001600160a01b031681565b6102886714d1120d7b16000081565b61028860135481565b6102ec610375366004612683565b610844565b61028860125481565b6102ec61091b565b6102886103993660046125c8565b61092f565b600254610314906001600160a01b031681565b600f546103cb90600160801b90046001600160801b031681565b6040516001600160801b039091168152602001610292565b600554610314906001600160a01b031681565b61028860145481565b610288670f43fc2c04ee000081565b6102886109c4565b600054610314906001600160a01b031681565b600b54610288565b61028861043f366004612601565b601160209081526000928352604080842090915290825290205481565b600a54610288565b6104ad6104723660046125c8565b600d602052600090815260409020805460018201546002830154600390930154919290916001600160801b0380821691600160801b90041685565b604080519586526020860194909452928401919091526001600160801b03908116606084015216608082015260a001610292565b610288610ac0565b610288600e5481565b6003546001600160a01b0316610314565b600954610314906001600160a01b031681565b6102886105243660046125c8565b610b85565b6105556040518060400160405280600d81526020016c14dd18589a5b1a5d1e541bdbdb609a1b81525081565b60405161029291906126b3565b600f546103cb906001600160801b031681565b600854610314906001600160a01b031681565b610288633b9aca0081565b6102ec6105a1366004612701565b610c42565b600754610314906001600160a01b031681565b6102ec6105c736600461272f565b610e74565b6102ec6105da366004612634565b6110c8565b6102ec6105ed3660046125c8565b61110e565b61028861118c565b61062a6106083660046125c8565b600c60205260009081526040902080546001909101546001600160a01b031682565b604080519283526001600160a01b03909116602083015201610292565b6001600160a01b0381166000908152600c60205260408120548082036106705750600092915050565b6001600160a01b0383166000908152600d60209081526040808320815160a08101835281548152600182015493810193909352600281015491830191909152600301546001600160801b038082166060840152600160801b909104166080820152906106dc83836111ae565b95945050505050565b80156106f3576106f3611296565b336000908152600c602052604090205461070c8161148c565b6009546001600160a01b0316610721816114f5565b600061072c33610647565b905060006107393361092f565b90506000610747868361156a565b9050600061075583876127ee565b90506107618533611582565b61076b3383611638565b600061077783856127ee565b905061078333826116b3565b60405181815233906000805160206129608339815191529060200160405180910390a260408051868152602081018490523391600080516020612940833981519152910160405180910390a26107d885611816565b5050505050505050565b6107ea611910565b600b548015806107f8575082155b1561080257505050565b600954610817906001600160a01b03166114f5565b60008061082584868561197c565b915091506108338282611a51565b61083d8486611d2a565b5050505050565b61084d82611e5c565b336000908152600c60205260409020546009546001600160a01b0316610872816114f5565b600061087d33610647565b9050600061088a3361092f565b9050600061089882866127ee565b90506108a48433611582565b6108ae3388611ebb565b60006108ba8884612801565b90506108c633826116b3565b60405181815233906000805160206129608339815191529060200160405180910390a260408051858152602081018490523391600080516020612940833981519152910160405180910390a26107d884611816565b610923611f71565b61092d6000611fcb565b565b6001600160a01b0381166000908152600c60205260408120548082036109585750600092915050565b6001600160a01b0383166000908152600d60209081526040808320815160a08101835281548152600182015493810193909352600281015491830191909152600301546001600160801b038082166060840152600160801b909104166080820152906106dc838361201d565b600080546040805163c7662fa560e01b8152905183926001600160a01b03169163c7662fa59160048083019260209291908290030181865afa158015610a0e573d6000803e3d6000fd5b505050506040513d601f19601f82011682018060405250810190610a329190612814565b90506000600160009054906101000a90046001600160a01b03166001600160a01b031663c7662fa56040518163ffffffff1660e01b8152600401602060405180830381865afa158015610a89573d6000803e3d6000fd5b505050506040513d601f19601f82011682018060405250810190610aad9190612814565b9050610ab98183612801565b9250505090565b60008054604080516321901a7960e21b8152905183926001600160a01b03169163864069e49160048083019260209291908290030181865afa158015610b0a573d6000803e3d6000fd5b505050506040513d601f19601f82011682018060405250810190610b2e9190612814565b90506000600160009054906101000a90046001600160a01b03166001600160a01b031663864069e46040518163ffffffff1660e01b8152600401602060405180830381865afa158015610a89573d6000803e3d6000fd5b6001600160a01b0381166000908152600c6020526040812054808203610bae5750600092915050565b6001600160a01b0383166000908152600d60209081526040808320815160a08101835281548152600182015493810193909352600281015491830191909152600301546001600160801b038082166060840152600160801b909104166080820152670de0b6b3a76400009182610c24858461210d565b610c2e908561282d565b610c389190612844565b9695505050505050565b336000908152600c6020526040902054610c5b8161148c565b610c6433612185565b610c6d3361227d565b6009546001600160a01b0316610c82816114f5565b6000610c8d33610647565b90506000610c9a3361092f565b90506000610ca882866127ee565b9050610cb48433611582565b610cbe33836116b3565b60408051848152602081018390523391600080516020612940833981519152910160405180910390a260405182815233906000805160206129608339815191529060200160405180910390a282600a6000828254610d1c91906127ee565b9091555050600a546040519081526000805160206129808339815191529060200160405180910390a17ff20b16d543af92c697dee44db5345454068c1fffc7d371ebcc767da894b82b1b3384604051610d76929190612866565b60405180910390a16004805460055460405163a9059cbb60e01b81526001600160a01b039283169363a9059cbb93610db2931691889101612866565b6020604051808303816000875af1158015610dd1573d6000803e3d6000fd5b505050506040513d601f19601f82011682018060405250810190610df5919061287f565b610dfe57600080fd5b60055460405163023db76b60e31b81523360048201526001600160a01b0389811660248301528881166044830152909116906311edbb5890606401600060405180830381600087803b158015610e5357600080fd5b505af1158015610e67573d6000803e3d6000fd5b5050505050505050505050565b610e7c611f71565b610e85886122f7565b610e8e876122f7565b610e97866122f7565b610ea0856122f7565b610ea9846122f7565b610eb2836122f7565b610ebb826122f7565b610ec4816122f7565b600480546001600160a01b03199081166001600160a01b038b8116919091179092556005805482168a8416179055600680548216898416179055600080548216888416179055600780548216878416179055600880548216868416179055600280548216858416179055600980549091169183169190911790556040517f3ca631ffcd2a9b5d9ae18543fc82f58eb4ca33af9e6ab01b7a8e95331e6ed98590610f6e90899061266f565b60405180910390a17f143219c9e69b09e07e095fcc889b43d8f46ca892bba65f08dc3a0050869a567886604051610fa5919061266f565b60405180910390a17f78f058b189175430c48dc02699e3a0031ea4ff781536dc2fab847de4babdd88285604051610fdc919061266f565b60405180910390a17f522d83e1b4d0586985996a5a2f3987e11187efba22d8ee8b185af633301082af84604051611013919061266f565b60405180910390a17f65f4cf077bc01e4742eb5ad98326f6e95b63548ea24b17f8d5e823111fe788008360405161104a919061266f565b60405180910390a17f8c537274438aa850a330284665d81a85dd38267d09e4050d416bfc94142db26482604051611081919061266f565b60405180910390a17f3055265812fb8447b9ada4a5d804ec43bd528ec40e89c952bbc7b85dc5ac6811816040516110b8919061266f565b60405180910390a16107d861091b565b6110d061239c565b80600a60008282546110e29190612801565b9091555050600a546040519081526000805160206129808339815191529060200160405180910390a150565b611116611f71565b6001600160a01b0381166111805760405162461bcd60e51b815260206004820152602660248201527f4f776e61626c653a206e6577206f776e657220697320746865207a65726f206160448201526564647265737360d01b60648201526084015b60405180910390fd5b61118981611fcb565b50565b6111a06103e8670de0b6b3a7640000612844565b6111ab90600561282d565b81565b6080810151606082015182516020808501516001600160801b038086166000908152601084526040808220928716825291909352822054919493929185906111f79084906127ee565b6001600160801b038616600090815260106020526040812091925090633b9aca0090826112258860016128a1565b6001600160801b03166001600160801b03168152602001908152602001600020546112509190612844565b90506000670de0b6b3a7640000846112688486612801565b611272908d61282d565b61127c9190612844565b6112869190612844565b9750505050505050505b92915050565b60025460408051630fdb11cf60e01b815290516000926001600160a01b031691630fdb11cf916004808301926020929190829003018187875af11580156112e1573d6000803e3d6000fd5b505050506040513d601f19601f820116820180604052508101906113059190612814565b90506000600860009054906101000a90046001600160a01b03166001600160a01b0316634d6228316040518163ffffffff1660e01b8152600401602060405180830381865afa15801561135c573d6000803e3d6000fd5b505050506040513d601f19601f8201168201806040525081019061138091906128c8565b600654604051630d293c7160e41b81529192506000916001600160a01b039091169063d293c710906113b89085908790600401612866565b602060405180830381865afa1580156113d5573d6000803e3d6000fd5b505050506040513d601f19601f820116820180604052508101906113f99190612814565b9050670f43fc2c04ee00008110156114875760405162461bcd60e51b8152602060048201526044602482018190527f53746162696c697479506f6f6c3a2043616e6e6f742077697468647261772077908201527f68696c65207468657265206172652074726f766573207769746820494352203c6064820152631026a1a960e11b608482015260a401611177565b505050565b600081116111895760405162461bcd60e51b815260206004820152603060248201527f53746162696c697479506f6f6c3a2055736572206d757374206861766520612060448201526f1b9bdb8b5e995c9bc819195c1bdcda5d60821b6064820152608401611177565b6000816001600160a01b031663586653e16040518163ffffffff1660e01b81526004016020604051808303816000875af1158015611537573d6000803e3d6000fd5b505050506040513d601f19601f8201168201806040525081019061155b9190612814565b905061156681612406565b5050565b6000818310611579578161157b565b825b9392505050565b600061158d82610b85565b60405163602820c160e11b81529091506001600160a01b0384169063c0504182906115be9085908590600401612866565b600060405180830381600087803b1580156115d857600080fd5b505af11580156115ec573d6000803e3d6000fd5b50505050816001600160a01b03167f3e278324444258dcdfa19e5252aeb99227e0f9992625af636bd7d24c19765fce8260405161162b91815260200190565b60405180910390a2505050565b80600003611644575050565b600754604051631062c15f60e11b81526001600160a01b03909116906320c582be90611678903090869086906004016128e5565b600060405180830381600087803b15801561169257600080fd5b505af11580156116a6573d6000803e3d6000fd5b5050505061156681612511565b6001600160a01b0382166000908152600c60205260408120829055819003611749576001600160a01b0382166000818152600d60209081526040808320838155600181018490556002810184905560030183905580518381529182018390528101919091527f2d6cc0bcdf72c9486f6451bde6b80f44066f4558f77f44dbfedbe7d8b295225a9060600160405180910390a25050565b600f54600e546001600160801b03600160801b808404821660008181526010602090815260408083209590971680835294815286822054838352601182528783208684528252878320546001600160a01b038b16808552600d84529389902060018101899055828155600281018290559585028717600390960195909555875187815291820181905296810184905293959194939192917f2d6cc0bcdf72c9486f6451bde6b80f44066f4558f77f44dbfedbe7d8b295225a9060600160405180910390a250505050505050565b806000036118215750565b600081600a5461183191906127ee565b600a8190556040518181529091506000805160206129808339815191529060200160405180910390a17ff20b16d543af92c697dee44db5345454068c1fffc7d371ebcc767da894b82b1b338360405161188b929190612866565b60405180910390a16004805460405163a9059cbb60e01b81526001600160a01b039091169163a9059cbb916118c4913391879101612866565b6020604051808303816000875af11580156118e3573d6000803e3d6000fd5b505050506040513d601f19601f82011682018060405250810190611907919061287f565b61156657600080fd5b6006546001600160a01b0316331461092d5760405162461bcd60e51b815260206004820152602960248201527f53746162696c697479506f6f6c3a2043616c6c6572206973206e6f742054726f6044820152683b32a6b0b730b3b2b960b91b6064820152608401611177565b6000806000601354670de0b6b3a764000087611998919061282d565b6119a29190612801565b9050838511156119b4576119b4612909565b8385036119d0576000601455670de0b6b3a76400009150611a25565b6014546000906119e8670de0b6b3a76400008861282d565b6119f291906127ee565b90506119fe8582612844565b611a09906001612801565b925080611a16868561282d565b611a2091906127ee565b601455505b611a2f8482612844565b9250611a3b848461282d565b611a4590826127ee565b60135550935093915050565b600e546000670de0b6b3a7640000831115611a6e57611a6e612909565b6000611a8284670de0b6b3a76400006127ee565b600f546001600160801b03600160801b820481166000818152601060209081526040808320949095168083529390529283205493945090929091611ac6878a61282d565b90506000611ad48284612801565b6001600160801b038581166000818152601060209081526040808320948b16808452948252918290208590558151858152908101929092528101919091529091507fe12e2cd2c9afa8069203ca07e7eff1edce4a075686d0736a8e7e0d593597b2079060600160405180910390a185600003611bfe57611b558460016128a1565b600f80546001600160801b03908116600160801b93821684021791829055604051929091041681527fb50f0f59e7cb5b421dc77581c3a9919e3806e076e5fa78a874c3f120cb7d874d9060200160405180910390a1600f80546001600160801b0319169055604051600081527f1f9dfc70cd666adb18a39d60a797518f7b4febf4b6e24ef37d44f6e1e7219fbe9060200160405180910390a1670de0b6b3a76400009650611cd6565b633b9aca00670de0b6b3a7640000611c16888b61282d565b611c209190612844565b1015611cb657670de0b6b3a7640000633b9aca00611c3e888b61282d565b611c48919061282d565b611c529190612844565b9650611c5f8560016128a1565b600f80546001600160801b0319166001600160801b039290921691821790556040519081527f1f9dfc70cd666adb18a39d60a797518f7b4febf4b6e24ef37d44f6e1e7219fbe9060200160405180910390a1611cd6565b670de0b6b3a7640000611cc9878a61282d565b611cd39190612844565b96505b60008711611ce657611ce6612909565b600e8790556040518781527fc1a9618cb59ebca77cbdbc2949f126823c407ff13edb285fd0262519a9c18e8c9060200160405180910390a150505050505050505050565b600054604051636bfc0b7960e01b8152600481018390526001600160a01b03909116908190636bfc0b7990602401600060405180830381600087803b158015611d7257600080fd5b505af1158015611d86573d6000803e3d6000fd5b50505050611d9382612511565b600754604051632770a7eb60e21b81526001600160a01b0390911690639dc29fac90611dc59030908690600401612866565b600060405180830381600087803b158015611ddf57600080fd5b505af1158015611df3573d6000803e3d6000fd5b50506040516303570deb60e61b81526001600160a01b038416925063d5c37ac09150611e259030908790600401612866565b600060405180830381600087803b158015611e3f57600080fd5b505af1158015611e53573d6000803e3d6000fd5b50505050505050565b600081116111895760405162461bcd60e51b815260206004820152602660248201527f53746162696c697479506f6f6c3a20416d6f756e74206d757374206265206e6f6044820152656e2d7a65726f60d01b6064820152608401611177565b600754604051632ee65eeb60e21b81526001600160a01b039091169063bb997bac90611eef908590309086906004016128e5565b600060405180830381600087803b158015611f0957600080fd5b505af1158015611f1d573d6000803e3d6000fd5b50505050600081600b54611f319190612801565b600b8190556040518181529091507fd6f74bcc5370b4a9c7158c1e641f02563ccbe9f2e69f7eb20a80312a9378c1ac9060200160405180910390a1505050565b6003546001600160a01b0316331461092d5760405162461bcd60e51b815260206004820181905260248201527f4f776e61626c653a2063616c6c6572206973206e6f7420746865206f776e65726044820152606401611177565b600380546001600160a01b038381166001600160a01b0319831681179093556040519116919082907f8be0079c531659141344cd1fd0a4f28419497f9722a3daafe3b4186f6b6457e090600090a35050565b602081015160608201516080830151600f546000939291906001600160801b03600160801b9091048116908216101561205c5760009350505050611290565b600f5460009081906120789085906001600160801b031661291f565b9050806001600160801b03166000036120ab5784600e548961209a919061282d565b6120a49190612844565b91506120df565b806001600160801b03166001036120da57633b9aca0085600e548a6120d0919061282d565b61209a9190612844565b600091505b6120ed633b9aca0089612844565b82101561210257600095505050505050611290565b509695505050505050565b608081015160608201516040808401516020808601516001600160801b038087166000908152601184528581209187168152925292812054909493929085906121579084906127ee565b6001600160801b038616600090815260116020526040812091925090633b9aca0090826112258860016128a1565b6006546040516321e3780160e01b81526001600160a01b03909116906321e37801906121b590849060040161266f565b602060405180830381865afa1580156121d2573d6000803e3d6000fd5b505050506040513d601f19601f820116820180604052508101906121f69190612814565b6001146111895760405162461bcd60e51b815260206004820152604960248201527f53746162696c697479506f6f6c3a2063616c6c6572206d75737420686176652060448201527f616e206163746976652074726f766520746f207769746864726177205753544560648201526854484761696e20746f60b81b608482015260a401611177565b600061228882610647565b9050600081116115665760405162461bcd60e51b815260206004820152603460248201527f53746162696c697479506f6f6c3a2063616c6c6572206d7573742068617665206044820152733737b716bd32b937902ba9aa22aa241023b0b4b760611b6064820152608401611177565b6001600160a01b03811661234d5760405162461bcd60e51b815260206004820152601e60248201527f4163636f756e742063616e6e6f74206265207a65726f206164647265737300006044820152606401611177565b803b806115665760405162461bcd60e51b815260206004820181905260248201527f4163636f756e7420636f64652073697a652063616e6e6f74206265207a65726f6044820152606401611177565b6000546001600160a01b0316331461092d5760405162461bcd60e51b815260206004820152602760248201527f53746162696c697479506f6f6c3a2043616c6c6572206973206e6f74204163746044820152661a5d99541bdbdb60ca1b6064820152608401611177565b600b54801580612414575081155b1561241d575050565b60006124298383612560565b90506000600e548261243b919061282d565b600f546001600160801b03600160801b82048116600090815260116020908152604080832093909416825291909152205490915061247a908290612801565b600f8054600160801b8082046001600160801b0390811660009081526011602081815260408084209685168452958152858320979097559454928304821680825294865283812092909116808252918552829020548251908152938401929092528201527f2d6127771b164a9cc8827d24b5955db2a77e7a81dac389107ebb8bce9fb649689060600160405180910390a150505050565b600081600b5461252191906127ee565b600b8190556040518181529091507fd6f74bcc5370b4a9c7158c1e641f02563ccbe9f2e69f7eb20a80312a9378c1ac9060200160405180910390a15050565b600080601254670de0b6b3a76400008561257a919061282d565b6125849190612801565b905060006125928483612844565b905061259e848261282d565b6125a890836127ee565b601255949350505050565b6001600160a01b038116811461118957600080fd5b6000602082840312156125da57600080fd5b813561157b816125b3565b80356001600160801b03811681146125fc57600080fd5b919050565b6000806040838503121561261457600080fd5b61261d836125e5565b915061262b602084016125e5565b90509250929050565b60006020828403121561264657600080fd5b5035919050565b6000806040838503121561266057600080fd5b50508035926020909101359150565b6001600160a01b0391909116815260200190565b6000806040838503121561269657600080fd5b8235915060208301356126a8816125b3565b809150509250929050565b600060208083528351808285015260005b818110156126e0578581018301518582016040015282016126c4565b506000604082860101526040601f19601f8301168501019250505092915050565b6000806040838503121561271457600080fd5b823561271f816125b3565b915060208301356126a8816125b3565b600080600080600080600080610100898b03121561274c57600080fd5b8835612757816125b3565b97506020890135612767816125b3565b96506040890135612777816125b3565b95506060890135612787816125b3565b94506080890135612797816125b3565b935060a08901356127a7816125b3565b925060c08901356127b7816125b3565b915060e08901356127c7816125b3565b809150509295985092959890939650565b634e487b7160e01b600052601160045260246000fd5b81810381811115611290576112906127d8565b80820180821115611290576112906127d8565b60006020828403121561282657600080fd5b5051919050565b8082028115828204841417611290576112906127d8565b60008261286157634e487b7160e01b600052601260045260246000fd5b500490565b6001600160a01b03929092168252602082015260400190565b60006020828403121561289157600080fd5b8151801515811461157b57600080fd5b6001600160801b038181168382160190808211156128c1576128c16127d8565b5092915050565b6000602082840312156128da57600080fd5b815161157b816125b3565b6001600160a01b039384168152919092166020820152604081019190915260600190565b634e487b7160e01b600052600160045260246000fd5b6001600160801b038281168282160390808211156128c1576128c16127d856fe5c4f8ecf7e676bbff1c4d48e979695d8266c95edc6aa6dd97512e13bfff42782bce78369dccab09eec1986f4d409ab09ffbb47d65423e5148fcf98411c5111c943c19c995f21be78ced6c13f0363f00ce5a7ef773cac2ff15f3095617ad98fd1a2646970667358221220939ca917f61f55c88107339ab4a938de0d60d9200492acd1ef1e2560bf64857c64736f6c63430008130033",
  "devdoc": {
    "kind": "dev",
    "methods": {
      "owner()": {
        "details": "Returns the address of the current owner."
      },
      "renounceOwnership()": {
        "details": "Leaves the contract without owner. It will not be possible to call `onlyOwner` functions. Can only be called by the current owner. NOTE: Renouncing ownership will leave the contract without an owner, thereby disabling any functionality that is only available to the owner."
      },
      "transferOwnership(address)": {
        "details": "Transfers ownership of the contract to a new account (`newOwner`). Can only be called by the current owner."
      }
    },
    "version": 1
  },
  "userdoc": {
    "kind": "user",
    "methods": {},
    "version": 1
  },
  "storageLayout": {
    "storage": [
      {
        "astId": 21034,
        "contract": "contracts/StabilityPool.sol:StabilityPool",
        "label": "activePool",
        "offset": 0,
        "slot": "0",
        "type": "t_contract(IActivePool)23133"
      },
      {
        "astId": 21037,
        "contract": "contracts/StabilityPool.sol:StabilityPool",
        "label": "defaultPool",
        "offset": 0,
        "slot": "1",
        "type": "t_contract(IDefaultPool)23462"
      },
      {
        "astId": 21041,
        "contract": "contracts/StabilityPool.sol:StabilityPool",
        "label": "priceFeed",
        "offset": 0,
        "slot": "2",
        "type": "t_contract(IPriceFeed)23597"
      },
      {
        "astId": 590,
        "contract": "contracts/StabilityPool.sol:StabilityPool",
        "label": "_owner",
        "offset": 0,
        "slot": "3",
        "type": "t_address"
      },
      {
        "astId": 9448,
        "contract": "contracts/StabilityPool.sol:StabilityPool",
        "label": "WSTETHAddress",
        "offset": 0,
        "slot": "4",
        "type": "t_address"
      },
      {
        "astId": 9451,
        "contract": "contracts/StabilityPool.sol:StabilityPool",
        "label": "borrowerOperations",
        "offset": 0,
        "slot": "5",
        "type": "t_contract(IBorrowerOperations)23318"
      },
      {
        "astId": 9454,
        "contract": "contracts/StabilityPool.sol:StabilityPool",
        "label": "troveManager",
        "offset": 0,
        "slot": "6",
        "type": "t_contract(ITroveManager)24470"
      },
      {
        "astId": 9457,
        "contract": "contracts/StabilityPool.sol:StabilityPool",
        "label": "simToken",
        "offset": 0,
        "slot": "7",
        "type": "t_contract(ISIMToken)23682"
      },
      {
        "astId": 9460,
        "contract": "contracts/StabilityPool.sol:StabilityPool",
        "label": "sortedTroves",
        "offset": 0,
        "slot": "8",
        "type": "t_contract(ISortedTroves)23818"
      },
      {
        "astId": 9463,
        "contract": "contracts/StabilityPool.sol:StabilityPool",
        "label": "communityIssuance",
        "offset": 0,
        "slot": "9",
        "type": "t_contract(IIssuance)23496"
      },
      {
        "astId": 9465,
        "contract": "contracts/StabilityPool.sol:StabilityPool",
        "label": "WSTETH",
        "offset": 0,
        "slot": "10",
        "type": "t_uint256"
      },
      {
        "astId": 9467,
        "contract": "contracts/StabilityPool.sol:StabilityPool",
        "label": "totalSIMDeposits",
        "offset": 0,
        "slot": "11",
        "type": "t_uint256"
      },
      {
        "astId": 9488,
        "contract": "contracts/StabilityPool.sol:StabilityPool",
        "label": "deposits",
        "offset": 0,
        "slot": "12",
        "type": "t_mapping(t_address,t_struct(Deposit)9472_storage)"
      },
      {
        "astId": 9493,
        "contract": "contracts/StabilityPool.sol:StabilityPool",
        "label": "depositSnapshots",
        "offset": 0,
        "slot": "13",
        "type": "t_mapping(t_address,t_struct(Snapshots)9483_storage)"
      },
      {
        "astId": 9496,
        "contract": "contracts/StabilityPool.sol:StabilityPool",
        "label": "P",
        "offset": 0,
        "slot": "14",
        "type": "t_uint256"
      },
      {
        "astId": 9501,
        "contract": "contracts/StabilityPool.sol:StabilityPool",
        "label": "currentScale",
        "offset": 0,
        "slot": "15",
        "type": "t_uint128"
      },
      {
        "astId": 9503,
        "contract": "contracts/StabilityPool.sol:StabilityPool",
        "label": "currentEpoch",
        "offset": 16,
        "slot": "15",
        "type": "t_uint128"
      },
      {
        "astId": 9509,
        "contract": "contracts/StabilityPool.sol:StabilityPool",
        "label": "epochToScaleToSum",
        "offset": 0,
        "slot": "16",
        "type": "t_mapping(t_uint128,t_mapping(t_uint128,t_uint256))"
      },
      {
        "astId": 9515,
        "contract": "contracts/StabilityPool.sol:StabilityPool",
        "label": "epochToScaleToG",
        "offset": 0,
        "slot": "17",
        "type": "t_mapping(t_uint128,t_mapping(t_uint128,t_uint256))"
      },
      {
        "astId": 9517,
        "contract": "contracts/StabilityPool.sol:StabilityPool",
        "label": "lastSHADYError",
        "offset": 0,
        "slot": "18",
        "type": "t_uint256"
      },
      {
        "astId": 9519,
        "contract": "contracts/StabilityPool.sol:StabilityPool",
        "label": "lastWSTETHError_Offset",
        "offset": 0,
        "slot": "19",
        "type": "t_uint256"
      },
      {
        "astId": 9521,
        "contract": "contracts/StabilityPool.sol:StabilityPool",
        "label": "lastSIMLossError_Offset",
        "offset": 0,
        "slot": "20",
        "type": "t_uint256"
      }
    ],
    "types": {
      "t_address": {
        "encoding": "inplace",
        "label": "address",
        "numberOfBytes": "20"
      },
      "t_contract(IActivePool)23133": {
        "encoding": "inplace",
        "label": "contract IActivePool",
        "numberOfBytes": "20"
      },
      "t_contract(IBorrowerOperations)23318": {
        "encoding": "inplace",
        "label": "contract IBorrowerOperations",
        "numberOfBytes": "20"
      },
      "t_contract(IDefaultPool)23462": {
        "encoding": "inplace",
        "label": "contract IDefaultPool",
        "numberOfBytes": "20"
      },
      "t_contract(IIssuance)23496": {
        "encoding": "inplace",
        "label": "contract IIssuance",
        "numberOfBytes": "20"
      },
      "t_contract(IPriceFeed)23597": {
        "encoding": "inplace",
        "label": "contract IPriceFeed",
        "numberOfBytes": "20"
      },
      "t_contract(ISIMToken)23682": {
        "encoding": "inplace",
        "label": "contract ISIMToken",
        "numberOfBytes": "20"
      },
      "t_contract(ISortedTroves)23818": {
        "encoding": "inplace",
        "label": "contract ISortedTroves",
        "numberOfBytes": "20"
      },
      "t_contract(ITroveManager)24470": {
        "encoding": "inplace",
        "label": "contract ITroveManager",
        "numberOfBytes": "20"
      },
      "t_mapping(t_address,t_struct(Deposit)9472_storage)": {
        "encoding": "mapping",
        "key": "t_address",
        "label": "mapping(address => struct StabilityPool.Deposit)",
        "numberOfBytes": "32",
        "value": "t_struct(Deposit)9472_storage"
      },
      "t_mapping(t_address,t_struct(Snapshots)9483_storage)": {
        "encoding": "mapping",
        "key": "t_address",
        "label": "mapping(address => struct StabilityPool.Snapshots)",
        "numberOfBytes": "32",
        "value": "t_struct(Snapshots)9483_storage"
      },
      "t_mapping(t_uint128,t_mapping(t_uint128,t_uint256))": {
        "encoding": "mapping",
        "key": "t_uint128",
        "label": "mapping(uint128 => mapping(uint128 => uint256))",
        "numberOfBytes": "32",
        "value": "t_mapping(t_uint128,t_uint256)"
      },
      "t_mapping(t_uint128,t_uint256)": {
        "encoding": "mapping",
        "key": "t_uint128",
        "label": "mapping(uint128 => uint256)",
        "numberOfBytes": "32",
        "value": "t_uint256"
      },
      "t_struct(Deposit)9472_storage": {
        "encoding": "inplace",
        "label": "struct StabilityPool.Deposit",
        "members": [
          {
            "astId": 9469,
            "contract": "contracts/StabilityPool.sol:StabilityPool",
            "label": "initialValue",
            "offset": 0,
            "slot": "0",
            "type": "t_uint256"
          },
          {
            "astId": 9471,
            "contract": "contracts/StabilityPool.sol:StabilityPool",
            "label": "frontEndTag",
            "offset": 0,
            "slot": "1",
            "type": "t_address"
          }
        ],
        "numberOfBytes": "64"
      },
      "t_struct(Snapshots)9483_storage": {
        "encoding": "inplace",
        "label": "struct StabilityPool.Snapshots",
        "members": [
          {
            "astId": 9474,
            "contract": "contracts/StabilityPool.sol:StabilityPool",
            "label": "S",
            "offset": 0,
            "slot": "0",
            "type": "t_uint256"
          },
          {
            "astId": 9476,
            "contract": "contracts/StabilityPool.sol:StabilityPool",
            "label": "P",
            "offset": 0,
            "slot": "1",
            "type": "t_uint256"
          },
          {
            "astId": 9478,
            "contract": "contracts/StabilityPool.sol:StabilityPool",
            "label": "G",
            "offset": 0,
            "slot": "2",
            "type": "t_uint256"
          },
          {
            "astId": 9480,
            "contract": "contracts/StabilityPool.sol:StabilityPool",
            "label": "scale",
            "offset": 0,
            "slot": "3",
            "type": "t_uint128"
          },
          {
            "astId": 9482,
            "contract": "contracts/StabilityPool.sol:StabilityPool",
            "label": "epoch",
            "offset": 16,
            "slot": "3",
            "type": "t_uint128"
          }
        ],
        "numberOfBytes": "128"
      },
      "t_uint128": {
        "encoding": "inplace",
        "label": "uint128",
        "numberOfBytes": "16"
      },
      "t_uint256": {
        "encoding": "inplace",
        "label": "uint256",
        "numberOfBytes": "32"
      }
    }
  }
}