{
  "address": "0x26db5e6aED5682E27fc91D7D7cCa24595824347c",
  "abi": [
    {
      "inputs": [
        {
          "internalType": "uint256",
          "name": "_tokenId",
          "type": "uint256"
        },
        {
          "internalType": "uint256",
          "name": "_balanceOf",
          "type": "uint256"
        },
        {
          "internalType": "uint256",
          "name": "untilEnd",
          "type": "uint256"
        },
        {
          "internalType": "uint256",
          "name": "_value",
          "type": "uint256"
        }
      ],
      "name": "tokenURI",
      "outputs": [
        {
          "internalType": "string",
          "name": "output",
          "type": "string"
        }
      ],
      "stateMutability": "pure",
      "type": "function"
    }
  ],
  "transactionHash": "0x2ef4c701739d139055ad674404b7694d9905bc3c04d3e6b45f531a6bcdf1ee1e",
  "args": [],
  "numDeployments": 1,
  "solcInputHash": "2d10d8ca88b5a3f61543e463b1cba125",
  "bytecode": "0x6125a961003a600b82828239805160001a60731461002d57634e487b7160e01b600052600060045260246000fd5b30600052607381538281f3fe73000000000000000000000000000000000000000030146080604052600436106100355760003560e01c8063555df1d01461003a575b600080fd5b61004d61004836600461044b565b610063565b60405161005a91906104a1565b60405180910390f35b606060405180611ac00160405280611a988152602001610a7c611a98913990508061008d866101d8565b60405160200161009e9291906104d4565b60408051601f198184030181529190529050806100cb6100c6670de0b6b3a7640000876105ea565b6101d8565b6040516020016100dc9291906105fe565b60408051601f198184030181529190529050806101146018603c61010081886105ea565b61010a91906105ea565b6100c691906105ea565b6040516020016101259291906106ed565b60408051601f1981840301815291905290508061014d6100c6670de0b6b3a7640000856105ea565b60405160200161015e9291906107e5565b604051602081830303815290604052905060006101ab61017d876101d8565b610186846102e1565b6040516020016101979291906108d8565b6040516020818303038152906040526102e1565b9050806040516020016101be919061099a565b604051602081830303815290604052915050949350505050565b6060816000036101ff5750506040805180820190915260018152600360fc1b602082015290565b8160005b81156102295780610213816109df565b91506102229050600a836105ea565b9150610203565b60008167ffffffffffffffff811115610244576102446109f8565b6040519080825280601f01601f19166020018201604052801561026e576020820181803683370190505b5090505b84156102d957610283600183610a0e565b9150610290600a86610a27565b61029b906030610a3b565b60f81b8183815181106102b0576102b0610a4e565b60200101906001600160f81b031916908160001a9053506102d2600a866105ea565b9450610272565b949350505050565b80516060906000819003610305575050604080516020810190915260008152919050565b60006003610314836002610a3b565b61031e91906105ea565b610329906004610a64565b90506000610338826020610a3b565b67ffffffffffffffff811115610350576103506109f8565b6040519080825280601f01601f19166020018201604052801561037a576020820181803683370190505b5090506000604051806060016040528060408152602001612514604091399050600181016020830160005b86811015610406576003818a01810151603f601282901c8116860151600c83901c8216870151600684901c831688015192909316870151600891821b60ff94851601821b92841692909201901b91160160e01b8352600490920191016103a5565b50600386066001811461042057600281146104315761043d565b613d3d60f01b60011983015261043d565b603d60f81b6000198301525b505050918152949350505050565b6000806000806080858703121561046157600080fd5b5050823594602084013594506040840135936060013592509050565b60005b83811015610498578181015183820152602001610480565b50506000910152565b60208152600082518060208401526104c081604085016020870161047d565b601f01601f19169190910160400192915050565b600083516104e681846020880161047d565b808301905060008051602061255483398151915281527f35302034363429222066696c6c3d22234541454346452220636c6173733d226260208201527f617365223e49443a3c2f746578743e3c74657874207472616e73666f726d3d2260408201527f6d617472697828312030203020312035302035303629222066696c6c3d22233660608201527333329b9c19911031b630b9b99e913130b9b2911f60611b6080820152835161059e81609484016020880161047d565b661e17ba32bc3a1f60c91b60949290910191820152609b01949350505050565b634e487b7160e01b600052601260045260246000fd5b634e487b7160e01b600052601160045260246000fd5b6000826105f9576105f96105be565b500490565b6000835161061081846020880161047d565b808301905060008051602061255483398151915281527f35302035373929222066696c6c3d22234541454346452220636c6173733d226260208201527f617365223e42616c616e63653a3c2f746578743e3c74657874207472616e736660408201527f6f726d3d226d617472697828312030203020312035302036323129222066696c606082015278361e91119b33329b9c19911031b630b9b99e913130b9b2911f60391b608082015283516106cd81609984016020880161047d565b661e17ba32bc3a1f60c91b6099929091019182015260a001949350505050565b600083516106ff81846020880161047d565b808301905060008051602061255483398151915281527f35302036393529222066696c6c3d22234541454346452220636c6173733d226260208201527f617365223e556e74696c20756e6c6f636b3a3c2f746578743e3c74657874207460408201527f72616e73666f726d3d226d61747269782831203020302031203530203733372960608201527f222066696c6c3d22233666653738332220636c6173733d2262617365223e0000608082015283516107c081609e84016020880161047d565b6b103230bcb99e17ba32bc3a1f60a11b609e929091019182015260aa01949350505050565b600083516107f781846020880161047d565b808301905060008051602061255483398151915281527f35302038313129222066696c6c3d22234541454346452220636c6173733d226260208201527f617365223e506f7765723a3c2f746578743e3c74657874207472616e73666f7260408201527f6d3d226d617472697828312030203020312035302038353329222066696c6c3d60608201527611119b33329b9c19911031b630b9b99e913130b9b2911f60491b608082015283516108b281609784016020880161047d565b6c1e17ba32bc3a1f1e17b9bb339f60991b6097929091019182015260a401949350505050565b717b226e616d65223a2022785348414459202360701b8152825160009061090681601285016020880161047d565b7f222c20226465736372697074696f6e223a20224c6f636b6564205348414459206012918401918201527f746f6b656e73222c2022696d616765223a2022646174613a696d6167652f737660328201526c19cade1b5b0ed8985cd94d8d0b609a1b6052820152835161097f81605f84016020880161047d565b61227d60f01b605f9290910191820152606101949350505050565b7f646174613a6170706c69636174696f6e2f6a736f6e3b6261736536342c0000008152600082516109d281601d85016020870161047d565b91909101601d0192915050565b6000600182016109f1576109f16105d4565b5060010190565b634e487b7160e01b600052604160045260246000fd5b81810381811115610a2157610a216105d4565b92915050565b600082610a3657610a366105be565b500690565b80820180821115610a2157610a216105d4565b634e487b7160e01b600052603260045260246000fd5b8082028115828204841417610a2157610a216105d456fe3c73766720786d6c6e733d22687474703a2f2f7777772e77332e6f72672f323030302f737667222076696577426f783d2230203020363030203930302220786d6c6e733a786c696e6b3d22687474703a2f2f7777772e77332e6f72672f313939392f786c696e6b223e3c7374796c653e2e626173657b666f6e742d73697a653a343070783b7d3c2f7374796c653e3c726563742066696c6c3d2223343461343635222077696474683d2236303022206865696768743d22393030222f3e3c706174682066696c6c3d22233142343232392220643d224d302c39303068363030563532322e32433435342e342c3531372e322c3130372e342c3435362e382c36302e322c304830563930307a222f3e3c636972636c652066696c6c3d2223363964623763222063783d22333835222063793d223231322220723d22313230222f3e3c73796d626f6c2069643d22696d6167652d32343161323832356439363565613637376233646332326161656139333735623261656236313933223e3c696d6167652077696474683d223130302522206865696768743d22313030252220786c696e6b3a687265663d22646174613a696d6167652f706e673b6261736536342c6956424f5277304b47676f414141414e5355684555674141414b414141414367434159414141434c7a3263744141414d506d6c445131424a51304d6755484a765a6d6c735a51414153496d565677645955386b576e6c75536b45426f6f55734a76516b694e59435545466f4136563155516849676c426744516356654668566375316a416871364b4b466870466852524c43794b76533857564a523173574258337153417276764b3979626633506e7a7a356e2f6e446b7a7477774161696334496c45657167354176724251484273535145394f536157546e6749693049452f5865444d345261496d4e4852455143576f6662763564313167456a624b77355372582f322f39656977654d58634146416f69484f344256773879452b424142657952574a43774567536e6e7a4b5955694b59595661496c68674241766b7549734f613655346777353369657a6959396c51647747674a494b6879504f416b44314575547052647773714b4861443747546b436351417142476839673350333853442b4a30694732676a5168697154346a34776564724c39705a677872636a685a7731672b46316c524368515569504934302f375064507a766b70386e47664a684261744b746a6730566a706e6d4c6562755a504370566746346a3568526d5155784a6f51667844775a5059516f355273535769433342343135426177594d37674f6750556963634a44496659454f4a675956356b68494c5079425145737947474f7753644b69686b78304f73422f4569666b46516e4d4a6d69336853724d4958577038705a6a45562f466d4f574f5a583675752b4a4465427164422f6e63316e4b2f517831654c732b4353494b52426246416b534979465768646978494463755847457a706a696246546c6b4935624553754f33674469574c77774a6b4f746a525a6e693446694666576c2b776442387353335a416e616b4168386f7a4934506c656348612b4e795a504844755743582b454a6d7770414f76794135596d6775504835676b487a7532444f2b4d43464f6f664e42564267514b782b4c55305235305170373349796646794c6c7a5342324c53694b55347a46457776686870547234356d6977756834655a78346351346e4c466f6544373463524141574341523049494531413077434f55445132646651422f2f4a6534494242346842467541444277557a4e434a4a31694f45317a6851445036456941384b68736346794872356f416a795834645a2b6455425a4d70366932516a6373455469504e424f4d69442f79577955634a6862346e674d5751452f2f444f675a554c343832445664722f372f6b68396a7644684579456770454d6561537244566b5367346942784642694d4e45574e38423963573838416c37395958584747626a6e3044792b32784f65454c6f4944776e58434e324557784d463838512f52546b5764455039594555754d6e374d425734464e643377414e7748716b4e6c58416333414136344b2f5444785032675a7a66497368527853374e432f306e37627a503459545555646d516e4d6b72574a667554625834657157716e366a6173497333316a2f6d5278356f786e472f57634d2f502f6c6b2f5a4a3848322f43664c624646324547734854754a6e634f4f596732416a7256676a566748646b794b6833665859396e75477649574b34736e462b6f492f7546766147576c6d537877716e487164666f693779766b5435552b6f7746726b6d6961574a43565855686e776a63436e38345763683148307032646e4630416b4c356635492b764e7a477939776169302f47646d2f38484144347467344f445237357a595330413750654174332f5464383647415638647967436362654a4b7845567944706465435041706f5162764e483167444d7942445a79504d33414833734166424945774541586951517159414b505068767463444b6141475741754b41466c59446c59417a61417a5741623241583267674f67415277464a38455a6341466341746641486268376573414c30412f6567633849677041514b6b4a443942455478424b785235775242754b4c42434552534379536771516a575967516b53417a6b506c494762495332594273526171522f55675463684935683351687435414853432f7947766d455971674b716f55616f56626f4b4a53424d7446774e4234646a3261686b394669644147364646324856714637304872304a486f4276595a326f792f51415178677970674f5a6f6f355941794d685556687156676d4a735a6d596156594f56614631574c4e634a3276594e3159482f59524a2b49306e49343777423063696966675848777950677466676d2f41642b48316542742b42582b41392b50664346534349634765344556674535494a5759517068424a434f574548345444684e4c795865676a7669455369447447613641487678525269446e453663516c784937474f65494c59525878454843435253506f6b653549504b59724549525753536b6a72535874494c61544c704237534279566c4a524d6c5a3656677056516c6f64493870584b6c335572486c533472505658365446596e57354b397946466b486e6b6165526c354f376d5a664a4863512f354d306142595533776f385a5163796c7a4b4f6b6f743554546c4c75574e73724b796d624b6e636f797951486d4f386a726c6663706e6c52386f66315452564c465459616d6b715568556c71727356446d68636b766c445a564b74614c3655314f706864536c314772714b657039366764566d71716a4b6c7556707a706274554b3158765779366b73317370716c476c4e74676c717857726e615162574c616e33715a485572645a593652333257656f56366b2f6f4e3951454e6d735a6f6a53694e6649306c477273317a6d6b3830795270576d6b476166493046326875307a796c2b596947306378704c4271584e702b326e58616131714e46314c4c57596d766c614a567037645871314f725831745232315537556e7170646f58314d75317348303748535965766b36537a544f61427a5865655472704575553565767531693356766579376e75394558722b656e793955723036765774366e2f54702b6b483675666f723942763037786e67426e59474d515a544444595a6e44626f47364531776e73456430547069414d6a62687569686e6147735962544462635a6468674f47426b626852694a6a4e59626e544c714d395978396a664f4d563574664e79343134526d346d73694d466c74306d4c796e4b354e5a394c7a364f766f6266522b5530505455464f4a36566254547450505a745a6d4357627a7a4f724d37706c547a426e6d6d6561727a56764e2b79314d4c4d5a617a4c436f7362687453625a6b57475a6272725673743378765a5732565a4c5851717348716d6257654e647536324c72472b71344e316362505a724a4e6c63315657364974777a6258647150744a5476557a7330753236374337714939617539754c374466614e38316b6a4453633652775a4e584947773471446b7948496f63616877654f4f6f34526a764d63477878666a7249596c54707178616a3255642b63334a7a796e4c593733526d744f547073394c7a527a614e664f397335633530726e4b2b3655463243585761374e4c7138637256333562747563723370526e4d6236376251726458747137754875396939317233587738496a3361505334775a446978484e574d493436306e774450436337586e5538364f5875316568317747767637776476484f396433732f47324d39686a396d2b356848506d592b484a2b745074322b644e39303379322b3358366d6668792f4b722b482f75622b505038642f6b2b5a747377633568376d7977436e41484841345944334c432f57544e614a514377774a4c413073444e494d796768614550512f57437a344b7a676d75442b454c65513653456e51676d6834614572516d2b776a646863646a57375038776a62475a595737684b65467a346876434845585952346f6a6d73656a59734c47727874364e74497755526a5a4567536832314b716f65394857305a4f6a6a38515159364a6a4b6d4b657849364f6e524862486b654c6d7869334f2b356466454438737667374354594a6b6f5457524c5845744d54717850644a67556b726b37715452795850544c36515970416953476c4d4a61556d70753549485267584e47374e754a343074375353744f766a72636450485839756773474576416e484a71704e354577386d453549543072666e663646453857703467786b73444d714d2f71354c4f356137677565503238317235667677312f4a663572706b376b7938316d5754396171724e3573762b7a79374434425337424238436f6e4e47647a7a767663714e796475594e3553586c312b55723536666c4e516b3168727242746b76476b715a4f3652506169456c48335a4b2f4a61796233693850464f777151677645466a59566138454f2b5132496a2b5558796f4d6933714b4c6f773554454b51656e616b7756547532595a6a64743862536e786348467630334870334f6e743834776e544633786f4f5a7a4a6c625a79477a4d6d61317a6a6166765742327a3579514f62766d5575626d7a7631396e744f386c6650657a6b2b6133377a41614d47634259392b43666d6c706b533152467879593648337773324c38455743525a324c58526176582f79746c46643676737970724c7a7379784c756b764f2f6a76353133612b44537a4f586469357a58375a704f58473563506e31465834726471335557466d38387447717361767156394e586c36352b753262696d6e506c7275576231314c5753745a327234745931376a6559763379395638325a472b345668465155566470574c6d34387631473373624c6d2f773331573432326c79322b644d57775a616257304f32316c645a565a56764932347232765a6b652b4c3239743859763158764d4e6852747550725475484f376c3278753971715061717264787675586c6144316b68716576656b37626d304e33427659363144376459366e627179665743665a4e2f7a2f656e3772783849503942366b4847773970446c6f637244744d4f6c39556a397450722b68757947377361557871366d734b62575a752f6d773063636a2b7738616e713034706a32735758484b636358484239734b57345a4f43453630586379362b536a316f6d746430346c6e3772614674505765547238394e6b7a7757644f74545062573837366e4431367a75746330336e472b59594c376866714f39773644762f75397676685476664f2b6f736546787376655635713768725464667979332b575456774b766e4c6e4b766e7268577553317275734a31322f65534c7652665a4e3338396d7476467576626866642f6e786e7a6c334333644a373676664b37787665722f7244396f2b366276667559773843483351386a487434357848333059764842592b2f39437834516e31532f74546b6166557a3532644865344e374c7a306639377a6e68656a4635373653507a582b72487870382f4c51582f352f6466516e392f653845723861664c336b6a6636626e5739643337594f52412f636635662f3776503730672f3648335a395a4878732f35543036656e6e4b56394958395a39746633612f433338323933422f4d46424555664d6b58304b594c43696d5a6b41764e344a4144554641426f386e3148477963392f736f4c497a367779425034546c7038525a635564674672342f5237544237397562674377627a7338666b4639745451416f716b4178487343314d566c754136643157546e536d6b68776e50416c72697647666b5a344e38552b5a6e7a6837682f626f4655315258383350344c39724e386949677956504941414141345a56684a5a6b314e41436f41414141494141474861514145414141414151414141426f414141414141414b67416741454141414141514141414b4367417741454141414141514141414b41414141414168435137737741414252744a52454655654148743354324c47465555427544564749694a69686f5478434b6f6c594b46574551624565784d35352b7a74726578744171324e6d6c4e7079776f526c67555958574a694b617754495a337944334d2f58685337707963756663354c31506b5a6d5a50547677685149414141514945434241675149414141514945434241675149414141514945434241675149414141514945434241675149414141514945434241675149414141514945434241595465435a30526238744f7639384e32582f333361486a33382f652b2b2f33324b325433624136593172437367674f764f766f7564433241585931683345514b3437757937324c6b41646a474764526368674f764f766f7564433241585931683345514b3437757937324c6b41646a474764526678334378625430383450762f345a72546c737a2f2b6a75724f4c2f364a36744b696131637570615852696336724c31364f2b72333178764e52335264666e7a5939676645456a4e675656516b49594a57737670474141455a4d69716f45424c424b567439495141416a4a6b565641674a594a6174764a434341455a4f694b674542724a4c564e7849517749684a555a564130332f56726c706b7937377069636d4433783632764733633638354872385731536547746d31655373704d76762f6b707172742f657434304d353641456275694b674542724a4c564e7849517749684a555a57414146624a3668734a43474445704b684b514143725a50574e42415177596c4a554a53434156624c36526749434744457071684b5935703251464b6a337230723938504e6630627365373733395172546c303138766f72714c683946746f313537696a77423932697062533467674d314a4e64776a49494237744e5132467844413571516137684551774431616170734c4347427a5567333343416a67486932317a51554573446d70686e7345424843506c74726d416b332f66332f7a31553355384c50624e364b6a68765172565866766e5555366e3335775061704c76387231316263506f6e342f2f764a6e6c43315077496854555a57414146624a3668734a43474445704b684b514143725a50574e42415177596c4a554a53434156624c365267494347444570716849517743705a66534d42415979594646554a4c50644f534776493949546a6b2f6466695737642b6974566a39373169453567576e2b564b3972736f794a507746524b58596d41414a617761706f4b43474171706135455141424c5744564e425151776c564a58496943414a617961706749436d4571704b78455177424a5754564d424155796c314a55494f416c35416d74367770472b77394836684f4d4a7978377578353641773431737267554c34467a7a48473433416a6a63794f5a617341444f4e632f6864694f41773431737267554c34467a7a48473433416a6a63794f5a617341444f4e632f6864694f41773431737267557664784b536e6e4163395137485566464b76343756656e3265674b31463964736c49494337754253334668444131714c363752495177463163696c734c434742725566313243516a674c69374672515545734c576f66727345424841586c2b4c5741674c59576c532f58514c546e49536b4a787a65345868385071362f64506e784634702f36676c59444b7a39746f41416276753457697767674d5841326d384c434f43326a36764641674a59444b7a39746f41416276753457697767674d5841326d384c434f43326a36764641674a59444b7a39746b4430573632335739526554553834566e75486f3758366d3639666a58366653507162304e503165514b6d5575704b42415377684658545645414155796c314a514943574d4b7161536f67674b6d55756849424153786831545156454d4255536c324a6741435773477161436768674b715775524f43776b35443068434e39682b507576624d49365037702b5746376a686134574a456e344749443732323741746a6252425a626a7741754e764465746975417655316b73665549344749443732323741746a6252425a626a7741754e764465746975417655316b7366554934474944373232377a55384630684d4f37334430466f566a31754d4a65497937752f347649494369634b69414142374b372b59434b414f4843676a676f6678754c6f4179634b69414142374b372b59434b414f4843676a676f6678753376776b354a316231364b764c4b58303375464970636173387751636332375472466f4170786e6c6d4273527744486e4e7332714258436155593635455145636332375472466f4170786e6c6d4273527744486e4e73327142584361555936354551456363323557545941414151494543424167514941414151494543424167514941414151494543424167304c3341662b75596269786f533157464141414141456c46546b5375516d4343223e3c2f696d6167653e3c2f73796d626f6c3e3c67207472616e73666f726d3d227472616e736c6174652833372e35373931303634353833343435342033302e3236303030393538323636383331372920726f7461746528302038362e34303735363130303130343935342038362e343037353631303031303439303929223e3c75736520786c696e6b3a687265663d2223696d6167652d32343161323832356439363565613637376233646332326161656139333735623261656236313933222077696474683d2231373322206865696768743d2231373322206f7061636974793d22312220783d223236302220793d223835223e3c2f7573653e3c2f673e4142434445464748494a4b4c4d4e4f505152535455565758595a6162636465666768696a6b6c6d6e6f707172737475767778797a303132333435363738392b2f3c74657874207472616e73666f726d3d226d6174726978283120302030203120a26469706673582212201df7bc2f68b4a6d3df5c174742f6724b2f6a5e1472a0826262b057151541e6a264736f6c63430008130033",
  "devdoc": {
    "author": "belbix",
    "kind": "dev",
    "methods": {
      "tokenURI(uint256,uint256,uint256,uint256)": {
        "details": "Return SVG logo of xSHADY"
      }
    },
    "title": "Library for storing SVG image of veNFT.",
    "version": 1
  },
  "userdoc": {
    "kind": "user",
    "methods": {},
    "version": 1
  },
  "storageLayout": {
    "storage": [],
    "types": null
  }
}